{
	"contracts/TokenVesting.sol": {
		"TokenVesting": {
			"abi": [
				{
					"inputs": [
						{
							"internalType": "contract IERC20",
							"name": "_token",
							"type": "address"
						},
						{
							"internalType": "address",
							"name": "_beneficiary",
							"type": "address"
						},
						{
							"internalType": "uint256",
							"name": "_lockTime",
							"type": "uint256"
						}
					],
					"stateMutability": "nonpayable",
					"type": "constructor"
				},
				{
					"anonymous": false,
					"inputs": [
						{
							"indexed": true,
							"internalType": "address",
							"name": "beneficiary",
							"type": "address"
						},
						{
							"indexed": true,
							"internalType": "address",
							"name": "token",
							"type": "address"
						},
						{
							"indexed": false,
							"internalType": "uint256",
							"name": "releaseTime",
							"type": "uint256"
						},
						{
							"indexed": false,
							"internalType": "uint256",
							"name": "amount",
							"type": "uint256"
						}
					],
					"name": "Released",
					"type": "event"
				},
				{
					"inputs": [],
					"name": "beneficiary",
					"outputs": [
						{
							"internalType": "address",
							"name": "",
							"type": "address"
						}
					],
					"stateMutability": "view",
					"type": "function"
				},
				{
					"inputs": [],
					"name": "lockTime",
					"outputs": [
						{
							"internalType": "uint256",
							"name": "",
							"type": "uint256"
						}
					],
					"stateMutability": "view",
					"type": "function"
				},
				{
					"inputs": [],
					"name": "release",
					"outputs": [],
					"stateMutability": "nonpayable",
					"type": "function"
				},
				{
					"inputs": [],
					"name": "releasedAmount",
					"outputs": [
						{
							"internalType": "uint256",
							"name": "",
							"type": "uint256"
						}
					],
					"stateMutability": "view",
					"type": "function"
				},
				{
					"inputs": [],
					"name": "startTime",
					"outputs": [
						{
							"internalType": "uint256",
							"name": "",
							"type": "uint256"
						}
					],
					"stateMutability": "view",
					"type": "function"
				},
				{
					"inputs": [],
					"name": "token",
					"outputs": [
						{
							"internalType": "contract IERC20",
							"name": "",
							"type": "address"
						}
					],
					"stateMutability": "view",
					"type": "function"
				}
			],
			"devdoc": {
				"kind": "dev",
				"methods": {},
				"version": 1
			},
			"evm": {
				"assembly": "    /* \"contracts/TokenVesting.sol\":121:2141  contract TokenVesting {... */\n  mstore(0x40, 0x0100)\n    /* \"contracts/TokenVesting.sol\":696:1033  constructor(IERC20 _token, address _beneficiary, uint256 _lockTime) {... */\n  callvalue\n  dup1\n  iszero\n  tag_1\n  jumpi\n  revert(0x00, 0x00)\ntag_1:\n  pop\n  mload(0x40)\n  sub(codesize, bytecodeSize)\n  dup1\n  bytecodeSize\n  dup4\n  codecopy\n  dup2\n  dup2\n  add\n  0x40\n  mstore\n  dup2\n  add\n  swap1\n  tag_2\n  swap2\n  swap1\n  tag_3\n  jump\t// in\ntag_2:\n    /* \"contracts/TokenVesting.sol\":831:832  0 */\n  0x00\n    /* \"contracts/TokenVesting.sol\":819:828  _lockTime */\n  dup2\n    /* \"contracts/TokenVesting.sol\":819:832  _lockTime > 0 */\n  gt\n    /* \"contracts/TokenVesting.sol\":811:868  require(_lockTime > 0, \"lock time should greater than 0\") */\n  tag_6\n  jumpi\n  mload(0x40)\n  0x08c379a000000000000000000000000000000000000000000000000000000000\n  dup2\n  mstore\n  0x04\n  add\n  tag_7\n  swap1\n  tag_8\n  jump\t// in\ntag_7:\n  mload(0x40)\n  dup1\n  swap2\n  sub\n  swap1\n  revert\ntag_6:\n    /* \"contracts/TokenVesting.sol\":893:899  _token */\n  dup3\n    /* \"contracts/TokenVesting.sol\":885:899  token = _token */\n  0xffffffffffffffffffffffffffffffffffffffff\n  and\n  0x80\n  dup2\n  0xffffffffffffffffffffffffffffffffffffffff\n  and\n  dup2\n  mstore\n  pop\n  pop\n    /* \"contracts/TokenVesting.sol\":921:933  _beneficiary */\n  dup2\n    /* \"contracts/TokenVesting.sol\":907:933  beneficiary = _beneficiary */\n  0xffffffffffffffffffffffffffffffffffffffff\n  and\n  0xa0\n  dup2\n  0xffffffffffffffffffffffffffffffffffffffff\n  and\n  dup2\n  mstore\n  pop\n  pop\n    /* \"contracts/TokenVesting.sol\":952:961  _lockTime */\n  dup1\n    /* \"contracts/TokenVesting.sol\":941:961  lockTime = _lockTime */\n  0xe0\n  dup2\n  dup2\n  mstore\n  pop\n  pop\n    /* \"contracts/TokenVesting.sol\":981:996  block.timestamp */\n  timestamp\n    /* \"contracts/TokenVesting.sol\":969:996  startTime = block.timestamp */\n  0xc0\n  dup2\n  dup2\n  mstore\n  pop\n  pop\n    /* \"contracts/TokenVesting.sol\":696:1033  constructor(IERC20 _token, address _beneficiary, uint256 _lockTime) {... */\n  pop\n  pop\n  pop\n    /* \"contracts/TokenVesting.sol\":121:2141  contract TokenVesting {... */\n  jump(tag_9)\n    /* \"#utility.yul\":88:205   */\ntag_11:\n    /* \"#utility.yul\":197:198   */\n  0x00\n    /* \"#utility.yul\":194:195   */\n  0x00\n    /* \"#utility.yul\":187:199   */\n  revert\n    /* \"#utility.yul\":334:460   */\ntag_13:\n    /* \"#utility.yul\":371:378   */\n  0x00\n    /* \"#utility.yul\":411:453   */\n  0xffffffffffffffffffffffffffffffffffffffff\n    /* \"#utility.yul\":404:409   */\n  dup3\n    /* \"#utility.yul\":400:454   */\n  and\n    /* \"#utility.yul\":389:454   */\n  swap1\n  pop\n    /* \"#utility.yul\":334:460   */\n  swap2\n  swap1\n  pop\n  jump\t// out\n    /* \"#utility.yul\":466:562   */\ntag_14:\n    /* \"#utility.yul\":503:510   */\n  0x00\n    /* \"#utility.yul\":532:556   */\n  tag_32\n    /* \"#utility.yul\":550:555   */\n  dup3\n    /* \"#utility.yul\":532:556   */\n  tag_13\n  jump\t// in\ntag_32:\n    /* \"#utility.yul\":521:556   */\n  swap1\n  pop\n    /* \"#utility.yul\":466:562   */\n  swap2\n  swap1\n  pop\n  jump\t// out\n    /* \"#utility.yul\":568:677   */\ntag_15:\n    /* \"#utility.yul\":618:625   */\n  0x00\n    /* \"#utility.yul\":647:671   */\n  tag_34\n    /* \"#utility.yul\":665:670   */\n  dup3\n    /* \"#utility.yul\":647:671   */\n  tag_14\n  jump\t// in\ntag_34:\n    /* \"#utility.yul\":636:671   */\n  swap1\n  pop\n    /* \"#utility.yul\":568:677   */\n  swap2\n  swap1\n  pop\n  jump\t// out\n    /* \"#utility.yul\":683:831   */\ntag_16:\n    /* \"#utility.yul\":769:806   */\n  tag_36\n    /* \"#utility.yul\":800:805   */\n  dup2\n    /* \"#utility.yul\":769:806   */\n  tag_15\n  jump\t// in\ntag_36:\n    /* \"#utility.yul\":762:767   */\n  dup2\n    /* \"#utility.yul\":759:807   */\n  eq\n    /* \"#utility.yul\":749:825   */\n  tag_37\n  jumpi\n    /* \"#utility.yul\":821:822   */\n  0x00\n    /* \"#utility.yul\":818:819   */\n  0x00\n    /* \"#utility.yul\":811:823   */\n  revert\n    /* \"#utility.yul\":749:825   */\ntag_37:\n    /* \"#utility.yul\":683:831   */\n  pop\n  jump\t// out\n    /* \"#utility.yul\":837:1006   */\ntag_17:\n    /* \"#utility.yul\":907:912   */\n  0x00\n    /* \"#utility.yul\":938:944   */\n  dup2\n    /* \"#utility.yul\":932:945   */\n  mload\n    /* \"#utility.yul\":923:945   */\n  swap1\n  pop\n    /* \"#utility.yul\":954:1000   */\n  tag_39\n    /* \"#utility.yul\":994:999   */\n  dup2\n    /* \"#utility.yul\":954:1000   */\n  tag_16\n  jump\t// in\ntag_39:\n    /* \"#utility.yul\":837:1006   */\n  swap3\n  swap2\n  pop\n  pop\n  jump\t// out\n    /* \"#utility.yul\":1012:1134   */\ntag_18:\n    /* \"#utility.yul\":1085:1109   */\n  tag_41\n    /* \"#utility.yul\":1103:1108   */\n  dup2\n    /* \"#utility.yul\":1085:1109   */\n  tag_14\n  jump\t// in\ntag_41:\n    /* \"#utility.yul\":1078:1083   */\n  dup2\n    /* \"#utility.yul\":1075:1110   */\n  eq\n    /* \"#utility.yul\":1065:1128   */\n  tag_42\n  jumpi\n    /* \"#utility.yul\":1124:1125   */\n  0x00\n    /* \"#utility.yul\":1121:1122   */\n  0x00\n    /* \"#utility.yul\":1114:1126   */\n  revert\n    /* \"#utility.yul\":1065:1128   */\ntag_42:\n    /* \"#utility.yul\":1012:1134   */\n  pop\n  jump\t// out\n    /* \"#utility.yul\":1140:1283   */\ntag_19:\n    /* \"#utility.yul\":1197:1202   */\n  0x00\n    /* \"#utility.yul\":1228:1234   */\n  dup2\n    /* \"#utility.yul\":1222:1235   */\n  mload\n    /* \"#utility.yul\":1213:1235   */\n  swap1\n  pop\n    /* \"#utility.yul\":1244:1277   */\n  tag_44\n    /* \"#utility.yul\":1271:1276   */\n  dup2\n    /* \"#utility.yul\":1244:1277   */\n  tag_18\n  jump\t// in\ntag_44:\n    /* \"#utility.yul\":1140:1283   */\n  swap3\n  swap2\n  pop\n  pop\n  jump\t// out\n    /* \"#utility.yul\":1289:1366   */\ntag_20:\n    /* \"#utility.yul\":1326:1333   */\n  0x00\n    /* \"#utility.yul\":1355:1360   */\n  dup2\n    /* \"#utility.yul\":1344:1360   */\n  swap1\n  pop\n    /* \"#utility.yul\":1289:1366   */\n  swap2\n  swap1\n  pop\n  jump\t// out\n    /* \"#utility.yul\":1372:1494   */\ntag_21:\n    /* \"#utility.yul\":1445:1469   */\n  tag_47\n    /* \"#utility.yul\":1463:1468   */\n  dup2\n    /* \"#utility.yul\":1445:1469   */\n  tag_20\n  jump\t// in\ntag_47:\n    /* \"#utility.yul\":1438:1443   */\n  dup2\n    /* \"#utility.yul\":1435:1470   */\n  eq\n    /* \"#utility.yul\":1425:1488   */\n  tag_48\n  jumpi\n    /* \"#utility.yul\":1484:1485   */\n  0x00\n    /* \"#utility.yul\":1481:1482   */\n  0x00\n    /* \"#utility.yul\":1474:1486   */\n  revert\n    /* \"#utility.yul\":1425:1488   */\ntag_48:\n    /* \"#utility.yul\":1372:1494   */\n  pop\n  jump\t// out\n    /* \"#utility.yul\":1500:1643   */\ntag_22:\n    /* \"#utility.yul\":1557:1562   */\n  0x00\n    /* \"#utility.yul\":1588:1594   */\n  dup2\n    /* \"#utility.yul\":1582:1595   */\n  mload\n    /* \"#utility.yul\":1573:1595   */\n  swap1\n  pop\n    /* \"#utility.yul\":1604:1637   */\n  tag_50\n    /* \"#utility.yul\":1631:1636   */\n  dup2\n    /* \"#utility.yul\":1604:1637   */\n  tag_21\n  jump\t// in\ntag_50:\n    /* \"#utility.yul\":1500:1643   */\n  swap3\n  swap2\n  pop\n  pop\n  jump\t// out\n    /* \"#utility.yul\":1649:2338   */\ntag_3:\n    /* \"#utility.yul\":1750:1756   */\n  0x00\n    /* \"#utility.yul\":1758:1764   */\n  0x00\n    /* \"#utility.yul\":1766:1772   */\n  0x00\n    /* \"#utility.yul\":1815:1817   */\n  0x60\n    /* \"#utility.yul\":1803:1812   */\n  dup5\n    /* \"#utility.yul\":1794:1801   */\n  dup7\n    /* \"#utility.yul\":1790:1813   */\n  sub\n    /* \"#utility.yul\":1786:1818   */\n  slt\n    /* \"#utility.yul\":1783:1902   */\n  iszero\n  tag_52\n  jumpi\n    /* \"#utility.yul\":1821:1900   */\n  tag_53\n  tag_11\n  jump\t// in\ntag_53:\n    /* \"#utility.yul\":1783:1902   */\ntag_52:\n    /* \"#utility.yul\":1941:1942   */\n  0x00\n    /* \"#utility.yul\":1966:2043   */\n  tag_54\n    /* \"#utility.yul\":2035:2042   */\n  dup7\n    /* \"#utility.yul\":2026:2032   */\n  dup3\n    /* \"#utility.yul\":2015:2024   */\n  dup8\n    /* \"#utility.yul\":2011:2033   */\n  add\n    /* \"#utility.yul\":1966:2043   */\n  tag_17\n  jump\t// in\ntag_54:\n    /* \"#utility.yul\":1956:2043   */\n  swap4\n  pop\n    /* \"#utility.yul\":1912:2053   */\n  pop\n    /* \"#utility.yul\":2092:2094   */\n  0x20\n    /* \"#utility.yul\":2118:2182   */\n  tag_55\n    /* \"#utility.yul\":2174:2181   */\n  dup7\n    /* \"#utility.yul\":2165:2171   */\n  dup3\n    /* \"#utility.yul\":2154:2163   */\n  dup8\n    /* \"#utility.yul\":2150:2172   */\n  add\n    /* \"#utility.yul\":2118:2182   */\n  tag_19\n  jump\t// in\ntag_55:\n    /* \"#utility.yul\":2108:2182   */\n  swap3\n  pop\n    /* \"#utility.yul\":2063:2192   */\n  pop\n    /* \"#utility.yul\":2231:2233   */\n  0x40\n    /* \"#utility.yul\":2257:2321   */\n  tag_56\n    /* \"#utility.yul\":2313:2320   */\n  dup7\n    /* \"#utility.yul\":2304:2310   */\n  dup3\n    /* \"#utility.yul\":2293:2302   */\n  dup8\n    /* \"#utility.yul\":2289:2311   */\n  add\n    /* \"#utility.yul\":2257:2321   */\n  tag_22\n  jump\t// in\ntag_56:\n    /* \"#utility.yul\":2247:2321   */\n  swap2\n  pop\n    /* \"#utility.yul\":2202:2331   */\n  pop\n    /* \"#utility.yul\":1649:2338   */\n  swap3\n  pop\n  swap3\n  pop\n  swap3\n  jump\t// out\n    /* \"#utility.yul\":2344:2513   */\ntag_23:\n    /* \"#utility.yul\":2428:2439   */\n  0x00\n    /* \"#utility.yul\":2462:2468   */\n  dup3\n    /* \"#utility.yul\":2457:2460   */\n  dup3\n    /* \"#utility.yul\":2450:2469   */\n  mstore\n    /* \"#utility.yul\":2502:2506   */\n  0x20\n    /* \"#utility.yul\":2497:2500   */\n  dup3\n    /* \"#utility.yul\":2493:2507   */\n  add\n    /* \"#utility.yul\":2478:2507   */\n  swap1\n  pop\n    /* \"#utility.yul\":2344:2513   */\n  swap3\n  swap2\n  pop\n  pop\n  jump\t// out\n    /* \"#utility.yul\":2519:2700   */\ntag_24:\n    /* \"#utility.yul\":2659:2692   */\n  0x6c6f636b2074696d652073686f756c642067726561746572207468616e203000\n    /* \"#utility.yul\":2655:2656   */\n  0x00\n    /* \"#utility.yul\":2647:2653   */\n  dup3\n    /* \"#utility.yul\":2643:2657   */\n  add\n    /* \"#utility.yul\":2636:2693   */\n  mstore\n    /* \"#utility.yul\":2519:2700   */\n  pop\n  jump\t// out\n    /* \"#utility.yul\":2706:3072   */\ntag_25:\n    /* \"#utility.yul\":2848:2851   */\n  0x00\n    /* \"#utility.yul\":2869:2936   */\n  tag_60\n    /* \"#utility.yul\":2933:2935   */\n  0x1f\n    /* \"#utility.yul\":2928:2931   */\n  dup4\n    /* \"#utility.yul\":2869:2936   */\n  tag_23\n  jump\t// in\ntag_60:\n    /* \"#utility.yul\":2862:2936   */\n  swap2\n  pop\n    /* \"#utility.yul\":2945:3038   */\n  tag_61\n    /* \"#utility.yul\":3034:3037   */\n  dup3\n    /* \"#utility.yul\":2945:3038   */\n  tag_24\n  jump\t// in\ntag_61:\n    /* \"#utility.yul\":3063:3065   */\n  0x20\n    /* \"#utility.yul\":3058:3061   */\n  dup3\n    /* \"#utility.yul\":3054:3066   */\n  add\n    /* \"#utility.yul\":3047:3066   */\n  swap1\n  pop\n    /* \"#utility.yul\":2706:3072   */\n  swap2\n  swap1\n  pop\n  jump\t// out\n    /* \"#utility.yul\":3078:3497   */\ntag_8:\n    /* \"#utility.yul\":3244:3248   */\n  0x00\n    /* \"#utility.yul\":3282:3284   */\n  0x20\n    /* \"#utility.yul\":3271:3280   */\n  dup3\n    /* \"#utility.yul\":3267:3285   */\n  add\n    /* \"#utility.yul\":3259:3285   */\n  swap1\n  pop\n    /* \"#utility.yul\":3331:3340   */\n  dup2\n    /* \"#utility.yul\":3325:3329   */\n  dup2\n    /* \"#utility.yul\":3321:3341   */\n  sub\n    /* \"#utility.yul\":3317:3318   */\n  0x00\n    /* \"#utility.yul\":3306:3315   */\n  dup4\n    /* \"#utility.yul\":3302:3319   */\n  add\n    /* \"#utility.yul\":3295:3342   */\n  mstore\n    /* \"#utility.yul\":3359:3490   */\n  tag_63\n    /* \"#utility.yul\":3485:3489   */\n  dup2\n    /* \"#utility.yul\":3359:3490   */\n  tag_25\n  jump\t// in\ntag_63:\n    /* \"#utility.yul\":3351:3490   */\n  swap1\n  pop\n    /* \"#utility.yul\":3078:3497   */\n  swap2\n  swap1\n  pop\n  jump\t// out\n    /* \"contracts/TokenVesting.sol\":121:2141  contract TokenVesting {... */\ntag_9:\n  mload(0x80)\n  mload(0xa0)\n  mload(0xc0)\n  mload(0xe0)\n  codecopy(0x00, dataOffset(sub_0), dataSize(sub_0))\n  0x00\n  assignImmutable(\"0x5ad0f966e4dd8863f27c0e6ee7d684c0c8f4319efed210fe15662a0d29bcd615\")\n  0x00\n  assignImmutable(\"0x845e9c18ca148a712f01bf14c91c3e2fe352eabe86c44817e3f33b63f585a343\")\n  0x00\n  assignImmutable(\"0x17157e479612de6088d957c64aca858964825e74089b3c7dacc26409e6d53000\")\n  0x00\n  assignImmutable(\"0x043ab7193d962ca510e48770a5a13714f4684febe0e5affcfd1eb73cfed1f218\")\n  return(0x00, dataSize(sub_0))\nstop\n\nsub_0: assembly {\n        /* \"contracts/TokenVesting.sol\":121:2141  contract TokenVesting {... */\n      mstore(0x40, 0x80)\n      callvalue\n      dup1\n      iszero\n      tag_1\n      jumpi\n      revert(0x00, 0x00)\n    tag_1:\n      pop\n      jumpi(tag_2, lt(calldatasize, 0x04))\n      shr(0xe0, calldataload(0x00))\n      dup1\n      0x0d668087\n      eq\n      tag_3\n      jumpi\n      dup1\n      0x38af3eed\n      eq\n      tag_4\n      jumpi\n      dup1\n      0x45d30a17\n      eq\n      tag_5\n      jumpi\n      dup1\n      0x78e97925\n      eq\n      tag_6\n      jumpi\n      dup1\n      0x86d1a69f\n      eq\n      tag_7\n      jumpi\n      dup1\n      0xfc0c546a\n      eq\n      tag_8\n      jumpi\n    tag_2:\n      revert(0x00, 0x00)\n        /* \"contracts/TokenVesting.sol\":321:354  uint256 public immutable lockTime */\n    tag_3:\n      tag_9\n      tag_10\n      jump\t// in\n    tag_9:\n      mload(0x40)\n      tag_11\n      swap2\n      swap1\n      tag_12\n      jump\t// in\n    tag_11:\n      mload(0x40)\n      dup1\n      swap2\n      sub\n      swap1\n      return\n        /* \"contracts/TokenVesting.sol\":206:242  address public immutable beneficiary */\n    tag_4:\n      tag_13\n      tag_14\n      jump\t// in\n    tag_13:\n      mload(0x40)\n      tag_15\n      swap2\n      swap1\n      tag_16\n      jump\t// in\n    tag_15:\n      mload(0x40)\n      dup1\n      swap2\n      sub\n      swap1\n      return\n        /* \"contracts/TokenVesting.sol\":391:420  uint256 public releasedAmount */\n    tag_5:\n      tag_17\n      tag_18\n      jump\t// in\n    tag_17:\n      mload(0x40)\n      tag_19\n      swap2\n      swap1\n      tag_12\n      jump\t// in\n    tag_19:\n      mload(0x40)\n      dup1\n      swap2\n      sub\n      swap1\n      return\n        /* \"contracts/TokenVesting.sol\":266:300  uint256 public immutable startTime */\n    tag_6:\n      tag_20\n      tag_21\n      jump\t// in\n    tag_20:\n      mload(0x40)\n      tag_22\n      swap2\n      swap1\n      tag_12\n      jump\t// in\n    tag_22:\n      mload(0x40)\n      dup1\n      swap2\n      sub\n      swap1\n      return\n        /* \"contracts/TokenVesting.sol\":1082:1487  function release() external {... */\n    tag_7:\n      tag_23\n      tag_24\n      jump\t// in\n    tag_23:\n      stop\n        /* \"contracts/TokenVesting.sol\":150:179  IERC20 public immutable token */\n    tag_8:\n      tag_25\n      tag_26\n      jump\t// in\n    tag_25:\n      mload(0x40)\n      tag_27\n      swap2\n      swap1\n      tag_28\n      jump\t// in\n    tag_27:\n      mload(0x40)\n      dup1\n      swap2\n      sub\n      swap1\n      return\n        /* \"contracts/TokenVesting.sol\":321:354  uint256 public immutable lockTime */\n    tag_10:\n      immutable(\"0x5ad0f966e4dd8863f27c0e6ee7d684c0c8f4319efed210fe15662a0d29bcd615\")\n      dup2\n      jump\t// out\n        /* \"contracts/TokenVesting.sol\":206:242  address public immutable beneficiary */\n    tag_14:\n      immutable(\"0x17157e479612de6088d957c64aca858964825e74089b3c7dacc26409e6d53000\")\n      dup2\n      jump\t// out\n        /* \"contracts/TokenVesting.sol\":391:420  uint256 public releasedAmount */\n    tag_18:\n      sload(0x00)\n      dup2\n      jump\t// out\n        /* \"contracts/TokenVesting.sol\":266:300  uint256 public immutable startTime */\n    tag_21:\n      immutable(\"0x845e9c18ca148a712f01bf14c91c3e2fe352eabe86c44817e3f33b63f585a343\")\n      dup2\n      jump\t// out\n        /* \"contracts/TokenVesting.sol\":1082:1487  function release() external {... */\n    tag_24:\n        /* \"contracts/TokenVesting.sol\":1159:1173  uint256 amount */\n      0x00\n        /* \"contracts/TokenVesting.sol\":1176:1190  vestingCount() */\n      tag_30\n        /* \"contracts/TokenVesting.sol\":1176:1188  vestingCount */\n      tag_31\n        /* \"contracts/TokenVesting.sol\":1176:1190  vestingCount() */\n      jump\t// in\n    tag_30:\n        /* \"contracts/TokenVesting.sol\":1159:1190  uint256 amount = vestingCount() */\n      swap1\n      pop\n        /* \"contracts/TokenVesting.sol\":1257:1258  0 */\n      0x00\n        /* \"contracts/TokenVesting.sol\":1248:1254  amount */\n      dup2\n        /* \"contracts/TokenVesting.sol\":1248:1258  amount > 0 */\n      gt\n        /* \"contracts/TokenVesting.sol\":1240:1283  require(amount > 0, \"no tokens to release\") */\n      tag_32\n      jumpi\n      mload(0x40)\n      0x08c379a000000000000000000000000000000000000000000000000000000000\n      dup2\n      mstore\n      0x04\n      add\n      tag_33\n      swap1\n      tag_34\n      jump\t// in\n    tag_33:\n      mload(0x40)\n      dup1\n      swap2\n      sub\n      swap1\n      revert\n    tag_32:\n        /* \"contracts/TokenVesting.sol\":1340:1345  token */\n      immutable(\"0x043ab7193d962ca510e48770a5a13714f4684febe0e5affcfd1eb73cfed1f218\")\n        /* \"contracts/TokenVesting.sol\":1340:1354  token.transfer */\n      0xffffffffffffffffffffffffffffffffffffffff\n      and\n      0xa9059cbb\n        /* \"contracts/TokenVesting.sol\":1355:1366  beneficiary */\n      immutable(\"0x17157e479612de6088d957c64aca858964825e74089b3c7dacc26409e6d53000\")\n        /* \"contracts/TokenVesting.sol\":1368:1374  amount */\n      dup4\n        /* \"contracts/TokenVesting.sol\":1340:1375  token.transfer(beneficiary, amount) */\n      mload(0x40)\n      dup4\n      0xffffffff\n      and\n      0xe0\n      shl\n      dup2\n      mstore\n      0x04\n      add\n      tag_35\n      swap3\n      swap2\n      swap1\n      tag_36\n      jump\t// in\n    tag_35:\n      0x20\n      mload(0x40)\n      dup1\n      dup4\n      sub\n      dup2\n      0x00\n      dup8\n      gas\n      call\n      iszero\n      dup1\n      iszero\n      tag_38\n      jumpi\n      returndatacopy(0x00, 0x00, returndatasize)\n      revert(0x00, returndatasize)\n    tag_38:\n      pop\n      pop\n      pop\n      pop\n      mload(0x40)\n      returndatasize\n      not(0x1f)\n      0x1f\n      dup3\n      add\n      and\n      dup3\n      add\n      dup1\n      0x40\n      mstore\n      pop\n      dup2\n      add\n      swap1\n      tag_39\n      swap2\n      swap1\n      tag_40\n      jump\t// in\n    tag_39:\n      pop\n        /* \"contracts/TokenVesting.sol\":1449:1454  token */\n      immutable(\"0x043ab7193d962ca510e48770a5a13714f4684febe0e5affcfd1eb73cfed1f218\")\n        /* \"contracts/TokenVesting.sol\":1420:1481  Released(msg.sender, address(token), block.timestamp, amount) */\n      0xffffffffffffffffffffffffffffffffffffffff\n      and\n        /* \"contracts/TokenVesting.sol\":1429:1439  msg.sender */\n      caller\n        /* \"contracts/TokenVesting.sol\":1420:1481  Released(msg.sender, address(token), block.timestamp, amount) */\n      0xffffffffffffffffffffffffffffffffffffffff\n      and\n      0x29e9bc035f01bfa0da19263257dbbaeb34bf6c9c780d975b99cb802aecfcf1a2\n        /* \"contracts/TokenVesting.sol\":1457:1472  block.timestamp */\n      timestamp\n        /* \"contracts/TokenVesting.sol\":1474:1480  amount */\n      dup5\n        /* \"contracts/TokenVesting.sol\":1420:1481  Released(msg.sender, address(token), block.timestamp, amount) */\n      mload(0x40)\n      tag_41\n      swap3\n      swap2\n      swap1\n      tag_42\n      jump\t// in\n    tag_41:\n      mload(0x40)\n      dup1\n      swap2\n      sub\n      swap1\n      log3\n        /* \"contracts/TokenVesting.sol\":1110:1487  {... */\n      pop\n        /* \"contracts/TokenVesting.sol\":1082:1487  function release() external {... */\n      jump\t// out\n        /* \"contracts/TokenVesting.sol\":150:179  IERC20 public immutable token */\n    tag_26:\n      immutable(\"0x043ab7193d962ca510e48770a5a13714f4684febe0e5affcfd1eb73cfed1f218\")\n      dup2\n      jump\t// out\n        /* \"contracts/TokenVesting.sol\":1540:2138  function vestingCount() internal view returns(uint256) {... */\n    tag_31:\n        /* \"contracts/TokenVesting.sol\":1586:1593  uint256 */\n      0x00\n        /* \"contracts/TokenVesting.sol\":1671:1690  uint256 totalAmount */\n      0x00\n        /* \"contracts/TokenVesting.sol\":1734:1748  releasedAmount */\n      sload(0x00)\n        /* \"contracts/TokenVesting.sol\":1700:1705  token */\n      immutable(\"0x043ab7193d962ca510e48770a5a13714f4684febe0e5affcfd1eb73cfed1f218\")\n        /* \"contracts/TokenVesting.sol\":1693:1716  IERC20(token).balanceOf */\n      0xffffffffffffffffffffffffffffffffffffffff\n      and\n      0x70a08231\n        /* \"contracts/TokenVesting.sol\":1725:1729  this */\n      address\n        /* \"contracts/TokenVesting.sol\":1693:1731  IERC20(token).balanceOf(address(this)) */\n      mload(0x40)\n      dup3\n      0xffffffff\n      and\n      0xe0\n      shl\n      dup2\n      mstore\n      0x04\n      add\n      tag_44\n      swap2\n      swap1\n      tag_16\n      jump\t// in\n    tag_44:\n      0x20\n      mload(0x40)\n      dup1\n      dup4\n      sub\n      dup2\n      dup7\n      gas\n      staticcall\n      iszero\n      dup1\n      iszero\n      tag_46\n      jumpi\n      returndatacopy(0x00, 0x00, returndatasize)\n      revert(0x00, returndatasize)\n    tag_46:\n      pop\n      pop\n      pop\n      pop\n      mload(0x40)\n      returndatasize\n      not(0x1f)\n      0x1f\n      dup3\n      add\n      and\n      dup3\n      add\n      dup1\n      0x40\n      mstore\n      pop\n      dup2\n      add\n      swap1\n      tag_47\n      swap2\n      swap1\n      tag_48\n      jump\t// in\n    tag_47:\n        /* \"contracts/TokenVesting.sol\":1693:1748  IERC20(token).balanceOf(address(this)) + releasedAmount */\n      tag_49\n      swap2\n      swap1\n      tag_50\n      jump\t// in\n    tag_49:\n        /* \"contracts/TokenVesting.sol\":1671:1748  uint256 totalAmount = IERC20(token).balanceOf(address(this)) + releasedAmount */\n      swap1\n      pop\n        /* \"contracts/TokenVesting.sol\":1782:1801  uint256 currentTime */\n      0x00\n        /* \"contracts/TokenVesting.sol\":1804:1819  block.timestamp */\n      timestamp\n        /* \"contracts/TokenVesting.sol\":1782:1819  uint256 currentTime = block.timestamp */\n      swap1\n      pop\n        /* \"contracts/TokenVesting.sol\":1940:1948  lockTime */\n      immutable(\"0x5ad0f966e4dd8863f27c0e6ee7d684c0c8f4319efed210fe15662a0d29bcd615\")\n        /* \"contracts/TokenVesting.sol\":1927:1936  startTime */\n      immutable(\"0x845e9c18ca148a712f01bf14c91c3e2fe352eabe86c44817e3f33b63f585a343\")\n        /* \"contracts/TokenVesting.sol\":1913:1924  currentTime */\n      dup3\n        /* \"contracts/TokenVesting.sol\":1913:1936  currentTime - startTime */\n      tag_51\n      swap2\n      swap1\n      tag_52\n      jump\t// in\n    tag_51:\n        /* \"contracts/TokenVesting.sol\":1913:1948  currentTime - startTime >= lockTime */\n      lt\n        /* \"contracts/TokenVesting.sol\":1910:1988  if(currentTime - startTime >= lockTime ) {... */\n      tag_53\n      jumpi\n        /* \"contracts/TokenVesting.sol\":1969:1980  totalAmount */\n      dup2\n        /* \"contracts/TokenVesting.sol\":1962:1980  return totalAmount */\n      swap3\n      pop\n      pop\n      pop\n      jump(tag_43)\n        /* \"contracts/TokenVesting.sol\":1910:1988  if(currentTime - startTime >= lockTime ) {... */\n    tag_53:\n        /* \"contracts/TokenVesting.sol\":2124:2132  lockTime */\n      immutable(\"0x5ad0f966e4dd8863f27c0e6ee7d684c0c8f4319efed210fe15662a0d29bcd615\")\n        /* \"contracts/TokenVesting.sol\":2111:2120  startTime */\n      immutable(\"0x845e9c18ca148a712f01bf14c91c3e2fe352eabe86c44817e3f33b63f585a343\")\n        /* \"contracts/TokenVesting.sol\":2097:2108  currentTime */\n      dup3\n        /* \"contracts/TokenVesting.sol\":2097:2120  currentTime - startTime */\n      tag_54\n      swap2\n      swap1\n      tag_52\n      jump\t// in\n    tag_54:\n        /* \"contracts/TokenVesting.sol\":2082:2093  totalAmount */\n      dup4\n        /* \"contracts/TokenVesting.sol\":2082:2121  totalAmount * (currentTime - startTime) */\n      tag_55\n      swap2\n      swap1\n      tag_56\n      jump\t// in\n    tag_55:\n        /* \"contracts/TokenVesting.sol\":2082:2132  totalAmount * (currentTime - startTime) / lockTime */\n      tag_57\n      swap2\n      swap1\n      tag_58\n      jump\t// in\n    tag_57:\n        /* \"contracts/TokenVesting.sol\":2075:2132  return totalAmount * (currentTime - startTime) / lockTime */\n      swap3\n      pop\n      pop\n      pop\n        /* \"contracts/TokenVesting.sol\":1540:2138  function vestingCount() internal view returns(uint256) {... */\n    tag_43:\n      swap1\n      jump\t// out\n        /* \"#utility.yul\":7:84   */\n    tag_59:\n        /* \"#utility.yul\":44:51   */\n      0x00\n        /* \"#utility.yul\":73:78   */\n      dup2\n        /* \"#utility.yul\":62:78   */\n      swap1\n      pop\n        /* \"#utility.yul\":7:84   */\n      swap2\n      swap1\n      pop\n      jump\t// out\n        /* \"#utility.yul\":90:208   */\n    tag_60:\n        /* \"#utility.yul\":177:201   */\n      tag_85\n        /* \"#utility.yul\":195:200   */\n      dup2\n        /* \"#utility.yul\":177:201   */\n      tag_59\n      jump\t// in\n    tag_85:\n        /* \"#utility.yul\":172:175   */\n      dup3\n        /* \"#utility.yul\":165:202   */\n      mstore\n        /* \"#utility.yul\":90:208   */\n      pop\n      pop\n      jump\t// out\n        /* \"#utility.yul\":214:436   */\n    tag_12:\n        /* \"#utility.yul\":307:311   */\n      0x00\n        /* \"#utility.yul\":345:347   */\n      0x20\n        /* \"#utility.yul\":334:343   */\n      dup3\n        /* \"#utility.yul\":330:348   */\n      add\n        /* \"#utility.yul\":322:348   */\n      swap1\n      pop\n        /* \"#utility.yul\":358:429   */\n      tag_87\n        /* \"#utility.yul\":426:427   */\n      0x00\n        /* \"#utility.yul\":415:424   */\n      dup4\n        /* \"#utility.yul\":411:428   */\n      add\n        /* \"#utility.yul\":402:408   */\n      dup5\n        /* \"#utility.yul\":358:429   */\n      tag_60\n      jump\t// in\n    tag_87:\n        /* \"#utility.yul\":214:436   */\n      swap3\n      swap2\n      pop\n      pop\n      jump\t// out\n        /* \"#utility.yul\":442:568   */\n    tag_61:\n        /* \"#utility.yul\":479:486   */\n      0x00\n        /* \"#utility.yul\":519:561   */\n      0xffffffffffffffffffffffffffffffffffffffff\n        /* \"#utility.yul\":512:517   */\n      dup3\n        /* \"#utility.yul\":508:562   */\n      and\n        /* \"#utility.yul\":497:562   */\n      swap1\n      pop\n        /* \"#utility.yul\":442:568   */\n      swap2\n      swap1\n      pop\n      jump\t// out\n        /* \"#utility.yul\":574:670   */\n    tag_62:\n        /* \"#utility.yul\":611:618   */\n      0x00\n        /* \"#utility.yul\":640:664   */\n      tag_90\n        /* \"#utility.yul\":658:663   */\n      dup3\n        /* \"#utility.yul\":640:664   */\n      tag_61\n      jump\t// in\n    tag_90:\n        /* \"#utility.yul\":629:664   */\n      swap1\n      pop\n        /* \"#utility.yul\":574:670   */\n      swap2\n      swap1\n      pop\n      jump\t// out\n        /* \"#utility.yul\":676:794   */\n    tag_63:\n        /* \"#utility.yul\":763:787   */\n      tag_92\n        /* \"#utility.yul\":781:786   */\n      dup2\n        /* \"#utility.yul\":763:787   */\n      tag_62\n      jump\t// in\n    tag_92:\n        /* \"#utility.yul\":758:761   */\n      dup3\n        /* \"#utility.yul\":751:788   */\n      mstore\n        /* \"#utility.yul\":676:794   */\n      pop\n      pop\n      jump\t// out\n        /* \"#utility.yul\":800:1022   */\n    tag_16:\n        /* \"#utility.yul\":893:897   */\n      0x00\n        /* \"#utility.yul\":931:933   */\n      0x20\n        /* \"#utility.yul\":920:929   */\n      dup3\n        /* \"#utility.yul\":916:934   */\n      add\n        /* \"#utility.yul\":908:934   */\n      swap1\n      pop\n        /* \"#utility.yul\":944:1015   */\n      tag_94\n        /* \"#utility.yul\":1012:1013   */\n      0x00\n        /* \"#utility.yul\":1001:1010   */\n      dup4\n        /* \"#utility.yul\":997:1014   */\n      add\n        /* \"#utility.yul\":988:994   */\n      dup5\n        /* \"#utility.yul\":944:1015   */\n      tag_63\n      jump\t// in\n    tag_94:\n        /* \"#utility.yul\":800:1022   */\n      swap3\n      swap2\n      pop\n      pop\n      jump\t// out\n        /* \"#utility.yul\":1028:1088   */\n    tag_64:\n        /* \"#utility.yul\":1056:1059   */\n      0x00\n        /* \"#utility.yul\":1077:1082   */\n      dup2\n        /* \"#utility.yul\":1070:1082   */\n      swap1\n      pop\n        /* \"#utility.yul\":1028:1088   */\n      swap2\n      swap1\n      pop\n      jump\t// out\n        /* \"#utility.yul\":1094:1236   */\n    tag_65:\n        /* \"#utility.yul\":1144:1153   */\n      0x00\n        /* \"#utility.yul\":1177:1230   */\n      tag_97\n        /* \"#utility.yul\":1195:1229   */\n      tag_98\n        /* \"#utility.yul\":1204:1228   */\n      tag_99\n        /* \"#utility.yul\":1222:1227   */\n      dup5\n        /* \"#utility.yul\":1204:1228   */\n      tag_61\n      jump\t// in\n    tag_99:\n        /* \"#utility.yul\":1195:1229   */\n      tag_64\n      jump\t// in\n    tag_98:\n        /* \"#utility.yul\":1177:1230   */\n      tag_61\n      jump\t// in\n    tag_97:\n        /* \"#utility.yul\":1164:1230   */\n      swap1\n      pop\n        /* \"#utility.yul\":1094:1236   */\n      swap2\n      swap1\n      pop\n      jump\t// out\n        /* \"#utility.yul\":1242:1368   */\n    tag_66:\n        /* \"#utility.yul\":1292:1301   */\n      0x00\n        /* \"#utility.yul\":1325:1362   */\n      tag_101\n        /* \"#utility.yul\":1356:1361   */\n      dup3\n        /* \"#utility.yul\":1325:1362   */\n      tag_65\n      jump\t// in\n    tag_101:\n        /* \"#utility.yul\":1312:1362   */\n      swap1\n      pop\n        /* \"#utility.yul\":1242:1368   */\n      swap2\n      swap1\n      pop\n      jump\t// out\n        /* \"#utility.yul\":1374:1513   */\n    tag_67:\n        /* \"#utility.yul\":1437:1446   */\n      0x00\n        /* \"#utility.yul\":1470:1507   */\n      tag_103\n        /* \"#utility.yul\":1501:1506   */\n      dup3\n        /* \"#utility.yul\":1470:1507   */\n      tag_66\n      jump\t// in\n    tag_103:\n        /* \"#utility.yul\":1457:1507   */\n      swap1\n      pop\n        /* \"#utility.yul\":1374:1513   */\n      swap2\n      swap1\n      pop\n      jump\t// out\n        /* \"#utility.yul\":1519:1676   */\n    tag_68:\n        /* \"#utility.yul\":1619:1669   */\n      tag_105\n        /* \"#utility.yul\":1663:1668   */\n      dup2\n        /* \"#utility.yul\":1619:1669   */\n      tag_67\n      jump\t// in\n    tag_105:\n        /* \"#utility.yul\":1614:1617   */\n      dup3\n        /* \"#utility.yul\":1607:1670   */\n      mstore\n        /* \"#utility.yul\":1519:1676   */\n      pop\n      pop\n      jump\t// out\n        /* \"#utility.yul\":1682:1930   */\n    tag_28:\n        /* \"#utility.yul\":1788:1792   */\n      0x00\n        /* \"#utility.yul\":1826:1828   */\n      0x20\n        /* \"#utility.yul\":1815:1824   */\n      dup3\n        /* \"#utility.yul\":1811:1829   */\n      add\n        /* \"#utility.yul\":1803:1829   */\n      swap1\n      pop\n        /* \"#utility.yul\":1839:1923   */\n      tag_107\n        /* \"#utility.yul\":1920:1921   */\n      0x00\n        /* \"#utility.yul\":1909:1918   */\n      dup4\n        /* \"#utility.yul\":1905:1922   */\n      add\n        /* \"#utility.yul\":1896:1902   */\n      dup5\n        /* \"#utility.yul\":1839:1923   */\n      tag_68\n      jump\t// in\n    tag_107:\n        /* \"#utility.yul\":1682:1930   */\n      swap3\n      swap2\n      pop\n      pop\n      jump\t// out\n        /* \"#utility.yul\":1936:2105   */\n    tag_69:\n        /* \"#utility.yul\":2020:2031   */\n      0x00\n        /* \"#utility.yul\":2054:2060   */\n      dup3\n        /* \"#utility.yul\":2049:2052   */\n      dup3\n        /* \"#utility.yul\":2042:2061   */\n      mstore\n        /* \"#utility.yul\":2094:2098   */\n      0x20\n        /* \"#utility.yul\":2089:2092   */\n      dup3\n        /* \"#utility.yul\":2085:2099   */\n      add\n        /* \"#utility.yul\":2070:2099   */\n      swap1\n      pop\n        /* \"#utility.yul\":1936:2105   */\n      swap3\n      swap2\n      pop\n      pop\n      jump\t// out\n        /* \"#utility.yul\":2111:2281   */\n    tag_70:\n        /* \"#utility.yul\":2251:2273   */\n      0x6e6f20746f6b656e7320746f2072656c65617365000000000000000000000000\n        /* \"#utility.yul\":2247:2248   */\n      0x00\n        /* \"#utility.yul\":2239:2245   */\n      dup3\n        /* \"#utility.yul\":2235:2249   */\n      add\n        /* \"#utility.yul\":2228:2274   */\n      mstore\n        /* \"#utility.yul\":2111:2281   */\n      pop\n      jump\t// out\n        /* \"#utility.yul\":2287:2653   */\n    tag_71:\n        /* \"#utility.yul\":2429:2432   */\n      0x00\n        /* \"#utility.yul\":2450:2517   */\n      tag_111\n        /* \"#utility.yul\":2514:2516   */\n      0x14\n        /* \"#utility.yul\":2509:2512   */\n      dup4\n        /* \"#utility.yul\":2450:2517   */\n      tag_69\n      jump\t// in\n    tag_111:\n        /* \"#utility.yul\":2443:2517   */\n      swap2\n      pop\n        /* \"#utility.yul\":2526:2619   */\n      tag_112\n        /* \"#utility.yul\":2615:2618   */\n      dup3\n        /* \"#utility.yul\":2526:2619   */\n      tag_70\n      jump\t// in\n    tag_112:\n        /* \"#utility.yul\":2644:2646   */\n      0x20\n        /* \"#utility.yul\":2639:2642   */\n      dup3\n        /* \"#utility.yul\":2635:2647   */\n      add\n        /* \"#utility.yul\":2628:2647   */\n      swap1\n      pop\n        /* \"#utility.yul\":2287:2653   */\n      swap2\n      swap1\n      pop\n      jump\t// out\n        /* \"#utility.yul\":2659:3078   */\n    tag_34:\n        /* \"#utility.yul\":2825:2829   */\n      0x00\n        /* \"#utility.yul\":2863:2865   */\n      0x20\n        /* \"#utility.yul\":2852:2861   */\n      dup3\n        /* \"#utility.yul\":2848:2866   */\n      add\n        /* \"#utility.yul\":2840:2866   */\n      swap1\n      pop\n        /* \"#utility.yul\":2912:2921   */\n      dup2\n        /* \"#utility.yul\":2906:2910   */\n      dup2\n        /* \"#utility.yul\":2902:2922   */\n      sub\n        /* \"#utility.yul\":2898:2899   */\n      0x00\n        /* \"#utility.yul\":2887:2896   */\n      dup4\n        /* \"#utility.yul\":2883:2900   */\n      add\n        /* \"#utility.yul\":2876:2923   */\n      mstore\n        /* \"#utility.yul\":2940:3071   */\n      tag_114\n        /* \"#utility.yul\":3066:3070   */\n      dup2\n        /* \"#utility.yul\":2940:3071   */\n      tag_71\n      jump\t// in\n    tag_114:\n        /* \"#utility.yul\":2932:3071   */\n      swap1\n      pop\n        /* \"#utility.yul\":2659:3078   */\n      swap2\n      swap1\n      pop\n      jump\t// out\n        /* \"#utility.yul\":3084:3416   */\n    tag_36:\n        /* \"#utility.yul\":3205:3209   */\n      0x00\n        /* \"#utility.yul\":3243:3245   */\n      0x40\n        /* \"#utility.yul\":3232:3241   */\n      dup3\n        /* \"#utility.yul\":3228:3246   */\n      add\n        /* \"#utility.yul\":3220:3246   */\n      swap1\n      pop\n        /* \"#utility.yul\":3256:3327   */\n      tag_116\n        /* \"#utility.yul\":3324:3325   */\n      0x00\n        /* \"#utility.yul\":3313:3322   */\n      dup4\n        /* \"#utility.yul\":3309:3326   */\n      add\n        /* \"#utility.yul\":3300:3306   */\n      dup6\n        /* \"#utility.yul\":3256:3327   */\n      tag_63\n      jump\t// in\n    tag_116:\n        /* \"#utility.yul\":3337:3409   */\n      tag_117\n        /* \"#utility.yul\":3405:3407   */\n      0x20\n        /* \"#utility.yul\":3394:3403   */\n      dup4\n        /* \"#utility.yul\":3390:3408   */\n      add\n        /* \"#utility.yul\":3381:3387   */\n      dup5\n        /* \"#utility.yul\":3337:3409   */\n      tag_60\n      jump\t// in\n    tag_117:\n        /* \"#utility.yul\":3084:3416   */\n      swap4\n      swap3\n      pop\n      pop\n      pop\n      jump\t// out\n        /* \"#utility.yul\":3503:3620   */\n    tag_73:\n        /* \"#utility.yul\":3612:3613   */\n      0x00\n        /* \"#utility.yul\":3609:3610   */\n      0x00\n        /* \"#utility.yul\":3602:3614   */\n      revert\n        /* \"#utility.yul\":3749:3839   */\n    tag_75:\n        /* \"#utility.yul\":3783:3790   */\n      0x00\n        /* \"#utility.yul\":3826:3831   */\n      dup2\n        /* \"#utility.yul\":3819:3832   */\n      iszero\n        /* \"#utility.yul\":3812:3833   */\n      iszero\n        /* \"#utility.yul\":3801:3833   */\n      swap1\n      pop\n        /* \"#utility.yul\":3749:3839   */\n      swap2\n      swap1\n      pop\n      jump\t// out\n        /* \"#utility.yul\":3845:3961   */\n    tag_76:\n        /* \"#utility.yul\":3915:3936   */\n      tag_123\n        /* \"#utility.yul\":3930:3935   */\n      dup2\n        /* \"#utility.yul\":3915:3936   */\n      tag_75\n      jump\t// in\n    tag_123:\n        /* \"#utility.yul\":3908:3913   */\n      dup2\n        /* \"#utility.yul\":3905:3937   */\n      eq\n        /* \"#utility.yul\":3895:3955   */\n      tag_124\n      jumpi\n        /* \"#utility.yul\":3951:3952   */\n      0x00\n        /* \"#utility.yul\":3948:3949   */\n      0x00\n        /* \"#utility.yul\":3941:3953   */\n      revert\n        /* \"#utility.yul\":3895:3955   */\n    tag_124:\n        /* \"#utility.yul\":3845:3961   */\n      pop\n      jump\t// out\n        /* \"#utility.yul\":3967:4104   */\n    tag_77:\n        /* \"#utility.yul\":4021:4026   */\n      0x00\n        /* \"#utility.yul\":4052:4058   */\n      dup2\n        /* \"#utility.yul\":4046:4059   */\n      mload\n        /* \"#utility.yul\":4037:4059   */\n      swap1\n      pop\n        /* \"#utility.yul\":4068:4098   */\n      tag_126\n        /* \"#utility.yul\":4092:4097   */\n      dup2\n        /* \"#utility.yul\":4068:4098   */\n      tag_76\n      jump\t// in\n    tag_126:\n        /* \"#utility.yul\":3967:4104   */\n      swap3\n      swap2\n      pop\n      pop\n      jump\t// out\n        /* \"#utility.yul\":4110:4455   */\n    tag_40:\n        /* \"#utility.yul\":4177:4183   */\n      0x00\n        /* \"#utility.yul\":4226:4228   */\n      0x20\n        /* \"#utility.yul\":4214:4223   */\n      dup3\n        /* \"#utility.yul\":4205:4212   */\n      dup5\n        /* \"#utility.yul\":4201:4224   */\n      sub\n        /* \"#utility.yul\":4197:4229   */\n      slt\n        /* \"#utility.yul\":4194:4313   */\n      iszero\n      tag_128\n      jumpi\n        /* \"#utility.yul\":4232:4311   */\n      tag_129\n      tag_73\n      jump\t// in\n    tag_129:\n        /* \"#utility.yul\":4194:4313   */\n    tag_128:\n        /* \"#utility.yul\":4352:4353   */\n      0x00\n        /* \"#utility.yul\":4377:4438   */\n      tag_130\n        /* \"#utility.yul\":4430:4437   */\n      dup5\n        /* \"#utility.yul\":4421:4427   */\n      dup3\n        /* \"#utility.yul\":4410:4419   */\n      dup6\n        /* \"#utility.yul\":4406:4428   */\n      add\n        /* \"#utility.yul\":4377:4438   */\n      tag_77\n      jump\t// in\n    tag_130:\n        /* \"#utility.yul\":4367:4438   */\n      swap2\n      pop\n        /* \"#utility.yul\":4323:4448   */\n      pop\n        /* \"#utility.yul\":4110:4455   */\n      swap3\n      swap2\n      pop\n      pop\n      jump\t// out\n        /* \"#utility.yul\":4461:4793   */\n    tag_42:\n        /* \"#utility.yul\":4582:4586   */\n      0x00\n        /* \"#utility.yul\":4620:4622   */\n      0x40\n        /* \"#utility.yul\":4609:4618   */\n      dup3\n        /* \"#utility.yul\":4605:4623   */\n      add\n        /* \"#utility.yul\":4597:4623   */\n      swap1\n      pop\n        /* \"#utility.yul\":4633:4704   */\n      tag_132\n        /* \"#utility.yul\":4701:4702   */\n      0x00\n        /* \"#utility.yul\":4690:4699   */\n      dup4\n        /* \"#utility.yul\":4686:4703   */\n      add\n        /* \"#utility.yul\":4677:4683   */\n      dup6\n        /* \"#utility.yul\":4633:4704   */\n      tag_60\n      jump\t// in\n    tag_132:\n        /* \"#utility.yul\":4714:4786   */\n      tag_133\n        /* \"#utility.yul\":4782:4784   */\n      0x20\n        /* \"#utility.yul\":4771:4780   */\n      dup4\n        /* \"#utility.yul\":4767:4785   */\n      add\n        /* \"#utility.yul\":4758:4764   */\n      dup5\n        /* \"#utility.yul\":4714:4786   */\n      tag_60\n      jump\t// in\n    tag_133:\n        /* \"#utility.yul\":4461:4793   */\n      swap4\n      swap3\n      pop\n      pop\n      pop\n      jump\t// out\n        /* \"#utility.yul\":4799:4921   */\n    tag_78:\n        /* \"#utility.yul\":4872:4896   */\n      tag_135\n        /* \"#utility.yul\":4890:4895   */\n      dup2\n        /* \"#utility.yul\":4872:4896   */\n      tag_59\n      jump\t// in\n    tag_135:\n        /* \"#utility.yul\":4865:4870   */\n      dup2\n        /* \"#utility.yul\":4862:4897   */\n      eq\n        /* \"#utility.yul\":4852:4915   */\n      tag_136\n      jumpi\n        /* \"#utility.yul\":4911:4912   */\n      0x00\n        /* \"#utility.yul\":4908:4909   */\n      0x00\n        /* \"#utility.yul\":4901:4913   */\n      revert\n        /* \"#utility.yul\":4852:4915   */\n    tag_136:\n        /* \"#utility.yul\":4799:4921   */\n      pop\n      jump\t// out\n        /* \"#utility.yul\":4927:5070   */\n    tag_79:\n        /* \"#utility.yul\":4984:4989   */\n      0x00\n        /* \"#utility.yul\":5015:5021   */\n      dup2\n        /* \"#utility.yul\":5009:5022   */\n      mload\n        /* \"#utility.yul\":5000:5022   */\n      swap1\n      pop\n        /* \"#utility.yul\":5031:5064   */\n      tag_138\n        /* \"#utility.yul\":5058:5063   */\n      dup2\n        /* \"#utility.yul\":5031:5064   */\n      tag_78\n      jump\t// in\n    tag_138:\n        /* \"#utility.yul\":4927:5070   */\n      swap3\n      swap2\n      pop\n      pop\n      jump\t// out\n        /* \"#utility.yul\":5076:5427   */\n    tag_48:\n        /* \"#utility.yul\":5146:5152   */\n      0x00\n        /* \"#utility.yul\":5195:5197   */\n      0x20\n        /* \"#utility.yul\":5183:5192   */\n      dup3\n        /* \"#utility.yul\":5174:5181   */\n      dup5\n        /* \"#utility.yul\":5170:5193   */\n      sub\n        /* \"#utility.yul\":5166:5198   */\n      slt\n        /* \"#utility.yul\":5163:5282   */\n      iszero\n      tag_140\n      jumpi\n        /* \"#utility.yul\":5201:5280   */\n      tag_141\n      tag_73\n      jump\t// in\n    tag_141:\n        /* \"#utility.yul\":5163:5282   */\n    tag_140:\n        /* \"#utility.yul\":5321:5322   */\n      0x00\n        /* \"#utility.yul\":5346:5410   */\n      tag_142\n        /* \"#utility.yul\":5402:5409   */\n      dup5\n        /* \"#utility.yul\":5393:5399   */\n      dup3\n        /* \"#utility.yul\":5382:5391   */\n      dup6\n        /* \"#utility.yul\":5378:5400   */\n      add\n        /* \"#utility.yul\":5346:5410   */\n      tag_79\n      jump\t// in\n    tag_142:\n        /* \"#utility.yul\":5336:5410   */\n      swap2\n      pop\n        /* \"#utility.yul\":5292:5420   */\n      pop\n        /* \"#utility.yul\":5076:5427   */\n      swap3\n      swap2\n      pop\n      pop\n      jump\t// out\n        /* \"#utility.yul\":5433:5613   */\n    tag_80:\n        /* \"#utility.yul\":5481:5558   */\n      0x4e487b7100000000000000000000000000000000000000000000000000000000\n        /* \"#utility.yul\":5478:5479   */\n      0x00\n        /* \"#utility.yul\":5471:5559   */\n      mstore\n        /* \"#utility.yul\":5578:5582   */\n      0x11\n        /* \"#utility.yul\":5575:5576   */\n      0x04\n        /* \"#utility.yul\":5568:5583   */\n      mstore\n        /* \"#utility.yul\":5602:5606   */\n      0x24\n        /* \"#utility.yul\":5599:5600   */\n      0x00\n        /* \"#utility.yul\":5592:5607   */\n      revert\n        /* \"#utility.yul\":5619:5810   */\n    tag_50:\n        /* \"#utility.yul\":5659:5662   */\n      0x00\n        /* \"#utility.yul\":5678:5698   */\n      tag_145\n        /* \"#utility.yul\":5696:5697   */\n      dup3\n        /* \"#utility.yul\":5678:5698   */\n      tag_59\n      jump\t// in\n    tag_145:\n        /* \"#utility.yul\":5673:5698   */\n      swap2\n      pop\n        /* \"#utility.yul\":5712:5732   */\n      tag_146\n        /* \"#utility.yul\":5730:5731   */\n      dup4\n        /* \"#utility.yul\":5712:5732   */\n      tag_59\n      jump\t// in\n    tag_146:\n        /* \"#utility.yul\":5707:5732   */\n      swap3\n      pop\n        /* \"#utility.yul\":5755:5756   */\n      dup3\n        /* \"#utility.yul\":5752:5753   */\n      dup3\n        /* \"#utility.yul\":5748:5757   */\n      add\n        /* \"#utility.yul\":5741:5757   */\n      swap1\n      pop\n        /* \"#utility.yul\":5776:5779   */\n      dup1\n        /* \"#utility.yul\":5773:5774   */\n      dup3\n        /* \"#utility.yul\":5770:5780   */\n      gt\n        /* \"#utility.yul\":5767:5803   */\n      iszero\n      tag_147\n      jumpi\n        /* \"#utility.yul\":5783:5801   */\n      tag_148\n      tag_80\n      jump\t// in\n    tag_148:\n        /* \"#utility.yul\":5767:5803   */\n    tag_147:\n        /* \"#utility.yul\":5619:5810   */\n      swap3\n      swap2\n      pop\n      pop\n      jump\t// out\n        /* \"#utility.yul\":5816:6010   */\n    tag_52:\n        /* \"#utility.yul\":5856:5860   */\n      0x00\n        /* \"#utility.yul\":5876:5896   */\n      tag_150\n        /* \"#utility.yul\":5894:5895   */\n      dup3\n        /* \"#utility.yul\":5876:5896   */\n      tag_59\n      jump\t// in\n    tag_150:\n        /* \"#utility.yul\":5871:5896   */\n      swap2\n      pop\n        /* \"#utility.yul\":5910:5930   */\n      tag_151\n        /* \"#utility.yul\":5928:5929   */\n      dup4\n        /* \"#utility.yul\":5910:5930   */\n      tag_59\n      jump\t// in\n    tag_151:\n        /* \"#utility.yul\":5905:5930   */\n      swap3\n      pop\n        /* \"#utility.yul\":5954:5955   */\n      dup3\n        /* \"#utility.yul\":5951:5952   */\n      dup3\n        /* \"#utility.yul\":5947:5956   */\n      sub\n        /* \"#utility.yul\":5939:5956   */\n      swap1\n      pop\n        /* \"#utility.yul\":5978:5979   */\n      dup2\n        /* \"#utility.yul\":5972:5976   */\n      dup2\n        /* \"#utility.yul\":5969:5980   */\n      gt\n        /* \"#utility.yul\":5966:6003   */\n      iszero\n      tag_152\n      jumpi\n        /* \"#utility.yul\":5983:6001   */\n      tag_153\n      tag_80\n      jump\t// in\n    tag_153:\n        /* \"#utility.yul\":5966:6003   */\n    tag_152:\n        /* \"#utility.yul\":5816:6010   */\n      swap3\n      swap2\n      pop\n      pop\n      jump\t// out\n        /* \"#utility.yul\":6016:6426   */\n    tag_56:\n        /* \"#utility.yul\":6056:6063   */\n      0x00\n        /* \"#utility.yul\":6079:6099   */\n      tag_155\n        /* \"#utility.yul\":6097:6098   */\n      dup3\n        /* \"#utility.yul\":6079:6099   */\n      tag_59\n      jump\t// in\n    tag_155:\n        /* \"#utility.yul\":6074:6099   */\n      swap2\n      pop\n        /* \"#utility.yul\":6113:6133   */\n      tag_156\n        /* \"#utility.yul\":6131:6132   */\n      dup4\n        /* \"#utility.yul\":6113:6133   */\n      tag_59\n      jump\t// in\n    tag_156:\n        /* \"#utility.yul\":6108:6133   */\n      swap3\n      pop\n        /* \"#utility.yul\":6168:6169   */\n      dup3\n        /* \"#utility.yul\":6165:6166   */\n      dup3\n        /* \"#utility.yul\":6161:6170   */\n      mul\n        /* \"#utility.yul\":6190:6220   */\n      tag_157\n        /* \"#utility.yul\":6208:6219   */\n      dup2\n        /* \"#utility.yul\":6190:6220   */\n      tag_59\n      jump\t// in\n    tag_157:\n        /* \"#utility.yul\":6179:6220   */\n      swap2\n      pop\n        /* \"#utility.yul\":6369:6370   */\n      dup3\n        /* \"#utility.yul\":6360:6367   */\n      dup3\n        /* \"#utility.yul\":6356:6371   */\n      div\n        /* \"#utility.yul\":6353:6354   */\n      dup5\n        /* \"#utility.yul\":6350:6372   */\n      eq\n        /* \"#utility.yul\":6330:6331   */\n      dup4\n        /* \"#utility.yul\":6323:6332   */\n      iszero\n        /* \"#utility.yul\":6303:6386   */\n      or\n        /* \"#utility.yul\":6280:6419   */\n      tag_158\n      jumpi\n        /* \"#utility.yul\":6399:6417   */\n      tag_159\n      tag_80\n      jump\t// in\n    tag_159:\n        /* \"#utility.yul\":6280:6419   */\n    tag_158:\n        /* \"#utility.yul\":6064:6426   */\n      pop\n        /* \"#utility.yul\":6016:6426   */\n      swap3\n      swap2\n      pop\n      pop\n      jump\t// out\n        /* \"#utility.yul\":6432:6612   */\n    tag_81:\n        /* \"#utility.yul\":6480:6557   */\n      0x4e487b7100000000000000000000000000000000000000000000000000000000\n        /* \"#utility.yul\":6477:6478   */\n      0x00\n        /* \"#utility.yul\":6470:6558   */\n      mstore\n        /* \"#utility.yul\":6577:6581   */\n      0x12\n        /* \"#utility.yul\":6574:6575   */\n      0x04\n        /* \"#utility.yul\":6567:6582   */\n      mstore\n        /* \"#utility.yul\":6601:6605   */\n      0x24\n        /* \"#utility.yul\":6598:6599   */\n      0x00\n        /* \"#utility.yul\":6591:6606   */\n      revert\n        /* \"#utility.yul\":6618:6803   */\n    tag_58:\n        /* \"#utility.yul\":6658:6659   */\n      0x00\n        /* \"#utility.yul\":6675:6695   */\n      tag_162\n        /* \"#utility.yul\":6693:6694   */\n      dup3\n        /* \"#utility.yul\":6675:6695   */\n      tag_59\n      jump\t// in\n    tag_162:\n        /* \"#utility.yul\":6670:6695   */\n      swap2\n      pop\n        /* \"#utility.yul\":6709:6729   */\n      tag_163\n        /* \"#utility.yul\":6727:6728   */\n      dup4\n        /* \"#utility.yul\":6709:6729   */\n      tag_59\n      jump\t// in\n    tag_163:\n        /* \"#utility.yul\":6704:6729   */\n      swap3\n      pop\n        /* \"#utility.yul\":6748:6749   */\n      dup3\n        /* \"#utility.yul\":6738:6773   */\n      tag_164\n      jumpi\n        /* \"#utility.yul\":6753:6771   */\n      tag_165\n      tag_81\n      jump\t// in\n    tag_165:\n        /* \"#utility.yul\":6738:6773   */\n    tag_164:\n        /* \"#utility.yul\":6795:6796   */\n      dup3\n        /* \"#utility.yul\":6792:6793   */\n      dup3\n        /* \"#utility.yul\":6788:6797   */\n      div\n        /* \"#utility.yul\":6783:6797   */\n      swap1\n      pop\n        /* \"#utility.yul\":6618:6803   */\n      swap3\n      swap2\n      pop\n      pop\n      jump\t// out\n\n    auxdata: 0xa2646970667358221220f324bff3dca4898c4ad8e1403cba881df1fb1ef0ee1ee857f1556be436ef9b3b64736f6c634300081c0033\n}\n",
				"bytecode": {
					"linkReferences": {},
					"object": "610100604052348015610010575f5ffd5b50604051610b74380380610b74833981810160405281019061003291906101c0565b5f8111610074576040517f08c379a000000000000000000000000000000000000000000000000000000000815260040161006b9061026a565b60405180910390fd5b8273ffffffffffffffffffffffffffffffffffffffff1660808173ffffffffffffffffffffffffffffffffffffffff16815250508173ffffffffffffffffffffffffffffffffffffffff1660a08173ffffffffffffffffffffffffffffffffffffffff16815250508060e081815250504260c08181525050505050610288565b5f5ffd5b5f73ffffffffffffffffffffffffffffffffffffffff82169050919050565b5f610121826100f8565b9050919050565b5f61013282610117565b9050919050565b61014281610128565b811461014c575f5ffd5b50565b5f8151905061015d81610139565b92915050565b61016c81610117565b8114610176575f5ffd5b50565b5f8151905061018781610163565b92915050565b5f819050919050565b61019f8161018d565b81146101a9575f5ffd5b50565b5f815190506101ba81610196565b92915050565b5f5f5f606084860312156101d7576101d66100f4565b5b5f6101e48682870161014f565b93505060206101f586828701610179565b9250506040610206868287016101ac565b9150509250925092565b5f82825260208201905092915050565b7f6c6f636b2074696d652073686f756c642067726561746572207468616e2030005f82015250565b5f610254601f83610210565b915061025f82610220565b602082019050919050565b5f6020820190508181035f83015261028181610248565b9050919050565b60805160a05160c05160e0516108816102f35f395f8181610106015281816103da015261043601525f8181610153015281816103fb015261045701525f818161012a015261020001525f81816101c4015281816102800152818161030a015261033201526108815ff3fe608060405234801561000f575f5ffd5b5060043610610060575f3560e01c80630d6680871461006457806338af3eed1461008257806345d30a17146100a057806378e97925146100be57806386d1a69f146100dc578063fc0c546a146100e6575b5f5ffd5b61006c610104565b60405161007991906104b6565b60405180910390f35b61008a610128565b604051610097919061050e565b60405180910390f35b6100a861014c565b6040516100b591906104b6565b60405180910390f35b6100c6610151565b6040516100d391906104b6565b60405180910390f35b6100e4610175565b005b6100ee610308565b6040516100fb9190610582565b60405180910390f35b7f000000000000000000000000000000000000000000000000000000000000000081565b7f000000000000000000000000000000000000000000000000000000000000000081565b5f5481565b7f000000000000000000000000000000000000000000000000000000000000000081565b5f61017e61032c565b90505f81116101c2576040517f08c379a00000000000000000000000000000000000000000000000000000000081526004016101b9906105f5565b60405180910390fd5b7f000000000000000000000000000000000000000000000000000000000000000073ffffffffffffffffffffffffffffffffffffffff1663a9059cbb7f0000000000000000000000000000000000000000000000000000000000000000836040518363ffffffff1660e01b815260040161023d929190610613565b6020604051808303815f875af1158015610259573d5f5f3e3d5ffd5b505050506040513d601f19601f8201168201806040525081019061027d9190610673565b507f000000000000000000000000000000000000000000000000000000000000000073ffffffffffffffffffffffffffffffffffffffff163373ffffffffffffffffffffffffffffffffffffffff167f29e9bc035f01bfa0da19263257dbbaeb34bf6c9c780d975b99cb802aecfcf1a242846040516102fd92919061069e565b60405180910390a350565b7f000000000000000000000000000000000000000000000000000000000000000081565b5f5f5f547f000000000000000000000000000000000000000000000000000000000000000073ffffffffffffffffffffffffffffffffffffffff166370a08231306040518263ffffffff1660e01b8152600401610389919061050e565b602060405180830381865afa1580156103a4573d5f5f3e3d5ffd5b505050506040513d601f19601f820116820180604052508101906103c891906106ef565b6103d29190610747565b90505f4290507f00000000000000000000000000000000000000000000000000000000000000007f000000000000000000000000000000000000000000000000000000000000000082610425919061077a565b1061043457819250505061049b565b7f00000000000000000000000000000000000000000000000000000000000000007f000000000000000000000000000000000000000000000000000000000000000082610481919061077a565b8361048c91906107ad565b610496919061081b565b925050505b90565b5f819050919050565b6104b08161049e565b82525050565b5f6020820190506104c95f8301846104a7565b92915050565b5f73ffffffffffffffffffffffffffffffffffffffff82169050919050565b5f6104f8826104cf565b9050919050565b610508816104ee565b82525050565b5f6020820190506105215f8301846104ff565b92915050565b5f819050919050565b5f61054a610545610540846104cf565b610527565b6104cf565b9050919050565b5f61055b82610530565b9050919050565b5f61056c82610551565b9050919050565b61057c81610562565b82525050565b5f6020820190506105955f830184610573565b92915050565b5f82825260208201905092915050565b7f6e6f20746f6b656e7320746f2072656c656173650000000000000000000000005f82015250565b5f6105df60148361059b565b91506105ea826105ab565b602082019050919050565b5f6020820190508181035f83015261060c816105d3565b9050919050565b5f6040820190506106265f8301856104ff565b61063360208301846104a7565b9392505050565b5f5ffd5b5f8115159050919050565b6106528161063e565b811461065c575f5ffd5b50565b5f8151905061066d81610649565b92915050565b5f602082840312156106885761068761063a565b5b5f6106958482850161065f565b91505092915050565b5f6040820190506106b15f8301856104a7565b6106be60208301846104a7565b9392505050565b6106ce8161049e565b81146106d8575f5ffd5b50565b5f815190506106e9816106c5565b92915050565b5f602082840312156107045761070361063a565b5b5f610711848285016106db565b91505092915050565b7f4e487b71000000000000000000000000000000000000000000000000000000005f52601160045260245ffd5b5f6107518261049e565b915061075c8361049e565b92508282019050808211156107745761077361071a565b5b92915050565b5f6107848261049e565b915061078f8361049e565b92508282039050818111156107a7576107a661071a565b5b92915050565b5f6107b78261049e565b91506107c28361049e565b92508282026107d08161049e565b915082820484148315176107e7576107e661071a565b5b5092915050565b7f4e487b71000000000000000000000000000000000000000000000000000000005f52601260045260245ffd5b5f6108258261049e565b91506108308361049e565b9250826108405761083f6107ee565b5b82820490509291505056fea2646970667358221220f324bff3dca4898c4ad8e1403cba881df1fb1ef0ee1ee857f1556be436ef9b3b64736f6c634300081c0033",
					"opcodes": "PUSH2 0x100 PUSH1 0x40 MSTORE CALLVALUE DUP1 ISZERO PUSH2 0x10 JUMPI PUSH0 PUSH0 REVERT JUMPDEST POP PUSH1 0x40 MLOAD PUSH2 0xB74 CODESIZE SUB DUP1 PUSH2 0xB74 DUP4 CODECOPY DUP2 DUP2 ADD PUSH1 0x40 MSTORE DUP2 ADD SWAP1 PUSH2 0x32 SWAP2 SWAP1 PUSH2 0x1C0 JUMP JUMPDEST PUSH0 DUP2 GT PUSH2 0x74 JUMPI PUSH1 0x40 MLOAD PUSH32 0x8C379A000000000000000000000000000000000000000000000000000000000 DUP2 MSTORE PUSH1 0x4 ADD PUSH2 0x6B SWAP1 PUSH2 0x26A JUMP JUMPDEST PUSH1 0x40 MLOAD DUP1 SWAP2 SUB SWAP1 REVERT JUMPDEST DUP3 PUSH20 0xFFFFFFFFFFFFFFFFFFFFFFFFFFFFFFFFFFFFFFFF AND PUSH1 0x80 DUP2 PUSH20 0xFFFFFFFFFFFFFFFFFFFFFFFFFFFFFFFFFFFFFFFF AND DUP2 MSTORE POP POP DUP2 PUSH20 0xFFFFFFFFFFFFFFFFFFFFFFFFFFFFFFFFFFFFFFFF AND PUSH1 0xA0 DUP2 PUSH20 0xFFFFFFFFFFFFFFFFFFFFFFFFFFFFFFFFFFFFFFFF AND DUP2 MSTORE POP POP DUP1 PUSH1 0xE0 DUP2 DUP2 MSTORE POP POP TIMESTAMP PUSH1 0xC0 DUP2 DUP2 MSTORE POP POP POP POP POP PUSH2 0x288 JUMP JUMPDEST PUSH0 PUSH0 REVERT JUMPDEST PUSH0 PUSH20 0xFFFFFFFFFFFFFFFFFFFFFFFFFFFFFFFFFFFFFFFF DUP3 AND SWAP1 POP SWAP2 SWAP1 POP JUMP JUMPDEST PUSH0 PUSH2 0x121 DUP3 PUSH2 0xF8 JUMP JUMPDEST SWAP1 POP SWAP2 SWAP1 POP JUMP JUMPDEST PUSH0 PUSH2 0x132 DUP3 PUSH2 0x117 JUMP JUMPDEST SWAP1 POP SWAP2 SWAP1 POP JUMP JUMPDEST PUSH2 0x142 DUP2 PUSH2 0x128 JUMP JUMPDEST DUP2 EQ PUSH2 0x14C JUMPI PUSH0 PUSH0 REVERT JUMPDEST POP JUMP JUMPDEST PUSH0 DUP2 MLOAD SWAP1 POP PUSH2 0x15D DUP2 PUSH2 0x139 JUMP JUMPDEST SWAP3 SWAP2 POP POP JUMP JUMPDEST PUSH2 0x16C DUP2 PUSH2 0x117 JUMP JUMPDEST DUP2 EQ PUSH2 0x176 JUMPI PUSH0 PUSH0 REVERT JUMPDEST POP JUMP JUMPDEST PUSH0 DUP2 MLOAD SWAP1 POP PUSH2 0x187 DUP2 PUSH2 0x163 JUMP JUMPDEST SWAP3 SWAP2 POP POP JUMP JUMPDEST PUSH0 DUP2 SWAP1 POP SWAP2 SWAP1 POP JUMP JUMPDEST PUSH2 0x19F DUP2 PUSH2 0x18D JUMP JUMPDEST DUP2 EQ PUSH2 0x1A9 JUMPI PUSH0 PUSH0 REVERT JUMPDEST POP JUMP JUMPDEST PUSH0 DUP2 MLOAD SWAP1 POP PUSH2 0x1BA DUP2 PUSH2 0x196 JUMP JUMPDEST SWAP3 SWAP2 POP POP JUMP JUMPDEST PUSH0 PUSH0 PUSH0 PUSH1 0x60 DUP5 DUP7 SUB SLT ISZERO PUSH2 0x1D7 JUMPI PUSH2 0x1D6 PUSH2 0xF4 JUMP JUMPDEST JUMPDEST PUSH0 PUSH2 0x1E4 DUP7 DUP3 DUP8 ADD PUSH2 0x14F JUMP JUMPDEST SWAP4 POP POP PUSH1 0x20 PUSH2 0x1F5 DUP7 DUP3 DUP8 ADD PUSH2 0x179 JUMP JUMPDEST SWAP3 POP POP PUSH1 0x40 PUSH2 0x206 DUP7 DUP3 DUP8 ADD PUSH2 0x1AC JUMP JUMPDEST SWAP2 POP POP SWAP3 POP SWAP3 POP SWAP3 JUMP JUMPDEST PUSH0 DUP3 DUP3 MSTORE PUSH1 0x20 DUP3 ADD SWAP1 POP SWAP3 SWAP2 POP POP JUMP JUMPDEST PUSH32 0x6C6F636B2074696D652073686F756C642067726561746572207468616E203000 PUSH0 DUP3 ADD MSTORE POP JUMP JUMPDEST PUSH0 PUSH2 0x254 PUSH1 0x1F DUP4 PUSH2 0x210 JUMP JUMPDEST SWAP2 POP PUSH2 0x25F DUP3 PUSH2 0x220 JUMP JUMPDEST PUSH1 0x20 DUP3 ADD SWAP1 POP SWAP2 SWAP1 POP JUMP JUMPDEST PUSH0 PUSH1 0x20 DUP3 ADD SWAP1 POP DUP2 DUP2 SUB PUSH0 DUP4 ADD MSTORE PUSH2 0x281 DUP2 PUSH2 0x248 JUMP JUMPDEST SWAP1 POP SWAP2 SWAP1 POP JUMP JUMPDEST PUSH1 0x80 MLOAD PUSH1 0xA0 MLOAD PUSH1 0xC0 MLOAD PUSH1 0xE0 MLOAD PUSH2 0x881 PUSH2 0x2F3 PUSH0 CODECOPY PUSH0 DUP2 DUP2 PUSH2 0x106 ADD MSTORE DUP2 DUP2 PUSH2 0x3DA ADD MSTORE PUSH2 0x436 ADD MSTORE PUSH0 DUP2 DUP2 PUSH2 0x153 ADD MSTORE DUP2 DUP2 PUSH2 0x3FB ADD MSTORE PUSH2 0x457 ADD MSTORE PUSH0 DUP2 DUP2 PUSH2 0x12A ADD MSTORE PUSH2 0x200 ADD MSTORE PUSH0 DUP2 DUP2 PUSH2 0x1C4 ADD MSTORE DUP2 DUP2 PUSH2 0x280 ADD MSTORE DUP2 DUP2 PUSH2 0x30A ADD MSTORE PUSH2 0x332 ADD MSTORE PUSH2 0x881 PUSH0 RETURN INVALID PUSH1 0x80 PUSH1 0x40 MSTORE CALLVALUE DUP1 ISZERO PUSH2 0xF JUMPI PUSH0 PUSH0 REVERT JUMPDEST POP PUSH1 0x4 CALLDATASIZE LT PUSH2 0x60 JUMPI PUSH0 CALLDATALOAD PUSH1 0xE0 SHR DUP1 PUSH4 0xD668087 EQ PUSH2 0x64 JUMPI DUP1 PUSH4 0x38AF3EED EQ PUSH2 0x82 JUMPI DUP1 PUSH4 0x45D30A17 EQ PUSH2 0xA0 JUMPI DUP1 PUSH4 0x78E97925 EQ PUSH2 0xBE JUMPI DUP1 PUSH4 0x86D1A69F EQ PUSH2 0xDC JUMPI DUP1 PUSH4 0xFC0C546A EQ PUSH2 0xE6 JUMPI JUMPDEST PUSH0 PUSH0 REVERT JUMPDEST PUSH2 0x6C PUSH2 0x104 JUMP JUMPDEST PUSH1 0x40 MLOAD PUSH2 0x79 SWAP2 SWAP1 PUSH2 0x4B6 JUMP JUMPDEST PUSH1 0x40 MLOAD DUP1 SWAP2 SUB SWAP1 RETURN JUMPDEST PUSH2 0x8A PUSH2 0x128 JUMP JUMPDEST PUSH1 0x40 MLOAD PUSH2 0x97 SWAP2 SWAP1 PUSH2 0x50E JUMP JUMPDEST PUSH1 0x40 MLOAD DUP1 SWAP2 SUB SWAP1 RETURN JUMPDEST PUSH2 0xA8 PUSH2 0x14C JUMP JUMPDEST PUSH1 0x40 MLOAD PUSH2 0xB5 SWAP2 SWAP1 PUSH2 0x4B6 JUMP JUMPDEST PUSH1 0x40 MLOAD DUP1 SWAP2 SUB SWAP1 RETURN JUMPDEST PUSH2 0xC6 PUSH2 0x151 JUMP JUMPDEST PUSH1 0x40 MLOAD PUSH2 0xD3 SWAP2 SWAP1 PUSH2 0x4B6 JUMP JUMPDEST PUSH1 0x40 MLOAD DUP1 SWAP2 SUB SWAP1 RETURN JUMPDEST PUSH2 0xE4 PUSH2 0x175 JUMP JUMPDEST STOP JUMPDEST PUSH2 0xEE PUSH2 0x308 JUMP JUMPDEST PUSH1 0x40 MLOAD PUSH2 0xFB SWAP2 SWAP1 PUSH2 0x582 JUMP JUMPDEST PUSH1 0x40 MLOAD DUP1 SWAP2 SUB SWAP1 RETURN JUMPDEST PUSH32 0x0 DUP2 JUMP JUMPDEST PUSH32 0x0 DUP2 JUMP JUMPDEST PUSH0 SLOAD DUP2 JUMP JUMPDEST PUSH32 0x0 DUP2 JUMP JUMPDEST PUSH0 PUSH2 0x17E PUSH2 0x32C JUMP JUMPDEST SWAP1 POP PUSH0 DUP2 GT PUSH2 0x1C2 JUMPI PUSH1 0x40 MLOAD PUSH32 0x8C379A000000000000000000000000000000000000000000000000000000000 DUP2 MSTORE PUSH1 0x4 ADD PUSH2 0x1B9 SWAP1 PUSH2 0x5F5 JUMP JUMPDEST PUSH1 0x40 MLOAD DUP1 SWAP2 SUB SWAP1 REVERT JUMPDEST PUSH32 0x0 PUSH20 0xFFFFFFFFFFFFFFFFFFFFFFFFFFFFFFFFFFFFFFFF AND PUSH4 0xA9059CBB PUSH32 0x0 DUP4 PUSH1 0x40 MLOAD DUP4 PUSH4 0xFFFFFFFF AND PUSH1 0xE0 SHL DUP2 MSTORE PUSH1 0x4 ADD PUSH2 0x23D SWAP3 SWAP2 SWAP1 PUSH2 0x613 JUMP JUMPDEST PUSH1 0x20 PUSH1 0x40 MLOAD DUP1 DUP4 SUB DUP2 PUSH0 DUP8 GAS CALL ISZERO DUP1 ISZERO PUSH2 0x259 JUMPI RETURNDATASIZE PUSH0 PUSH0 RETURNDATACOPY RETURNDATASIZE PUSH0 REVERT JUMPDEST POP POP POP POP PUSH1 0x40 MLOAD RETURNDATASIZE PUSH1 0x1F NOT PUSH1 0x1F DUP3 ADD AND DUP3 ADD DUP1 PUSH1 0x40 MSTORE POP DUP2 ADD SWAP1 PUSH2 0x27D SWAP2 SWAP1 PUSH2 0x673 JUMP JUMPDEST POP PUSH32 0x0 PUSH20 0xFFFFFFFFFFFFFFFFFFFFFFFFFFFFFFFFFFFFFFFF AND CALLER PUSH20 0xFFFFFFFFFFFFFFFFFFFFFFFFFFFFFFFFFFFFFFFF AND PUSH32 0x29E9BC035F01BFA0DA19263257DBBAEB34BF6C9C780D975B99CB802AECFCF1A2 TIMESTAMP DUP5 PUSH1 0x40 MLOAD PUSH2 0x2FD SWAP3 SWAP2 SWAP1 PUSH2 0x69E JUMP JUMPDEST PUSH1 0x40 MLOAD DUP1 SWAP2 SUB SWAP1 LOG3 POP JUMP JUMPDEST PUSH32 0x0 DUP2 JUMP JUMPDEST PUSH0 PUSH0 PUSH0 SLOAD PUSH32 0x0 PUSH20 0xFFFFFFFFFFFFFFFFFFFFFFFFFFFFFFFFFFFFFFFF AND PUSH4 0x70A08231 ADDRESS PUSH1 0x40 MLOAD DUP3 PUSH4 0xFFFFFFFF AND PUSH1 0xE0 SHL DUP2 MSTORE PUSH1 0x4 ADD PUSH2 0x389 SWAP2 SWAP1 PUSH2 0x50E JUMP JUMPDEST PUSH1 0x20 PUSH1 0x40 MLOAD DUP1 DUP4 SUB DUP2 DUP7 GAS STATICCALL ISZERO DUP1 ISZERO PUSH2 0x3A4 JUMPI RETURNDATASIZE PUSH0 PUSH0 RETURNDATACOPY RETURNDATASIZE PUSH0 REVERT JUMPDEST POP POP POP POP PUSH1 0x40 MLOAD RETURNDATASIZE PUSH1 0x1F NOT PUSH1 0x1F DUP3 ADD AND DUP3 ADD DUP1 PUSH1 0x40 MSTORE POP DUP2 ADD SWAP1 PUSH2 0x3C8 SWAP2 SWAP1 PUSH2 0x6EF JUMP JUMPDEST PUSH2 0x3D2 SWAP2 SWAP1 PUSH2 0x747 JUMP JUMPDEST SWAP1 POP PUSH0 TIMESTAMP SWAP1 POP PUSH32 0x0 PUSH32 0x0 DUP3 PUSH2 0x425 SWAP2 SWAP1 PUSH2 0x77A JUMP JUMPDEST LT PUSH2 0x434 JUMPI DUP2 SWAP3 POP POP POP PUSH2 0x49B JUMP JUMPDEST PUSH32 0x0 PUSH32 0x0 DUP3 PUSH2 0x481 SWAP2 SWAP1 PUSH2 0x77A JUMP JUMPDEST DUP4 PUSH2 0x48C SWAP2 SWAP1 PUSH2 0x7AD JUMP JUMPDEST PUSH2 0x496 SWAP2 SWAP1 PUSH2 0x81B JUMP JUMPDEST SWAP3 POP POP POP JUMPDEST SWAP1 JUMP JUMPDEST PUSH0 DUP2 SWAP1 POP SWAP2 SWAP1 POP JUMP JUMPDEST PUSH2 0x4B0 DUP2 PUSH2 0x49E JUMP JUMPDEST DUP3 MSTORE POP POP JUMP JUMPDEST PUSH0 PUSH1 0x20 DUP3 ADD SWAP1 POP PUSH2 0x4C9 PUSH0 DUP4 ADD DUP5 PUSH2 0x4A7 JUMP JUMPDEST SWAP3 SWAP2 POP POP JUMP JUMPDEST PUSH0 PUSH20 0xFFFFFFFFFFFFFFFFFFFFFFFFFFFFFFFFFFFFFFFF DUP3 AND SWAP1 POP SWAP2 SWAP1 POP JUMP JUMPDEST PUSH0 PUSH2 0x4F8 DUP3 PUSH2 0x4CF JUMP JUMPDEST SWAP1 POP SWAP2 SWAP1 POP JUMP JUMPDEST PUSH2 0x508 DUP2 PUSH2 0x4EE JUMP JUMPDEST DUP3 MSTORE POP POP JUMP JUMPDEST PUSH0 PUSH1 0x20 DUP3 ADD SWAP1 POP PUSH2 0x521 PUSH0 DUP4 ADD DUP5 PUSH2 0x4FF JUMP JUMPDEST SWAP3 SWAP2 POP POP JUMP JUMPDEST PUSH0 DUP2 SWAP1 POP SWAP2 SWAP1 POP JUMP JUMPDEST PUSH0 PUSH2 0x54A PUSH2 0x545 PUSH2 0x540 DUP5 PUSH2 0x4CF JUMP JUMPDEST PUSH2 0x527 JUMP JUMPDEST PUSH2 0x4CF JUMP JUMPDEST SWAP1 POP SWAP2 SWAP1 POP JUMP JUMPDEST PUSH0 PUSH2 0x55B DUP3 PUSH2 0x530 JUMP JUMPDEST SWAP1 POP SWAP2 SWAP1 POP JUMP JUMPDEST PUSH0 PUSH2 0x56C DUP3 PUSH2 0x551 JUMP JUMPDEST SWAP1 POP SWAP2 SWAP1 POP JUMP JUMPDEST PUSH2 0x57C DUP2 PUSH2 0x562 JUMP JUMPDEST DUP3 MSTORE POP POP JUMP JUMPDEST PUSH0 PUSH1 0x20 DUP3 ADD SWAP1 POP PUSH2 0x595 PUSH0 DUP4 ADD DUP5 PUSH2 0x573 JUMP JUMPDEST SWAP3 SWAP2 POP POP JUMP JUMPDEST PUSH0 DUP3 DUP3 MSTORE PUSH1 0x20 DUP3 ADD SWAP1 POP SWAP3 SWAP2 POP POP JUMP JUMPDEST PUSH32 0x6E6F20746F6B656E7320746F2072656C65617365000000000000000000000000 PUSH0 DUP3 ADD MSTORE POP JUMP JUMPDEST PUSH0 PUSH2 0x5DF PUSH1 0x14 DUP4 PUSH2 0x59B JUMP JUMPDEST SWAP2 POP PUSH2 0x5EA DUP3 PUSH2 0x5AB JUMP JUMPDEST PUSH1 0x20 DUP3 ADD SWAP1 POP SWAP2 SWAP1 POP JUMP JUMPDEST PUSH0 PUSH1 0x20 DUP3 ADD SWAP1 POP DUP2 DUP2 SUB PUSH0 DUP4 ADD MSTORE PUSH2 0x60C DUP2 PUSH2 0x5D3 JUMP JUMPDEST SWAP1 POP SWAP2 SWAP1 POP JUMP JUMPDEST PUSH0 PUSH1 0x40 DUP3 ADD SWAP1 POP PUSH2 0x626 PUSH0 DUP4 ADD DUP6 PUSH2 0x4FF JUMP JUMPDEST PUSH2 0x633 PUSH1 0x20 DUP4 ADD DUP5 PUSH2 0x4A7 JUMP JUMPDEST SWAP4 SWAP3 POP POP POP JUMP JUMPDEST PUSH0 PUSH0 REVERT JUMPDEST PUSH0 DUP2 ISZERO ISZERO SWAP1 POP SWAP2 SWAP1 POP JUMP JUMPDEST PUSH2 0x652 DUP2 PUSH2 0x63E JUMP JUMPDEST DUP2 EQ PUSH2 0x65C JUMPI PUSH0 PUSH0 REVERT JUMPDEST POP JUMP JUMPDEST PUSH0 DUP2 MLOAD SWAP1 POP PUSH2 0x66D DUP2 PUSH2 0x649 JUMP JUMPDEST SWAP3 SWAP2 POP POP JUMP JUMPDEST PUSH0 PUSH1 0x20 DUP3 DUP5 SUB SLT ISZERO PUSH2 0x688 JUMPI PUSH2 0x687 PUSH2 0x63A JUMP JUMPDEST JUMPDEST PUSH0 PUSH2 0x695 DUP5 DUP3 DUP6 ADD PUSH2 0x65F JUMP JUMPDEST SWAP2 POP POP SWAP3 SWAP2 POP POP JUMP JUMPDEST PUSH0 PUSH1 0x40 DUP3 ADD SWAP1 POP PUSH2 0x6B1 PUSH0 DUP4 ADD DUP6 PUSH2 0x4A7 JUMP JUMPDEST PUSH2 0x6BE PUSH1 0x20 DUP4 ADD DUP5 PUSH2 0x4A7 JUMP JUMPDEST SWAP4 SWAP3 POP POP POP JUMP JUMPDEST PUSH2 0x6CE DUP2 PUSH2 0x49E JUMP JUMPDEST DUP2 EQ PUSH2 0x6D8 JUMPI PUSH0 PUSH0 REVERT JUMPDEST POP JUMP JUMPDEST PUSH0 DUP2 MLOAD SWAP1 POP PUSH2 0x6E9 DUP2 PUSH2 0x6C5 JUMP JUMPDEST SWAP3 SWAP2 POP POP JUMP JUMPDEST PUSH0 PUSH1 0x20 DUP3 DUP5 SUB SLT ISZERO PUSH2 0x704 JUMPI PUSH2 0x703 PUSH2 0x63A JUMP JUMPDEST JUMPDEST PUSH0 PUSH2 0x711 DUP5 DUP3 DUP6 ADD PUSH2 0x6DB JUMP JUMPDEST SWAP2 POP POP SWAP3 SWAP2 POP POP JUMP JUMPDEST PUSH32 0x4E487B7100000000000000000000000000000000000000000000000000000000 PUSH0 MSTORE PUSH1 0x11 PUSH1 0x4 MSTORE PUSH1 0x24 PUSH0 REVERT JUMPDEST PUSH0 PUSH2 0x751 DUP3 PUSH2 0x49E JUMP JUMPDEST SWAP2 POP PUSH2 0x75C DUP4 PUSH2 0x49E JUMP JUMPDEST SWAP3 POP DUP3 DUP3 ADD SWAP1 POP DUP1 DUP3 GT ISZERO PUSH2 0x774 JUMPI PUSH2 0x773 PUSH2 0x71A JUMP JUMPDEST JUMPDEST SWAP3 SWAP2 POP POP JUMP JUMPDEST PUSH0 PUSH2 0x784 DUP3 PUSH2 0x49E JUMP JUMPDEST SWAP2 POP PUSH2 0x78F DUP4 PUSH2 0x49E JUMP JUMPDEST SWAP3 POP DUP3 DUP3 SUB SWAP1 POP DUP2 DUP2 GT ISZERO PUSH2 0x7A7 JUMPI PUSH2 0x7A6 PUSH2 0x71A JUMP JUMPDEST JUMPDEST SWAP3 SWAP2 POP POP JUMP JUMPDEST PUSH0 PUSH2 0x7B7 DUP3 PUSH2 0x49E JUMP JUMPDEST SWAP2 POP PUSH2 0x7C2 DUP4 PUSH2 0x49E JUMP JUMPDEST SWAP3 POP DUP3 DUP3 MUL PUSH2 0x7D0 DUP2 PUSH2 0x49E JUMP JUMPDEST SWAP2 POP DUP3 DUP3 DIV DUP5 EQ DUP4 ISZERO OR PUSH2 0x7E7 JUMPI PUSH2 0x7E6 PUSH2 0x71A JUMP JUMPDEST JUMPDEST POP SWAP3 SWAP2 POP POP JUMP JUMPDEST PUSH32 0x4E487B7100000000000000000000000000000000000000000000000000000000 PUSH0 MSTORE PUSH1 0x12 PUSH1 0x4 MSTORE PUSH1 0x24 PUSH0 REVERT JUMPDEST PUSH0 PUSH2 0x825 DUP3 PUSH2 0x49E JUMP JUMPDEST SWAP2 POP PUSH2 0x830 DUP4 PUSH2 0x49E JUMP JUMPDEST SWAP3 POP DUP3 PUSH2 0x840 JUMPI PUSH2 0x83F PUSH2 0x7EE JUMP JUMPDEST JUMPDEST DUP3 DUP3 DIV SWAP1 POP SWAP3 SWAP2 POP POP JUMP INVALID LOG2 PUSH5 0x6970667358 0x22 SLT KECCAK256 RETURN 0x24 0xBF RETURN 0xDC LOG4 DUP10 DUP13 BLOBBASEFEE 0xD8 0xE1 BLOCKHASH EXTCODECOPY 0xBA DUP9 SAR CALL 0xFB 0x1E CREATE 0xEE 0x1E 0xE8 JUMPI CALL SSTORE PUSH12 0xE436EF9B3B64736F6C634300 ADDMOD SHR STOP CALLER "
				},
				"gasEstimates": {
					"creation": {
						"codeDepositCost": "435400",
						"executionCost": "infinite",
						"totalCost": "infinite"
					},
					"external": {
						"beneficiary()": "infinite",
						"lockTime()": "infinite",
						"release()": "infinite",
						"releasedAmount()": "2446",
						"startTime()": "infinite",
						"token()": "infinite"
					},
					"internal": {
						"vestingCount()": "infinite"
					}
				},
				"methodIdentifiers": {
					"beneficiary()": "38af3eed",
					"lockTime()": "0d668087",
					"release()": "86d1a69f",
					"releasedAmount()": "45d30a17",
					"startTime()": "78e97925",
					"token()": "fc0c546a"
				}
			},
			"storageLayout": {
				"storage": [
					{
						"astId": 91,
						"contract": "contracts/TokenVesting.sol:TokenVesting",
						"label": "releasedAmount",
						"offset": 0,
						"slot": "0",
						"type": "t_uint256"
					}
				],
				"types": {
					"t_uint256": {
						"encoding": "inplace",
						"label": "uint256",
						"numberOfBytes": "32"
					}
				}
			},
			"userdoc": {
				"kind": "user",
				"methods": {},
				"version": 1
			}
		}
	}
}