{
	"contracts/EnglishAuction.sol": {
		"EnglishAuction": {
			"abi": [
				{
					"inputs": [],
					"stateMutability": "nonpayable",
					"type": "constructor"
				},
				{
					"inputs": [
						{
							"internalType": "address",
							"name": "owner",
							"type": "address"
						}
					],
					"name": "OwnableInvalidOwner",
					"type": "error"
				},
				{
					"inputs": [
						{
							"internalType": "address",
							"name": "account",
							"type": "address"
						}
					],
					"name": "OwnableUnauthorizedAccount",
					"type": "error"
				},
				{
					"anonymous": false,
					"inputs": [
						{
							"indexed": false,
							"internalType": "address",
							"name": "winner",
							"type": "address"
						},
						{
							"indexed": false,
							"internalType": "uint256",
							"name": "winningBid",
							"type": "uint256"
						}
					],
					"name": "AuctionEnded",
					"type": "event"
				},
				{
					"anonymous": false,
					"inputs": [
						{
							"indexed": false,
							"internalType": "uint256",
							"name": "startPrice",
							"type": "uint256"
						},
						{
							"indexed": false,
							"internalType": "uint256",
							"name": "startTime",
							"type": "uint256"
						}
					],
					"name": "AuctionStarted",
					"type": "event"
				},
				{
					"anonymous": false,
					"inputs": [
						{
							"indexed": false,
							"internalType": "address",
							"name": "bidder",
							"type": "address"
						},
						{
							"indexed": false,
							"internalType": "uint256",
							"name": "bidAmount",
							"type": "uint256"
						}
					],
					"name": "Bid",
					"type": "event"
				},
				{
					"anonymous": false,
					"inputs": [
						{
							"indexed": true,
							"internalType": "address",
							"name": "previousOwner",
							"type": "address"
						},
						{
							"indexed": true,
							"internalType": "address",
							"name": "newOwner",
							"type": "address"
						}
					],
					"name": "OwnershipTransferred",
					"type": "event"
				},
				{
					"anonymous": false,
					"inputs": [
						{
							"indexed": false,
							"internalType": "address",
							"name": "bidder",
							"type": "address"
						},
						{
							"indexed": false,
							"internalType": "uint256",
							"name": "bidAmount",
							"type": "uint256"
						},
						{
							"indexed": false,
							"internalType": "bool",
							"name": "success",
							"type": "bool"
						}
					],
					"name": "Refund",
					"type": "event"
				},
				{
					"inputs": [],
					"name": "bid",
					"outputs": [],
					"stateMutability": "payable",
					"type": "function"
				},
				{
					"inputs": [],
					"name": "endAuction",
					"outputs": [],
					"stateMutability": "nonpayable",
					"type": "function"
				},
				{
					"inputs": [],
					"name": "highestBid",
					"outputs": [
						{
							"internalType": "uint256",
							"name": "",
							"type": "uint256"
						}
					],
					"stateMutability": "view",
					"type": "function"
				},
				{
					"inputs": [],
					"name": "highestBidder",
					"outputs": [
						{
							"internalType": "address",
							"name": "",
							"type": "address"
						}
					],
					"stateMutability": "view",
					"type": "function"
				},
				{
					"inputs": [],
					"name": "owner",
					"outputs": [
						{
							"internalType": "address",
							"name": "",
							"type": "address"
						}
					],
					"stateMutability": "view",
					"type": "function"
				},
				{
					"inputs": [],
					"name": "renounceOwnership",
					"outputs": [],
					"stateMutability": "nonpayable",
					"type": "function"
				},
				{
					"inputs": [],
					"name": "startAuction",
					"outputs": [],
					"stateMutability": "nonpayable",
					"type": "function"
				},
				{
					"inputs": [],
					"name": "startTime",
					"outputs": [
						{
							"internalType": "uint256",
							"name": "",
							"type": "uint256"
						}
					],
					"stateMutability": "view",
					"type": "function"
				},
				{
					"inputs": [
						{
							"internalType": "address",
							"name": "newOwner",
							"type": "address"
						}
					],
					"name": "transferOwnership",
					"outputs": [],
					"stateMutability": "nonpayable",
					"type": "function"
				}
			],
			"devdoc": {
				"errors": {
					"OwnableInvalidOwner(address)": [
						{
							"details": "The owner is not a valid owner account. (eg. `address(0)`)"
						}
					],
					"OwnableUnauthorizedAccount(address)": [
						{
							"details": "The caller account is not authorized to perform an operation."
						}
					]
				},
				"kind": "dev",
				"methods": {
					"owner()": {
						"details": "Returns the address of the current owner."
					},
					"renounceOwnership()": {
						"details": "Leaves the contract without owner. It will not be possible to call `onlyOwner` functions. Can only be called by the current owner. NOTE: Renouncing ownership will leave the contract without an owner, thereby disabling any functionality that is only available to the owner."
					},
					"transferOwnership(address)": {
						"details": "Transfers ownership of the contract to a new account (`newOwner`). Can only be called by the current owner."
					}
				},
				"version": 1
			},
			"evm": {
				"assembly": "    /* \"contracts/EnglishAuction.sol\":111:3240  contract EnglishAuction is Ownable {... */\n  mstore(0x40, 0x80)\n    /* \"contracts/EnglishAuction.sol\":866:902  constructor() Ownable(msg.sender) {} */\n  callvalue\n  dup1\n  iszero\n  tag_1\n  jumpi\n  revert(0x00, 0x00)\ntag_1:\n  pop\n    /* \"contracts/EnglishAuction.sol\":888:898  msg.sender */\n  caller\n    /* \"@openzeppelin/contracts/access/Ownable.sol\":1297:1298  0 */\n  0x00\n    /* \"@openzeppelin/contracts/access/Ownable.sol\":1273:1299  initialOwner == address(0) */\n  0xffffffffffffffffffffffffffffffffffffffff\n  and\n    /* \"@openzeppelin/contracts/access/Ownable.sol\":1273:1285  initialOwner */\n  dup2\n    /* \"@openzeppelin/contracts/access/Ownable.sol\":1273:1299  initialOwner == address(0) */\n  0xffffffffffffffffffffffffffffffffffffffff\n  and\n  sub\n    /* \"@openzeppelin/contracts/access/Ownable.sol\":1269:1364  if (initialOwner == address(0)) {... */\n  tag_5\n  jumpi\n    /* \"@openzeppelin/contracts/access/Ownable.sol\":1350:1351  0 */\n  0x00\n    /* \"@openzeppelin/contracts/access/Ownable.sol\":1322:1353  OwnableInvalidOwner(address(0)) */\n  mload(0x40)\n  0x1e4fbdf700000000000000000000000000000000000000000000000000000000\n  dup2\n  mstore\n  0x04\n  add\n  tag_6\n  swap2\n  swap1\n  tag_7\n  jump\t// in\ntag_6:\n  mload(0x40)\n  dup1\n  swap2\n  sub\n  swap1\n  revert\n    /* \"@openzeppelin/contracts/access/Ownable.sol\":1269:1364  if (initialOwner == address(0)) {... */\ntag_5:\n    /* \"@openzeppelin/contracts/access/Ownable.sol\":1373:1405  _transferOwnership(initialOwner) */\n  tag_8\n    /* \"@openzeppelin/contracts/access/Ownable.sol\":1392:1404  initialOwner */\n  dup2\n    /* \"@openzeppelin/contracts/access/Ownable.sol\":1373:1391  _transferOwnership */\n  shl(0x20, tag_9)\n    /* \"@openzeppelin/contracts/access/Ownable.sol\":1373:1405  _transferOwnership(initialOwner) */\n  0x20\n  shr\n  jump\t// in\ntag_8:\n    /* \"@openzeppelin/contracts/access/Ownable.sol\":1225:1412  constructor(address initialOwner) {... */\n  pop\n    /* \"contracts/EnglishAuction.sol\":111:3240  contract EnglishAuction is Ownable {... */\n  jump(tag_11)\n    /* \"@openzeppelin/contracts/access/Ownable.sol\":2912:3099  function _transferOwnership(address newOwner) internal virtual {... */\ntag_9:\n    /* \"@openzeppelin/contracts/access/Ownable.sol\":2985:3001  address oldOwner */\n  0x00\n    /* \"@openzeppelin/contracts/access/Ownable.sol\":3004:3010  _owner */\n  0x00\n  0x00\n  swap1\n  sload\n  swap1\n  0x0100\n  exp\n  swap1\n  div\n  0xffffffffffffffffffffffffffffffffffffffff\n  and\n    /* \"@openzeppelin/contracts/access/Ownable.sol\":2985:3010  address oldOwner = _owner */\n  swap1\n  pop\n    /* \"@openzeppelin/contracts/access/Ownable.sol\":3029:3037  newOwner */\n  dup2\n    /* \"@openzeppelin/contracts/access/Ownable.sol\":3020:3026  _owner */\n  0x00\n  0x00\n    /* \"@openzeppelin/contracts/access/Ownable.sol\":3020:3037  _owner = newOwner */\n  0x0100\n  exp\n  dup2\n  sload\n  dup2\n  0xffffffffffffffffffffffffffffffffffffffff\n  mul\n  not\n  and\n  swap1\n  dup4\n  0xffffffffffffffffffffffffffffffffffffffff\n  and\n  mul\n  or\n  swap1\n  sstore\n  pop\n    /* \"@openzeppelin/contracts/access/Ownable.sol\":3083:3091  newOwner */\n  dup2\n    /* \"@openzeppelin/contracts/access/Ownable.sol\":3052:3092  OwnershipTransferred(oldOwner, newOwner) */\n  0xffffffffffffffffffffffffffffffffffffffff\n  and\n    /* \"@openzeppelin/contracts/access/Ownable.sol\":3073:3081  oldOwner */\n  dup2\n    /* \"@openzeppelin/contracts/access/Ownable.sol\":3052:3092  OwnershipTransferred(oldOwner, newOwner) */\n  0xffffffffffffffffffffffffffffffffffffffff\n  and\n  0x8be0079c531659141344cd1fd0a4f28419497f9722a3daafe3b4186f6b6457e0\n  mload(0x40)\n  mload(0x40)\n  dup1\n  swap2\n  sub\n  swap1\n  log3\n    /* \"@openzeppelin/contracts/access/Ownable.sol\":2975:3099  {... */\n  pop\n    /* \"@openzeppelin/contracts/access/Ownable.sol\":2912:3099  function _transferOwnership(address newOwner) internal virtual {... */\n  pop\n  jump\t// out\n    /* \"#utility.yul\":7:133   */\ntag_13:\n    /* \"#utility.yul\":44:51   */\n  0x00\n    /* \"#utility.yul\":84:126   */\n  0xffffffffffffffffffffffffffffffffffffffff\n    /* \"#utility.yul\":77:82   */\n  dup3\n    /* \"#utility.yul\":73:127   */\n  and\n    /* \"#utility.yul\":62:127   */\n  swap1\n  pop\n    /* \"#utility.yul\":7:133   */\n  swap2\n  swap1\n  pop\n  jump\t// out\n    /* \"#utility.yul\":139:235   */\ntag_14:\n    /* \"#utility.yul\":176:183   */\n  0x00\n    /* \"#utility.yul\":205:229   */\n  tag_19\n    /* \"#utility.yul\":223:228   */\n  dup3\n    /* \"#utility.yul\":205:229   */\n  tag_13\n  jump\t// in\ntag_19:\n    /* \"#utility.yul\":194:229   */\n  swap1\n  pop\n    /* \"#utility.yul\":139:235   */\n  swap2\n  swap1\n  pop\n  jump\t// out\n    /* \"#utility.yul\":241:359   */\ntag_15:\n    /* \"#utility.yul\":328:352   */\n  tag_21\n    /* \"#utility.yul\":346:351   */\n  dup2\n    /* \"#utility.yul\":328:352   */\n  tag_14\n  jump\t// in\ntag_21:\n    /* \"#utility.yul\":323:326   */\n  dup3\n    /* \"#utility.yul\":316:353   */\n  mstore\n    /* \"#utility.yul\":241:359   */\n  pop\n  pop\n  jump\t// out\n    /* \"#utility.yul\":365:587   */\ntag_7:\n    /* \"#utility.yul\":458:462   */\n  0x00\n    /* \"#utility.yul\":496:498   */\n  0x20\n    /* \"#utility.yul\":485:494   */\n  dup3\n    /* \"#utility.yul\":481:499   */\n  add\n    /* \"#utility.yul\":473:499   */\n  swap1\n  pop\n    /* \"#utility.yul\":509:580   */\n  tag_23\n    /* \"#utility.yul\":577:578   */\n  0x00\n    /* \"#utility.yul\":566:575   */\n  dup4\n    /* \"#utility.yul\":562:579   */\n  add\n    /* \"#utility.yul\":553:559   */\n  dup5\n    /* \"#utility.yul\":509:580   */\n  tag_15\n  jump\t// in\ntag_23:\n    /* \"#utility.yul\":365:587   */\n  swap3\n  swap2\n  pop\n  pop\n  jump\t// out\n    /* \"contracts/EnglishAuction.sol\":111:3240  contract EnglishAuction is Ownable {... */\ntag_11:\n  dataSize(sub_0)\n  dup1\n  dataOffset(sub_0)\n  0x00\n  codecopy\n  0x00\n  return\nstop\n\nsub_0: assembly {\n        /* \"contracts/EnglishAuction.sol\":111:3240  contract EnglishAuction is Ownable {... */\n      mstore(0x40, 0x80)\n      jumpi(tag_1, lt(calldatasize, 0x04))\n      shr(0xe0, calldataload(0x00))\n      dup1\n      0x8da5cb5b\n      gt\n      tag_11\n      jumpi\n      dup1\n      0x8da5cb5b\n      eq\n      tag_6\n      jumpi\n      dup1\n      0x91f90157\n      eq\n      tag_7\n      jumpi\n      dup1\n      0xd57bde79\n      eq\n      tag_8\n      jumpi\n      dup1\n      0xf2fde38b\n      eq\n      tag_9\n      jumpi\n      dup1\n      0xfe67a54b\n      eq\n      tag_10\n      jumpi\n      jump(tag_1)\n    tag_11:\n      dup1\n      0x1998aeef\n      eq\n      tag_2\n      jumpi\n      dup1\n      0x6b64c769\n      eq\n      tag_3\n      jumpi\n      dup1\n      0x715018a6\n      eq\n      tag_4\n      jumpi\n      dup1\n      0x78e97925\n      eq\n      tag_5\n      jumpi\n    tag_1:\n      revert(0x00, 0x00)\n        /* \"contracts/EnglishAuction.sol\":1442:2554  function bid() public payable {... */\n    tag_2:\n      tag_12\n      tag_13\n      jump\t// in\n    tag_12:\n      stop\n        /* \"contracts/EnglishAuction.sol\":908:1416  function startAuction() public onlyOwner {... */\n    tag_3:\n      callvalue\n      dup1\n      iszero\n      tag_14\n      jumpi\n      revert(0x00, 0x00)\n    tag_14:\n      pop\n      tag_15\n      tag_16\n      jump\t// in\n    tag_15:\n      stop\n        /* \"@openzeppelin/contracts/access/Ownable.sol\":2293:2394  function renounceOwnership() public virtual onlyOwner {... */\n    tag_4:\n      callvalue\n      dup1\n      iszero\n      tag_17\n      jumpi\n      revert(0x00, 0x00)\n    tag_17:\n      pop\n      tag_18\n      tag_19\n      jump\t// in\n    tag_18:\n      stop\n        /* \"contracts/EnglishAuction.sol\":338:362  uint256 public startTime */\n    tag_5:\n      callvalue\n      dup1\n      iszero\n      tag_20\n      jumpi\n      revert(0x00, 0x00)\n    tag_20:\n      pop\n      tag_21\n      tag_22\n      jump\t// in\n    tag_21:\n      mload(0x40)\n      tag_23\n      swap2\n      swap1\n      tag_24\n      jump\t// in\n    tag_23:\n      mload(0x40)\n      dup1\n      swap2\n      sub\n      swap1\n      return\n        /* \"@openzeppelin/contracts/access/Ownable.sol\":1638:1723  function owner() public view virtual returns (address) {... */\n    tag_6:\n      callvalue\n      dup1\n      iszero\n      tag_25\n      jumpi\n      revert(0x00, 0x00)\n    tag_25:\n      pop\n      tag_26\n      tag_27\n      jump\t// in\n    tag_26:\n      mload(0x40)\n      tag_28\n      swap2\n      swap1\n      tag_29\n      jump\t// in\n    tag_28:\n      mload(0x40)\n      dup1\n      swap2\n      sub\n      swap1\n      return\n        /* \"contracts/EnglishAuction.sol\":390:418  address public highestBidder */\n    tag_7:\n      callvalue\n      dup1\n      iszero\n      tag_30\n      jumpi\n      revert(0x00, 0x00)\n    tag_30:\n      pop\n      tag_31\n      tag_32\n      jump\t// in\n    tag_31:\n      mload(0x40)\n      tag_33\n      swap2\n      swap1\n      tag_29\n      jump\t// in\n    tag_33:\n      mload(0x40)\n      dup1\n      swap2\n      sub\n      swap1\n      return\n        /* \"contracts/EnglishAuction.sol\":449:474  uint256 public highestBid */\n    tag_8:\n      callvalue\n      dup1\n      iszero\n      tag_34\n      jumpi\n      revert(0x00, 0x00)\n    tag_34:\n      pop\n      tag_35\n      tag_36\n      jump\t// in\n    tag_35:\n      mload(0x40)\n      tag_37\n      swap2\n      swap1\n      tag_24\n      jump\t// in\n    tag_37:\n      mload(0x40)\n      dup1\n      swap2\n      sub\n      swap1\n      return\n        /* \"@openzeppelin/contracts/access/Ownable.sol\":2543:2758  function transferOwnership(address newOwner) public virtual onlyOwner {... */\n    tag_9:\n      callvalue\n      dup1\n      iszero\n      tag_38\n      jumpi\n      revert(0x00, 0x00)\n    tag_38:\n      pop\n      tag_39\n      0x04\n      dup1\n      calldatasize\n      sub\n      dup2\n      add\n      swap1\n      tag_40\n      swap2\n      swap1\n      tag_41\n      jump\t// in\n    tag_40:\n      tag_42\n      jump\t// in\n    tag_39:\n      stop\n        /* \"contracts/EnglishAuction.sol\":2611:3238  function endAuction() public onlyOwner {... */\n    tag_10:\n      callvalue\n      dup1\n      iszero\n      tag_43\n      jumpi\n      revert(0x00, 0x00)\n    tag_43:\n      pop\n      tag_44\n      tag_45\n      jump\t// in\n    tag_44:\n      stop\n        /* \"contracts/EnglishAuction.sol\":1442:2554  function bid() public payable {... */\n    tag_13:\n        /* \"contracts/EnglishAuction.sol\":1509:1523  address bidder */\n      0x00\n        /* \"contracts/EnglishAuction.sol\":1526:1536  msg.sender */\n      caller\n        /* \"contracts/EnglishAuction.sol\":1509:1536  address bidder = msg.sender */\n      swap1\n      pop\n        /* \"contracts/EnglishAuction.sol\":1577:1588  uint amount */\n      0x00\n        /* \"contracts/EnglishAuction.sol\":1591:1600  msg.value */\n      callvalue\n        /* \"contracts/EnglishAuction.sol\":1577:1600  uint amount = msg.value */\n      swap1\n      pop\n        /* \"contracts/EnglishAuction.sol\":1703:1704  0 */\n      0x00\n        /* \"contracts/EnglishAuction.sol\":1691:1700  startTime */\n      sload(0x01)\n        /* \"contracts/EnglishAuction.sol\":1691:1704  startTime > 0 */\n      gt\n        /* \"contracts/EnglishAuction.sol\":1691:1759  startTime > 0 && ... */\n      dup1\n      iszero\n      tag_47\n      jumpi\n      pop\n        /* \"contracts/EnglishAuction.sol\":232:242  60 seconds */\n      0x3c\n        /* \"contracts/EnglishAuction.sol\":1739:1748  startTime */\n      sload(0x01)\n        /* \"contracts/EnglishAuction.sol\":1739:1759  startTime + DURATION */\n      tag_48\n      swap2\n      swap1\n      tag_49\n      jump\t// in\n    tag_48:\n        /* \"contracts/EnglishAuction.sol\":1721:1736  block.timestamp */\n      timestamp\n        /* \"contracts/EnglishAuction.sol\":1721:1759  block.timestamp < startTime + DURATION */\n      lt\n        /* \"contracts/EnglishAuction.sol\":1691:1759  startTime > 0 && ... */\n    tag_47:\n        /* \"contracts/EnglishAuction.sol\":1683:1797  require(startTime > 0 && ... */\n      tag_50\n      jumpi\n      mload(0x40)\n      0x08c379a000000000000000000000000000000000000000000000000000000000\n      dup2\n      mstore\n      0x04\n      add\n      tag_51\n      swap1\n      tag_52\n      jump\t// in\n    tag_51:\n      mload(0x40)\n      dup1\n      swap2\n      sub\n      swap1\n      revert\n    tag_50:\n        /* \"contracts/EnglishAuction.sol\":1907:1917  highestBid */\n      sload(0x03)\n        /* \"contracts/EnglishAuction.sol\":1898:1904  amount */\n      dup2\n        /* \"contracts/EnglishAuction.sol\":1898:1917  amount > highestBid */\n      gt\n        /* \"contracts/EnglishAuction.sol\":1898:1970  amount > highestBid && ... */\n      dup1\n      iszero\n      tag_53\n      jumpi\n      pop\n        /* \"contracts/EnglishAuction.sol\":300:309  0.1 ether */\n      0x016345785d8a0000\n        /* \"contracts/EnglishAuction.sol\":1943:1953  highestBid */\n      sload(0x03)\n        /* \"contracts/EnglishAuction.sol\":1934:1940  amount */\n      dup3\n        /* \"contracts/EnglishAuction.sol\":1934:1953  amount - highestBid */\n      tag_54\n      swap2\n      swap1\n      tag_55\n      jump\t// in\n    tag_54:\n        /* \"contracts/EnglishAuction.sol\":1934:1970  amount - highestBid >= MIN_INCREMENT */\n      lt\n      iszero\n        /* \"contracts/EnglishAuction.sol\":1898:1970  amount > highestBid && ... */\n    tag_53:\n        /* \"contracts/EnglishAuction.sol\":1890:2007  require(amount > highestBid && ... */\n      tag_56\n      jumpi\n      mload(0x40)\n      0x08c379a000000000000000000000000000000000000000000000000000000000\n      dup2\n      mstore\n      0x04\n      add\n      tag_57\n      swap1\n      tag_58\n      jump\t// in\n    tag_57:\n      mload(0x40)\n      dup1\n      swap2\n      sub\n      swap1\n      revert\n    tag_56:\n        /* \"contracts/EnglishAuction.sol\":2063:2064  0 */\n      0x00\n        /* \"contracts/EnglishAuction.sol\":2038:2065  highestBidder != address(0) */\n      0xffffffffffffffffffffffffffffffffffffffff\n      and\n        /* \"contracts/EnglishAuction.sol\":2038:2051  highestBidder */\n      0x02\n      0x00\n      swap1\n      sload\n      swap1\n      0x0100\n      exp\n      swap1\n      div\n      0xffffffffffffffffffffffffffffffffffffffff\n      and\n        /* \"contracts/EnglishAuction.sol\":2038:2065  highestBidder != address(0) */\n      0xffffffffffffffffffffffffffffffffffffffff\n      and\n      eq\n        /* \"contracts/EnglishAuction.sol\":2034:2316  if (highestBidder != address(0)) {... */\n      tag_59\n      jumpi\n        /* \"contracts/EnglishAuction.sol\":2133:2142  bool sent */\n      0x00\n        /* \"contracts/EnglishAuction.sol\":2153:2166  highestBidder */\n      0x02\n      0x00\n      swap1\n      sload\n      swap1\n      0x0100\n      exp\n      swap1\n      div\n      0xffffffffffffffffffffffffffffffffffffffff\n      and\n        /* \"contracts/EnglishAuction.sol\":2145:2172  payable(highestBidder).send */\n      0xffffffffffffffffffffffffffffffffffffffff\n      and\n        /* \"contracts/EnglishAuction.sol\":2145:2184  payable(highestBidder).send(highestBid) */\n      0x08fc\n        /* \"contracts/EnglishAuction.sol\":2173:2183  highestBid */\n      sload(0x03)\n        /* \"contracts/EnglishAuction.sol\":2145:2184  payable(highestBidder).send(highestBid) */\n      swap1\n      dup2\n      iszero\n      mul\n      swap1\n      mload(0x40)\n      0x00\n      mload(0x40)\n      dup1\n      dup4\n      sub\n      dup2\n      dup6\n      dup9\n      dup9\n      call\n      swap4\n      pop\n      pop\n      pop\n      pop\n        /* \"contracts/EnglishAuction.sol\":2133:2184  bool sent = payable(highestBidder).send(highestBid) */\n      swap1\n      pop\n        /* \"contracts/EnglishAuction.sol\":2266:2305  Refund(highestBidder, highestBid, sent) */\n      0x9ec8fd4891b49aae8ecb56892e6d93818739f52bac238fa16de2076fc8c1790c\n        /* \"contracts/EnglishAuction.sol\":2273:2286  highestBidder */\n      0x02\n      0x00\n      swap1\n      sload\n      swap1\n      0x0100\n      exp\n      swap1\n      div\n      0xffffffffffffffffffffffffffffffffffffffff\n      and\n        /* \"contracts/EnglishAuction.sol\":2288:2298  highestBid */\n      sload(0x03)\n        /* \"contracts/EnglishAuction.sol\":2300:2304  sent */\n      dup4\n        /* \"contracts/EnglishAuction.sol\":2266:2305  Refund(highestBidder, highestBid, sent) */\n      mload(0x40)\n      tag_61\n      swap4\n      swap3\n      swap2\n      swap1\n      tag_62\n      jump\t// in\n    tag_61:\n      mload(0x40)\n      dup1\n      swap2\n      sub\n      swap1\n      log1\n        /* \"contracts/EnglishAuction.sol\":2067:2316  {... */\n      pop\n        /* \"contracts/EnglishAuction.sol\":2034:2316  if (highestBidder != address(0)) {... */\n    tag_59:\n        /* \"contracts/EnglishAuction.sol\":2393:2399  bidder */\n      dup2\n        /* \"contracts/EnglishAuction.sol\":2377:2390  highestBidder */\n      0x02\n      0x00\n        /* \"contracts/EnglishAuction.sol\":2377:2399  highestBidder = bidder */\n      0x0100\n      exp\n      dup2\n      sload\n      dup2\n      0xffffffffffffffffffffffffffffffffffffffff\n      mul\n      not\n      and\n      swap1\n      dup4\n      0xffffffffffffffffffffffffffffffffffffffff\n      and\n      mul\n      or\n      swap1\n      sstore\n      pop\n        /* \"contracts/EnglishAuction.sol\":2468:2474  amount */\n      dup1\n        /* \"contracts/EnglishAuction.sol\":2455:2465  highestBid */\n      0x03\n        /* \"contracts/EnglishAuction.sol\":2455:2474  highestBid = amount */\n      dup2\n      swap1\n      sstore\n      pop\n        /* \"contracts/EnglishAuction.sol\":2520:2546  Bid(msg.sender, msg.value) */\n      0xe684a55f31b79eca403df938249029212a5925ec6be8012e099b45bc1019e5d2\n        /* \"contracts/EnglishAuction.sol\":2524:2534  msg.sender */\n      caller\n        /* \"contracts/EnglishAuction.sol\":2536:2545  msg.value */\n      callvalue\n        /* \"contracts/EnglishAuction.sol\":2520:2546  Bid(msg.sender, msg.value) */\n      mload(0x40)\n      tag_63\n      swap3\n      swap2\n      swap1\n      tag_64\n      jump\t// in\n    tag_63:\n      mload(0x40)\n      dup1\n      swap2\n      sub\n      swap1\n      log1\n        /* \"contracts/EnglishAuction.sol\":1472:2554  {... */\n      pop\n      pop\n        /* \"contracts/EnglishAuction.sol\":1442:2554  function bid() public payable {... */\n      jump\t// out\n        /* \"contracts/EnglishAuction.sol\":908:1416  function startAuction() public onlyOwner {... */\n    tag_16:\n        /* \"@openzeppelin/contracts/access/Ownable.sol\":1531:1544  _checkOwner() */\n      tag_66\n        /* \"@openzeppelin/contracts/access/Ownable.sol\":1531:1542  _checkOwner */\n      tag_67\n        /* \"@openzeppelin/contracts/access/Ownable.sol\":1531:1544  _checkOwner() */\n      jump\t// in\n    tag_66:\n        /* \"contracts/EnglishAuction.sol\":1016:1017  0 */\n      0x00\n        /* \"contracts/EnglishAuction.sol\":1003:1012  startTime */\n      sload(0x01)\n        /* \"contracts/EnglishAuction.sol\":1003:1017  startTime == 0 */\n      eq\n        /* \"contracts/EnglishAuction.sol\":995:1045  require(startTime == 0, \"auction already started\") */\n      tag_69\n      jumpi\n      mload(0x40)\n      0x08c379a000000000000000000000000000000000000000000000000000000000\n      dup2\n      mstore\n      0x04\n      add\n      tag_70\n      swap1\n      tag_71\n      jump\t// in\n    tag_70:\n      mload(0x40)\n      dup1\n      swap2\n      sub\n      swap1\n      revert\n    tag_69:\n        /* \"contracts/EnglishAuction.sol\":1121:1136  block.timestamp */\n      timestamp\n        /* \"contracts/EnglishAuction.sol\":1109:1118  startTime */\n      0x01\n        /* \"contracts/EnglishAuction.sol\":1109:1136  startTime = block.timestamp */\n      dup2\n      swap1\n      sstore\n      pop\n        /* \"contracts/EnglishAuction.sol\":1206:1207  0 */\n      0x00\n        /* \"contracts/EnglishAuction.sol\":1182:1195  highestBidder */\n      0x02\n      0x00\n        /* \"contracts/EnglishAuction.sol\":1182:1208  highestBidder = address(0) */\n      0x0100\n      exp\n      dup2\n      sload\n      dup2\n      0xffffffffffffffffffffffffffffffffffffffff\n      mul\n      not\n      and\n      swap1\n      dup4\n      0xffffffffffffffffffffffffffffffffffffffff\n      and\n      mul\n      or\n      swap1\n      sstore\n      pop\n        /* \"contracts/EnglishAuction.sol\":181:188  1 ether */\n      0x0de0b6b3a7640000\n        /* \"contracts/EnglishAuction.sol\":1263:1273  highestBid */\n      0x03\n        /* \"contracts/EnglishAuction.sol\":1263:1287  highestBid = START_PRICE */\n      dup2\n      swap1\n      sstore\n      pop\n        /* \"contracts/EnglishAuction.sol\":1371:1409  AuctionStarted(START_PRICE, startTime) */\n      0xf8910119ddbef5440c54532457dfe8250a10ed39e583292818f44724b9e1344c\n        /* \"contracts/EnglishAuction.sol\":181:188  1 ether */\n      0x0de0b6b3a7640000\n        /* \"contracts/EnglishAuction.sol\":1399:1408  startTime */\n      sload(0x01)\n        /* \"contracts/EnglishAuction.sol\":1371:1409  AuctionStarted(START_PRICE, startTime) */\n      mload(0x40)\n      tag_72\n      swap3\n      swap2\n      swap1\n      tag_73\n      jump\t// in\n    tag_72:\n      mload(0x40)\n      dup1\n      swap2\n      sub\n      swap1\n      log1\n        /* \"contracts/EnglishAuction.sol\":908:1416  function startAuction() public onlyOwner {... */\n      jump\t// out\n        /* \"@openzeppelin/contracts/access/Ownable.sol\":2293:2394  function renounceOwnership() public virtual onlyOwner {... */\n    tag_19:\n        /* \"@openzeppelin/contracts/access/Ownable.sol\":1531:1544  _checkOwner() */\n      tag_75\n        /* \"@openzeppelin/contracts/access/Ownable.sol\":1531:1542  _checkOwner */\n      tag_67\n        /* \"@openzeppelin/contracts/access/Ownable.sol\":1531:1544  _checkOwner() */\n      jump\t// in\n    tag_75:\n        /* \"@openzeppelin/contracts/access/Ownable.sol\":2357:2387  _transferOwnership(address(0)) */\n      tag_77\n        /* \"@openzeppelin/contracts/access/Ownable.sol\":2384:2385  0 */\n      0x00\n        /* \"@openzeppelin/contracts/access/Ownable.sol\":2357:2375  _transferOwnership */\n      tag_78\n        /* \"@openzeppelin/contracts/access/Ownable.sol\":2357:2387  _transferOwnership(address(0)) */\n      jump\t// in\n    tag_77:\n        /* \"@openzeppelin/contracts/access/Ownable.sol\":2293:2394  function renounceOwnership() public virtual onlyOwner {... */\n      jump\t// out\n        /* \"contracts/EnglishAuction.sol\":338:362  uint256 public startTime */\n    tag_22:\n      sload(0x01)\n      dup2\n      jump\t// out\n        /* \"@openzeppelin/contracts/access/Ownable.sol\":1638:1723  function owner() public view virtual returns (address) {... */\n    tag_27:\n        /* \"@openzeppelin/contracts/access/Ownable.sol\":1684:1691  address */\n      0x00\n        /* \"@openzeppelin/contracts/access/Ownable.sol\":1710:1716  _owner */\n      0x00\n      0x00\n      swap1\n      sload\n      swap1\n      0x0100\n      exp\n      swap1\n      div\n      0xffffffffffffffffffffffffffffffffffffffff\n      and\n        /* \"@openzeppelin/contracts/access/Ownable.sol\":1703:1716  return _owner */\n      swap1\n      pop\n        /* \"@openzeppelin/contracts/access/Ownable.sol\":1638:1723  function owner() public view virtual returns (address) {... */\n      swap1\n      jump\t// out\n        /* \"contracts/EnglishAuction.sol\":390:418  address public highestBidder */\n    tag_32:\n      0x02\n      0x00\n      swap1\n      sload\n      swap1\n      0x0100\n      exp\n      swap1\n      div\n      0xffffffffffffffffffffffffffffffffffffffff\n      and\n      dup2\n      jump\t// out\n        /* \"contracts/EnglishAuction.sol\":449:474  uint256 public highestBid */\n    tag_36:\n      sload(0x03)\n      dup2\n      jump\t// out\n        /* \"@openzeppelin/contracts/access/Ownable.sol\":2543:2758  function transferOwnership(address newOwner) public virtual onlyOwner {... */\n    tag_42:\n        /* \"@openzeppelin/contracts/access/Ownable.sol\":1531:1544  _checkOwner() */\n      tag_81\n        /* \"@openzeppelin/contracts/access/Ownable.sol\":1531:1542  _checkOwner */\n      tag_67\n        /* \"@openzeppelin/contracts/access/Ownable.sol\":1531:1544  _checkOwner() */\n      jump\t// in\n    tag_81:\n        /* \"@openzeppelin/contracts/access/Ownable.sol\":2647:2648  0 */\n      0x00\n        /* \"@openzeppelin/contracts/access/Ownable.sol\":2627:2649  newOwner == address(0) */\n      0xffffffffffffffffffffffffffffffffffffffff\n      and\n        /* \"@openzeppelin/contracts/access/Ownable.sol\":2627:2635  newOwner */\n      dup2\n        /* \"@openzeppelin/contracts/access/Ownable.sol\":2627:2649  newOwner == address(0) */\n      0xffffffffffffffffffffffffffffffffffffffff\n      and\n      sub\n        /* \"@openzeppelin/contracts/access/Ownable.sol\":2623:2714  if (newOwner == address(0)) {... */\n      tag_83\n      jumpi\n        /* \"@openzeppelin/contracts/access/Ownable.sol\":2700:2701  0 */\n      0x00\n        /* \"@openzeppelin/contracts/access/Ownable.sol\":2672:2703  OwnableInvalidOwner(address(0)) */\n      mload(0x40)\n      0x1e4fbdf700000000000000000000000000000000000000000000000000000000\n      dup2\n      mstore\n      0x04\n      add\n      tag_84\n      swap2\n      swap1\n      tag_29\n      jump\t// in\n    tag_84:\n      mload(0x40)\n      dup1\n      swap2\n      sub\n      swap1\n      revert\n        /* \"@openzeppelin/contracts/access/Ownable.sol\":2623:2714  if (newOwner == address(0)) {... */\n    tag_83:\n        /* \"@openzeppelin/contracts/access/Ownable.sol\":2723:2751  _transferOwnership(newOwner) */\n      tag_85\n        /* \"@openzeppelin/contracts/access/Ownable.sol\":2742:2750  newOwner */\n      dup2\n        /* \"@openzeppelin/contracts/access/Ownable.sol\":2723:2741  _transferOwnership */\n      tag_78\n        /* \"@openzeppelin/contracts/access/Ownable.sol\":2723:2751  _transferOwnership(newOwner) */\n      jump\t// in\n    tag_85:\n        /* \"@openzeppelin/contracts/access/Ownable.sol\":2543:2758  function transferOwnership(address newOwner) public virtual onlyOwner {... */\n      pop\n      jump\t// out\n        /* \"contracts/EnglishAuction.sol\":2611:3238  function endAuction() public onlyOwner {... */\n    tag_45:\n        /* \"@openzeppelin/contracts/access/Ownable.sol\":1531:1544  _checkOwner() */\n      tag_87\n        /* \"@openzeppelin/contracts/access/Ownable.sol\":1531:1542  _checkOwner */\n      tag_67\n        /* \"@openzeppelin/contracts/access/Ownable.sol\":1531:1544  _checkOwner() */\n      jump\t// in\n    tag_87:\n        /* \"contracts/EnglishAuction.sol\":2721:2722  0 */\n      0x00\n        /* \"contracts/EnglishAuction.sol\":2709:2718  startTime */\n      sload(0x01)\n        /* \"contracts/EnglishAuction.sol\":2709:2722  startTime > 0 */\n      gt\n        /* \"contracts/EnglishAuction.sol\":2709:2778  startTime > 0 && ... */\n      dup1\n      iszero\n      tag_89\n      jumpi\n      pop\n        /* \"contracts/EnglishAuction.sol\":232:242  60 seconds */\n      0x3c\n        /* \"contracts/EnglishAuction.sol\":2758:2767  startTime */\n      sload(0x01)\n        /* \"contracts/EnglishAuction.sol\":2758:2778  startTime + DURATION */\n      tag_90\n      swap2\n      swap1\n      tag_49\n      jump\t// in\n    tag_90:\n        /* \"contracts/EnglishAuction.sol\":2739:2754  block.timestamp */\n      timestamp\n        /* \"contracts/EnglishAuction.sol\":2739:2778  block.timestamp >= startTime + DURATION */\n      lt\n      iszero\n        /* \"contracts/EnglishAuction.sol\":2709:2778  startTime > 0 && ... */\n    tag_89:\n        /* \"contracts/EnglishAuction.sol\":2701:2816  require(startTime > 0 && ... */\n      tag_91\n      jumpi\n      mload(0x40)\n      0x08c379a000000000000000000000000000000000000000000000000000000000\n      dup2\n      mstore\n      0x04\n      add\n      tag_92\n      swap1\n      tag_52\n      jump\t// in\n    tag_92:\n      mload(0x40)\n      dup1\n      swap2\n      sub\n      swap1\n      revert\n    tag_91:\n        /* \"contracts/EnglishAuction.sol\":2878:2917  AuctionEnded(highestBidder, highestBid) */\n      0xdaec4582d5d9595688c8c98545fdd1c696d41c6aeaeb636737e84ed2f5c00eda\n        /* \"contracts/EnglishAuction.sol\":2891:2904  highestBidder */\n      0x02\n      0x00\n      swap1\n      sload\n      swap1\n      0x0100\n      exp\n      swap1\n      div\n      0xffffffffffffffffffffffffffffffffffffffff\n      and\n        /* \"contracts/EnglishAuction.sol\":2906:2916  highestBid */\n      sload(0x03)\n        /* \"contracts/EnglishAuction.sol\":2878:2917  AuctionEnded(highestBidder, highestBid) */\n      mload(0x40)\n      tag_93\n      swap3\n      swap2\n      swap1\n      tag_64\n      jump\t// in\n    tag_93:\n      mload(0x40)\n      dup1\n      swap2\n      sub\n      swap1\n      log1\n        /* \"contracts/EnglishAuction.sol\":2976:2977  0 */\n      0x00\n        /* \"contracts/EnglishAuction.sol\":2964:2973  startTime */\n      0x01\n        /* \"contracts/EnglishAuction.sol\":2964:2977  startTime = 0 */\n      dup2\n      swap1\n      sstore\n      pop\n        /* \"contracts/EnglishAuction.sol\":3035:3046  uint amount */\n      0x00\n        /* \"contracts/EnglishAuction.sol\":3049:3070  address(this).balance */\n      selfbalance\n        /* \"contracts/EnglishAuction.sol\":3035:3070  uint amount = address(this).balance */\n      swap1\n      pop\n        /* \"contracts/EnglishAuction.sol\":3092:3093  0 */\n      0x00\n        /* \"contracts/EnglishAuction.sol\":3083:3089  amount */\n      dup2\n        /* \"contracts/EnglishAuction.sol\":3083:3093  amount > 0 */\n      gt\n        /* \"contracts/EnglishAuction.sol\":3079:3154  if (amount > 0) {... */\n      iszero\n      tag_94\n      jumpi\n        /* \"contracts/EnglishAuction.sol\":3117:3124  owner() */\n      tag_95\n        /* \"contracts/EnglishAuction.sol\":3117:3122  owner */\n      tag_27\n        /* \"contracts/EnglishAuction.sol\":3117:3124  owner() */\n      jump\t// in\n    tag_95:\n        /* \"contracts/EnglishAuction.sol\":3109:3134  payable(owner()).transfer */\n      0xffffffffffffffffffffffffffffffffffffffff\n      and\n        /* \"contracts/EnglishAuction.sol\":3109:3142  payable(owner()).transfer(amount) */\n      0x08fc\n        /* \"contracts/EnglishAuction.sol\":3135:3141  amount */\n      dup3\n        /* \"contracts/EnglishAuction.sol\":3109:3142  payable(owner()).transfer(amount) */\n      swap1\n      dup2\n      iszero\n      mul\n      swap1\n      mload(0x40)\n      0x00\n      mload(0x40)\n      dup1\n      dup4\n      sub\n      dup2\n      dup6\n      dup9\n      dup9\n      call\n      swap4\n      pop\n      pop\n      pop\n      pop\n      iszero\n      dup1\n      iszero\n      tag_97\n      jumpi\n      returndatacopy(0x00, 0x00, returndatasize)\n      revert(0x00, returndatasize)\n    tag_97:\n      pop\n        /* \"contracts/EnglishAuction.sol\":3079:3154  if (amount > 0) {... */\n    tag_94:\n        /* \"contracts/EnglishAuction.sol\":2650:3238  {... */\n      pop\n        /* \"contracts/EnglishAuction.sol\":2611:3238  function endAuction() public onlyOwner {... */\n      jump\t// out\n        /* \"@openzeppelin/contracts/access/Ownable.sol\":1796:1958  function _checkOwner() internal view virtual {... */\n    tag_67:\n        /* \"@openzeppelin/contracts/access/Ownable.sol\":1866:1878  _msgSender() */\n      tag_99\n        /* \"@openzeppelin/contracts/access/Ownable.sol\":1866:1876  _msgSender */\n      tag_100\n        /* \"@openzeppelin/contracts/access/Ownable.sol\":1866:1878  _msgSender() */\n      jump\t// in\n    tag_99:\n        /* \"@openzeppelin/contracts/access/Ownable.sol\":1855:1878  owner() != _msgSender() */\n      0xffffffffffffffffffffffffffffffffffffffff\n      and\n        /* \"@openzeppelin/contracts/access/Ownable.sol\":1855:1862  owner() */\n      tag_101\n        /* \"@openzeppelin/contracts/access/Ownable.sol\":1855:1860  owner */\n      tag_27\n        /* \"@openzeppelin/contracts/access/Ownable.sol\":1855:1862  owner() */\n      jump\t// in\n    tag_101:\n        /* \"@openzeppelin/contracts/access/Ownable.sol\":1855:1878  owner() != _msgSender() */\n      0xffffffffffffffffffffffffffffffffffffffff\n      and\n      eq\n        /* \"@openzeppelin/contracts/access/Ownable.sol\":1851:1952  if (owner() != _msgSender()) {... */\n      tag_102\n      jumpi\n        /* \"@openzeppelin/contracts/access/Ownable.sol\":1928:1940  _msgSender() */\n      tag_103\n        /* \"@openzeppelin/contracts/access/Ownable.sol\":1928:1938  _msgSender */\n      tag_100\n        /* \"@openzeppelin/contracts/access/Ownable.sol\":1928:1940  _msgSender() */\n      jump\t// in\n    tag_103:\n        /* \"@openzeppelin/contracts/access/Ownable.sol\":1901:1941  OwnableUnauthorizedAccount(_msgSender()) */\n      mload(0x40)\n      0x118cdaa700000000000000000000000000000000000000000000000000000000\n      dup2\n      mstore\n      0x04\n      add\n      tag_104\n      swap2\n      swap1\n      tag_29\n      jump\t// in\n    tag_104:\n      mload(0x40)\n      dup1\n      swap2\n      sub\n      swap1\n      revert\n        /* \"@openzeppelin/contracts/access/Ownable.sol\":1851:1952  if (owner() != _msgSender()) {... */\n    tag_102:\n        /* \"@openzeppelin/contracts/access/Ownable.sol\":1796:1958  function _checkOwner() internal view virtual {... */\n      jump\t// out\n        /* \"@openzeppelin/contracts/access/Ownable.sol\":2912:3099  function _transferOwnership(address newOwner) internal virtual {... */\n    tag_78:\n        /* \"@openzeppelin/contracts/access/Ownable.sol\":2985:3001  address oldOwner */\n      0x00\n        /* \"@openzeppelin/contracts/access/Ownable.sol\":3004:3010  _owner */\n      0x00\n      0x00\n      swap1\n      sload\n      swap1\n      0x0100\n      exp\n      swap1\n      div\n      0xffffffffffffffffffffffffffffffffffffffff\n      and\n        /* \"@openzeppelin/contracts/access/Ownable.sol\":2985:3010  address oldOwner = _owner */\n      swap1\n      pop\n        /* \"@openzeppelin/contracts/access/Ownable.sol\":3029:3037  newOwner */\n      dup2\n        /* \"@openzeppelin/contracts/access/Ownable.sol\":3020:3026  _owner */\n      0x00\n      0x00\n        /* \"@openzeppelin/contracts/access/Ownable.sol\":3020:3037  _owner = newOwner */\n      0x0100\n      exp\n      dup2\n      sload\n      dup2\n      0xffffffffffffffffffffffffffffffffffffffff\n      mul\n      not\n      and\n      swap1\n      dup4\n      0xffffffffffffffffffffffffffffffffffffffff\n      and\n      mul\n      or\n      swap1\n      sstore\n      pop\n        /* \"@openzeppelin/contracts/access/Ownable.sol\":3083:3091  newOwner */\n      dup2\n        /* \"@openzeppelin/contracts/access/Ownable.sol\":3052:3092  OwnershipTransferred(oldOwner, newOwner) */\n      0xffffffffffffffffffffffffffffffffffffffff\n      and\n        /* \"@openzeppelin/contracts/access/Ownable.sol\":3073:3081  oldOwner */\n      dup2\n        /* \"@openzeppelin/contracts/access/Ownable.sol\":3052:3092  OwnershipTransferred(oldOwner, newOwner) */\n      0xffffffffffffffffffffffffffffffffffffffff\n      and\n      0x8be0079c531659141344cd1fd0a4f28419497f9722a3daafe3b4186f6b6457e0\n      mload(0x40)\n      mload(0x40)\n      dup1\n      swap2\n      sub\n      swap1\n      log3\n        /* \"@openzeppelin/contracts/access/Ownable.sol\":2975:3099  {... */\n      pop\n        /* \"@openzeppelin/contracts/access/Ownable.sol\":2912:3099  function _transferOwnership(address newOwner) internal virtual {... */\n      pop\n      jump\t// out\n        /* \"@openzeppelin/contracts/utils/Context.sol\":656:752  function _msgSender() internal view virtual returns (address) {... */\n    tag_100:\n        /* \"@openzeppelin/contracts/utils/Context.sol\":709:716  address */\n      0x00\n        /* \"@openzeppelin/contracts/utils/Context.sol\":735:745  msg.sender */\n      caller\n        /* \"@openzeppelin/contracts/utils/Context.sol\":728:745  return msg.sender */\n      swap1\n      pop\n        /* \"@openzeppelin/contracts/utils/Context.sol\":656:752  function _msgSender() internal view virtual returns (address) {... */\n      swap1\n      jump\t// out\n        /* \"#utility.yul\":7:84   */\n    tag_107:\n        /* \"#utility.yul\":44:51   */\n      0x00\n        /* \"#utility.yul\":73:78   */\n      dup2\n        /* \"#utility.yul\":62:78   */\n      swap1\n      pop\n        /* \"#utility.yul\":7:84   */\n      swap2\n      swap1\n      pop\n      jump\t// out\n        /* \"#utility.yul\":90:208   */\n    tag_108:\n        /* \"#utility.yul\":177:201   */\n      tag_130\n        /* \"#utility.yul\":195:200   */\n      dup2\n        /* \"#utility.yul\":177:201   */\n      tag_107\n      jump\t// in\n    tag_130:\n        /* \"#utility.yul\":172:175   */\n      dup3\n        /* \"#utility.yul\":165:202   */\n      mstore\n        /* \"#utility.yul\":90:208   */\n      pop\n      pop\n      jump\t// out\n        /* \"#utility.yul\":214:436   */\n    tag_24:\n        /* \"#utility.yul\":307:311   */\n      0x00\n        /* \"#utility.yul\":345:347   */\n      0x20\n        /* \"#utility.yul\":334:343   */\n      dup3\n        /* \"#utility.yul\":330:348   */\n      add\n        /* \"#utility.yul\":322:348   */\n      swap1\n      pop\n        /* \"#utility.yul\":358:429   */\n      tag_132\n        /* \"#utility.yul\":426:427   */\n      0x00\n        /* \"#utility.yul\":415:424   */\n      dup4\n        /* \"#utility.yul\":411:428   */\n      add\n        /* \"#utility.yul\":402:408   */\n      dup5\n        /* \"#utility.yul\":358:429   */\n      tag_108\n      jump\t// in\n    tag_132:\n        /* \"#utility.yul\":214:436   */\n      swap3\n      swap2\n      pop\n      pop\n      jump\t// out\n        /* \"#utility.yul\":442:568   */\n    tag_109:\n        /* \"#utility.yul\":479:486   */\n      0x00\n        /* \"#utility.yul\":519:561   */\n      0xffffffffffffffffffffffffffffffffffffffff\n        /* \"#utility.yul\":512:517   */\n      dup3\n        /* \"#utility.yul\":508:562   */\n      and\n        /* \"#utility.yul\":497:562   */\n      swap1\n      pop\n        /* \"#utility.yul\":442:568   */\n      swap2\n      swap1\n      pop\n      jump\t// out\n        /* \"#utility.yul\":574:670   */\n    tag_110:\n        /* \"#utility.yul\":611:618   */\n      0x00\n        /* \"#utility.yul\":640:664   */\n      tag_135\n        /* \"#utility.yul\":658:663   */\n      dup3\n        /* \"#utility.yul\":640:664   */\n      tag_109\n      jump\t// in\n    tag_135:\n        /* \"#utility.yul\":629:664   */\n      swap1\n      pop\n        /* \"#utility.yul\":574:670   */\n      swap2\n      swap1\n      pop\n      jump\t// out\n        /* \"#utility.yul\":676:794   */\n    tag_111:\n        /* \"#utility.yul\":763:787   */\n      tag_137\n        /* \"#utility.yul\":781:786   */\n      dup2\n        /* \"#utility.yul\":763:787   */\n      tag_110\n      jump\t// in\n    tag_137:\n        /* \"#utility.yul\":758:761   */\n      dup3\n        /* \"#utility.yul\":751:788   */\n      mstore\n        /* \"#utility.yul\":676:794   */\n      pop\n      pop\n      jump\t// out\n        /* \"#utility.yul\":800:1022   */\n    tag_29:\n        /* \"#utility.yul\":893:897   */\n      0x00\n        /* \"#utility.yul\":931:933   */\n      0x20\n        /* \"#utility.yul\":920:929   */\n      dup3\n        /* \"#utility.yul\":916:934   */\n      add\n        /* \"#utility.yul\":908:934   */\n      swap1\n      pop\n        /* \"#utility.yul\":944:1015   */\n      tag_139\n        /* \"#utility.yul\":1012:1013   */\n      0x00\n        /* \"#utility.yul\":1001:1010   */\n      dup4\n        /* \"#utility.yul\":997:1014   */\n      add\n        /* \"#utility.yul\":988:994   */\n      dup5\n        /* \"#utility.yul\":944:1015   */\n      tag_111\n      jump\t// in\n    tag_139:\n        /* \"#utility.yul\":800:1022   */\n      swap3\n      swap2\n      pop\n      pop\n      jump\t// out\n        /* \"#utility.yul\":1109:1226   */\n    tag_113:\n        /* \"#utility.yul\":1218:1219   */\n      0x00\n        /* \"#utility.yul\":1215:1216   */\n      0x00\n        /* \"#utility.yul\":1208:1220   */\n      revert\n        /* \"#utility.yul\":1355:1477   */\n    tag_115:\n        /* \"#utility.yul\":1428:1452   */\n      tag_144\n        /* \"#utility.yul\":1446:1451   */\n      dup2\n        /* \"#utility.yul\":1428:1452   */\n      tag_110\n      jump\t// in\n    tag_144:\n        /* \"#utility.yul\":1421:1426   */\n      dup2\n        /* \"#utility.yul\":1418:1453   */\n      eq\n        /* \"#utility.yul\":1408:1471   */\n      tag_145\n      jumpi\n        /* \"#utility.yul\":1467:1468   */\n      0x00\n        /* \"#utility.yul\":1464:1465   */\n      0x00\n        /* \"#utility.yul\":1457:1469   */\n      revert\n        /* \"#utility.yul\":1408:1471   */\n    tag_145:\n        /* \"#utility.yul\":1355:1477   */\n      pop\n      jump\t// out\n        /* \"#utility.yul\":1483:1622   */\n    tag_116:\n        /* \"#utility.yul\":1529:1534   */\n      0x00\n        /* \"#utility.yul\":1567:1573   */\n      dup2\n        /* \"#utility.yul\":1554:1574   */\n      calldataload\n        /* \"#utility.yul\":1545:1574   */\n      swap1\n      pop\n        /* \"#utility.yul\":1583:1616   */\n      tag_147\n        /* \"#utility.yul\":1610:1615   */\n      dup2\n        /* \"#utility.yul\":1583:1616   */\n      tag_115\n      jump\t// in\n    tag_147:\n        /* \"#utility.yul\":1483:1622   */\n      swap3\n      swap2\n      pop\n      pop\n      jump\t// out\n        /* \"#utility.yul\":1628:1957   */\n    tag_41:\n        /* \"#utility.yul\":1687:1693   */\n      0x00\n        /* \"#utility.yul\":1736:1738   */\n      0x20\n        /* \"#utility.yul\":1724:1733   */\n      dup3\n        /* \"#utility.yul\":1715:1722   */\n      dup5\n        /* \"#utility.yul\":1711:1734   */\n      sub\n        /* \"#utility.yul\":1707:1739   */\n      slt\n        /* \"#utility.yul\":1704:1823   */\n      iszero\n      tag_149\n      jumpi\n        /* \"#utility.yul\":1742:1821   */\n      tag_150\n      tag_113\n      jump\t// in\n    tag_150:\n        /* \"#utility.yul\":1704:1823   */\n    tag_149:\n        /* \"#utility.yul\":1862:1863   */\n      0x00\n        /* \"#utility.yul\":1887:1940   */\n      tag_151\n        /* \"#utility.yul\":1932:1939   */\n      dup5\n        /* \"#utility.yul\":1923:1929   */\n      dup3\n        /* \"#utility.yul\":1912:1921   */\n      dup6\n        /* \"#utility.yul\":1908:1930   */\n      add\n        /* \"#utility.yul\":1887:1940   */\n      tag_116\n      jump\t// in\n    tag_151:\n        /* \"#utility.yul\":1877:1940   */\n      swap2\n      pop\n        /* \"#utility.yul\":1833:1950   */\n      pop\n        /* \"#utility.yul\":1628:1957   */\n      swap3\n      swap2\n      pop\n      pop\n      jump\t// out\n        /* \"#utility.yul\":1963:2143   */\n    tag_117:\n        /* \"#utility.yul\":2011:2088   */\n      0x4e487b7100000000000000000000000000000000000000000000000000000000\n        /* \"#utility.yul\":2008:2009   */\n      0x00\n        /* \"#utility.yul\":2001:2089   */\n      mstore\n        /* \"#utility.yul\":2108:2112   */\n      0x11\n        /* \"#utility.yul\":2105:2106   */\n      0x04\n        /* \"#utility.yul\":2098:2113   */\n      mstore\n        /* \"#utility.yul\":2132:2136   */\n      0x24\n        /* \"#utility.yul\":2129:2130   */\n      0x00\n        /* \"#utility.yul\":2122:2137   */\n      revert\n        /* \"#utility.yul\":2149:2340   */\n    tag_49:\n        /* \"#utility.yul\":2189:2192   */\n      0x00\n        /* \"#utility.yul\":2208:2228   */\n      tag_154\n        /* \"#utility.yul\":2226:2227   */\n      dup3\n        /* \"#utility.yul\":2208:2228   */\n      tag_107\n      jump\t// in\n    tag_154:\n        /* \"#utility.yul\":2203:2228   */\n      swap2\n      pop\n        /* \"#utility.yul\":2242:2262   */\n      tag_155\n        /* \"#utility.yul\":2260:2261   */\n      dup4\n        /* \"#utility.yul\":2242:2262   */\n      tag_107\n      jump\t// in\n    tag_155:\n        /* \"#utility.yul\":2237:2262   */\n      swap3\n      pop\n        /* \"#utility.yul\":2285:2286   */\n      dup3\n        /* \"#utility.yul\":2282:2283   */\n      dup3\n        /* \"#utility.yul\":2278:2287   */\n      add\n        /* \"#utility.yul\":2271:2287   */\n      swap1\n      pop\n        /* \"#utility.yul\":2306:2309   */\n      dup1\n        /* \"#utility.yul\":2303:2304   */\n      dup3\n        /* \"#utility.yul\":2300:2310   */\n      gt\n        /* \"#utility.yul\":2297:2333   */\n      iszero\n      tag_156\n      jumpi\n        /* \"#utility.yul\":2313:2331   */\n      tag_157\n      tag_117\n      jump\t// in\n    tag_157:\n        /* \"#utility.yul\":2297:2333   */\n    tag_156:\n        /* \"#utility.yul\":2149:2340   */\n      swap3\n      swap2\n      pop\n      pop\n      jump\t// out\n        /* \"#utility.yul\":2346:2515   */\n    tag_118:\n        /* \"#utility.yul\":2430:2441   */\n      0x00\n        /* \"#utility.yul\":2464:2470   */\n      dup3\n        /* \"#utility.yul\":2459:2462   */\n      dup3\n        /* \"#utility.yul\":2452:2471   */\n      mstore\n        /* \"#utility.yul\":2504:2508   */\n      0x20\n        /* \"#utility.yul\":2499:2502   */\n      dup3\n        /* \"#utility.yul\":2495:2509   */\n      add\n        /* \"#utility.yul\":2480:2509   */\n      swap1\n      pop\n        /* \"#utility.yul\":2346:2515   */\n      swap3\n      swap2\n      pop\n      pop\n      jump\t// out\n        /* \"#utility.yul\":2521:2691   */\n    tag_119:\n        /* \"#utility.yul\":2661:2683   */\n      0x696e76616c69642061756374696f6e2074696d65000000000000000000000000\n        /* \"#utility.yul\":2657:2658   */\n      0x00\n        /* \"#utility.yul\":2649:2655   */\n      dup3\n        /* \"#utility.yul\":2645:2659   */\n      add\n        /* \"#utility.yul\":2638:2684   */\n      mstore\n        /* \"#utility.yul\":2521:2691   */\n      pop\n      jump\t// out\n        /* \"#utility.yul\":2697:3063   */\n    tag_120:\n        /* \"#utility.yul\":2839:2842   */\n      0x00\n        /* \"#utility.yul\":2860:2927   */\n      tag_161\n        /* \"#utility.yul\":2924:2926   */\n      0x14\n        /* \"#utility.yul\":2919:2922   */\n      dup4\n        /* \"#utility.yul\":2860:2927   */\n      tag_118\n      jump\t// in\n    tag_161:\n        /* \"#utility.yul\":2853:2927   */\n      swap2\n      pop\n        /* \"#utility.yul\":2936:3029   */\n      tag_162\n        /* \"#utility.yul\":3025:3028   */\n      dup3\n        /* \"#utility.yul\":2936:3029   */\n      tag_119\n      jump\t// in\n    tag_162:\n        /* \"#utility.yul\":3054:3056   */\n      0x20\n        /* \"#utility.yul\":3049:3052   */\n      dup3\n        /* \"#utility.yul\":3045:3057   */\n      add\n        /* \"#utility.yul\":3038:3057   */\n      swap1\n      pop\n        /* \"#utility.yul\":2697:3063   */\n      swap2\n      swap1\n      pop\n      jump\t// out\n        /* \"#utility.yul\":3069:3488   */\n    tag_52:\n        /* \"#utility.yul\":3235:3239   */\n      0x00\n        /* \"#utility.yul\":3273:3275   */\n      0x20\n        /* \"#utility.yul\":3262:3271   */\n      dup3\n        /* \"#utility.yul\":3258:3276   */\n      add\n        /* \"#utility.yul\":3250:3276   */\n      swap1\n      pop\n        /* \"#utility.yul\":3322:3331   */\n      dup2\n        /* \"#utility.yul\":3316:3320   */\n      dup2\n        /* \"#utility.yul\":3312:3332   */\n      sub\n        /* \"#utility.yul\":3308:3309   */\n      0x00\n        /* \"#utility.yul\":3297:3306   */\n      dup4\n        /* \"#utility.yul\":3293:3310   */\n      add\n        /* \"#utility.yul\":3286:3333   */\n      mstore\n        /* \"#utility.yul\":3350:3481   */\n      tag_164\n        /* \"#utility.yul\":3476:3480   */\n      dup2\n        /* \"#utility.yul\":3350:3481   */\n      tag_120\n      jump\t// in\n    tag_164:\n        /* \"#utility.yul\":3342:3481   */\n      swap1\n      pop\n        /* \"#utility.yul\":3069:3488   */\n      swap2\n      swap1\n      pop\n      jump\t// out\n        /* \"#utility.yul\":3494:3688   */\n    tag_55:\n        /* \"#utility.yul\":3534:3538   */\n      0x00\n        /* \"#utility.yul\":3554:3574   */\n      tag_166\n        /* \"#utility.yul\":3572:3573   */\n      dup3\n        /* \"#utility.yul\":3554:3574   */\n      tag_107\n      jump\t// in\n    tag_166:\n        /* \"#utility.yul\":3549:3574   */\n      swap2\n      pop\n        /* \"#utility.yul\":3588:3608   */\n      tag_167\n        /* \"#utility.yul\":3606:3607   */\n      dup4\n        /* \"#utility.yul\":3588:3608   */\n      tag_107\n      jump\t// in\n    tag_167:\n        /* \"#utility.yul\":3583:3608   */\n      swap3\n      pop\n        /* \"#utility.yul\":3632:3633   */\n      dup3\n        /* \"#utility.yul\":3629:3630   */\n      dup3\n        /* \"#utility.yul\":3625:3634   */\n      sub\n        /* \"#utility.yul\":3617:3634   */\n      swap1\n      pop\n        /* \"#utility.yul\":3656:3657   */\n      dup2\n        /* \"#utility.yul\":3650:3654   */\n      dup2\n        /* \"#utility.yul\":3647:3658   */\n      gt\n        /* \"#utility.yul\":3644:3681   */\n      iszero\n      tag_168\n      jumpi\n        /* \"#utility.yul\":3661:3679   */\n      tag_169\n      tag_117\n      jump\t// in\n    tag_169:\n        /* \"#utility.yul\":3644:3681   */\n    tag_168:\n        /* \"#utility.yul\":3494:3688   */\n      swap3\n      swap2\n      pop\n      pop\n      jump\t// out\n        /* \"#utility.yul\":3694:3863   */\n    tag_121:\n        /* \"#utility.yul\":3834:3855   */\n      0x696e76616c69642061756374696f6e2062696400000000000000000000000000\n        /* \"#utility.yul\":3830:3831   */\n      0x00\n        /* \"#utility.yul\":3822:3828   */\n      dup3\n        /* \"#utility.yul\":3818:3832   */\n      add\n        /* \"#utility.yul\":3811:3856   */\n      mstore\n        /* \"#utility.yul\":3694:3863   */\n      pop\n      jump\t// out\n        /* \"#utility.yul\":3869:4235   */\n    tag_122:\n        /* \"#utility.yul\":4011:4014   */\n      0x00\n        /* \"#utility.yul\":4032:4099   */\n      tag_172\n        /* \"#utility.yul\":4096:4098   */\n      0x13\n        /* \"#utility.yul\":4091:4094   */\n      dup4\n        /* \"#utility.yul\":4032:4099   */\n      tag_118\n      jump\t// in\n    tag_172:\n        /* \"#utility.yul\":4025:4099   */\n      swap2\n      pop\n        /* \"#utility.yul\":4108:4201   */\n      tag_173\n        /* \"#utility.yul\":4197:4200   */\n      dup3\n        /* \"#utility.yul\":4108:4201   */\n      tag_121\n      jump\t// in\n    tag_173:\n        /* \"#utility.yul\":4226:4228   */\n      0x20\n        /* \"#utility.yul\":4221:4224   */\n      dup3\n        /* \"#utility.yul\":4217:4229   */\n      add\n        /* \"#utility.yul\":4210:4229   */\n      swap1\n      pop\n        /* \"#utility.yul\":3869:4235   */\n      swap2\n      swap1\n      pop\n      jump\t// out\n        /* \"#utility.yul\":4241:4660   */\n    tag_58:\n        /* \"#utility.yul\":4407:4411   */\n      0x00\n        /* \"#utility.yul\":4445:4447   */\n      0x20\n        /* \"#utility.yul\":4434:4443   */\n      dup3\n        /* \"#utility.yul\":4430:4448   */\n      add\n        /* \"#utility.yul\":4422:4448   */\n      swap1\n      pop\n        /* \"#utility.yul\":4494:4503   */\n      dup2\n        /* \"#utility.yul\":4488:4492   */\n      dup2\n        /* \"#utility.yul\":4484:4504   */\n      sub\n        /* \"#utility.yul\":4480:4481   */\n      0x00\n        /* \"#utility.yul\":4469:4478   */\n      dup4\n        /* \"#utility.yul\":4465:4482   */\n      add\n        /* \"#utility.yul\":4458:4505   */\n      mstore\n        /* \"#utility.yul\":4522:4653   */\n      tag_175\n        /* \"#utility.yul\":4648:4652   */\n      dup2\n        /* \"#utility.yul\":4522:4653   */\n      tag_122\n      jump\t// in\n    tag_175:\n        /* \"#utility.yul\":4514:4653   */\n      swap1\n      pop\n        /* \"#utility.yul\":4241:4660   */\n      swap2\n      swap1\n      pop\n      jump\t// out\n        /* \"#utility.yul\":4666:4756   */\n    tag_123:\n        /* \"#utility.yul\":4700:4707   */\n      0x00\n        /* \"#utility.yul\":4743:4748   */\n      dup2\n        /* \"#utility.yul\":4736:4749   */\n      iszero\n        /* \"#utility.yul\":4729:4750   */\n      iszero\n        /* \"#utility.yul\":4718:4750   */\n      swap1\n      pop\n        /* \"#utility.yul\":4666:4756   */\n      swap2\n      swap1\n      pop\n      jump\t// out\n        /* \"#utility.yul\":4762:4871   */\n    tag_124:\n        /* \"#utility.yul\":4843:4864   */\n      tag_178\n        /* \"#utility.yul\":4858:4863   */\n      dup2\n        /* \"#utility.yul\":4843:4864   */\n      tag_123\n      jump\t// in\n    tag_178:\n        /* \"#utility.yul\":4838:4841   */\n      dup3\n        /* \"#utility.yul\":4831:4865   */\n      mstore\n        /* \"#utility.yul\":4762:4871   */\n      pop\n      pop\n      jump\t// out\n        /* \"#utility.yul\":4877:5307   */\n    tag_62:\n        /* \"#utility.yul\":5020:5024   */\n      0x00\n        /* \"#utility.yul\":5058:5060   */\n      0x60\n        /* \"#utility.yul\":5047:5056   */\n      dup3\n        /* \"#utility.yul\":5043:5061   */\n      add\n        /* \"#utility.yul\":5035:5061   */\n      swap1\n      pop\n        /* \"#utility.yul\":5071:5142   */\n      tag_180\n        /* \"#utility.yul\":5139:5140   */\n      0x00\n        /* \"#utility.yul\":5128:5137   */\n      dup4\n        /* \"#utility.yul\":5124:5141   */\n      add\n        /* \"#utility.yul\":5115:5121   */\n      dup7\n        /* \"#utility.yul\":5071:5142   */\n      tag_111\n      jump\t// in\n    tag_180:\n        /* \"#utility.yul\":5152:5224   */\n      tag_181\n        /* \"#utility.yul\":5220:5222   */\n      0x20\n        /* \"#utility.yul\":5209:5218   */\n      dup4\n        /* \"#utility.yul\":5205:5223   */\n      add\n        /* \"#utility.yul\":5196:5202   */\n      dup6\n        /* \"#utility.yul\":5152:5224   */\n      tag_108\n      jump\t// in\n    tag_181:\n        /* \"#utility.yul\":5234:5300   */\n      tag_182\n        /* \"#utility.yul\":5296:5298   */\n      0x40\n        /* \"#utility.yul\":5285:5294   */\n      dup4\n        /* \"#utility.yul\":5281:5299   */\n      add\n        /* \"#utility.yul\":5272:5278   */\n      dup5\n        /* \"#utility.yul\":5234:5300   */\n      tag_124\n      jump\t// in\n    tag_182:\n        /* \"#utility.yul\":4877:5307   */\n      swap5\n      swap4\n      pop\n      pop\n      pop\n      pop\n      jump\t// out\n        /* \"#utility.yul\":5313:5645   */\n    tag_64:\n        /* \"#utility.yul\":5434:5438   */\n      0x00\n        /* \"#utility.yul\":5472:5474   */\n      0x40\n        /* \"#utility.yul\":5461:5470   */\n      dup3\n        /* \"#utility.yul\":5457:5475   */\n      add\n        /* \"#utility.yul\":5449:5475   */\n      swap1\n      pop\n        /* \"#utility.yul\":5485:5556   */\n      tag_184\n        /* \"#utility.yul\":5553:5554   */\n      0x00\n        /* \"#utility.yul\":5542:5551   */\n      dup4\n        /* \"#utility.yul\":5538:5555   */\n      add\n        /* \"#utility.yul\":5529:5535   */\n      dup6\n        /* \"#utility.yul\":5485:5556   */\n      tag_111\n      jump\t// in\n    tag_184:\n        /* \"#utility.yul\":5566:5638   */\n      tag_185\n        /* \"#utility.yul\":5634:5636   */\n      0x20\n        /* \"#utility.yul\":5623:5632   */\n      dup4\n        /* \"#utility.yul\":5619:5637   */\n      add\n        /* \"#utility.yul\":5610:5616   */\n      dup5\n        /* \"#utility.yul\":5566:5638   */\n      tag_108\n      jump\t// in\n    tag_185:\n        /* \"#utility.yul\":5313:5645   */\n      swap4\n      swap3\n      pop\n      pop\n      pop\n      jump\t// out\n        /* \"#utility.yul\":5651:5824   */\n    tag_125:\n        /* \"#utility.yul\":5791:5816   */\n      0x61756374696f6e20616c72656164792073746172746564000000000000000000\n        /* \"#utility.yul\":5787:5788   */\n      0x00\n        /* \"#utility.yul\":5779:5785   */\n      dup3\n        /* \"#utility.yul\":5775:5789   */\n      add\n        /* \"#utility.yul\":5768:5817   */\n      mstore\n        /* \"#utility.yul\":5651:5824   */\n      pop\n      jump\t// out\n        /* \"#utility.yul\":5830:6196   */\n    tag_126:\n        /* \"#utility.yul\":5972:5975   */\n      0x00\n        /* \"#utility.yul\":5993:6060   */\n      tag_188\n        /* \"#utility.yul\":6057:6059   */\n      0x17\n        /* \"#utility.yul\":6052:6055   */\n      dup4\n        /* \"#utility.yul\":5993:6060   */\n      tag_118\n      jump\t// in\n    tag_188:\n        /* \"#utility.yul\":5986:6060   */\n      swap2\n      pop\n        /* \"#utility.yul\":6069:6162   */\n      tag_189\n        /* \"#utility.yul\":6158:6161   */\n      dup3\n        /* \"#utility.yul\":6069:6162   */\n      tag_125\n      jump\t// in\n    tag_189:\n        /* \"#utility.yul\":6187:6189   */\n      0x20\n        /* \"#utility.yul\":6182:6185   */\n      dup3\n        /* \"#utility.yul\":6178:6190   */\n      add\n        /* \"#utility.yul\":6171:6190   */\n      swap1\n      pop\n        /* \"#utility.yul\":5830:6196   */\n      swap2\n      swap1\n      pop\n      jump\t// out\n        /* \"#utility.yul\":6202:6621   */\n    tag_71:\n        /* \"#utility.yul\":6368:6372   */\n      0x00\n        /* \"#utility.yul\":6406:6408   */\n      0x20\n        /* \"#utility.yul\":6395:6404   */\n      dup3\n        /* \"#utility.yul\":6391:6409   */\n      add\n        /* \"#utility.yul\":6383:6409   */\n      swap1\n      pop\n        /* \"#utility.yul\":6455:6464   */\n      dup2\n        /* \"#utility.yul\":6449:6453   */\n      dup2\n        /* \"#utility.yul\":6445:6465   */\n      sub\n        /* \"#utility.yul\":6441:6442   */\n      0x00\n        /* \"#utility.yul\":6430:6439   */\n      dup4\n        /* \"#utility.yul\":6426:6443   */\n      add\n        /* \"#utility.yul\":6419:6466   */\n      mstore\n        /* \"#utility.yul\":6483:6614   */\n      tag_191\n        /* \"#utility.yul\":6609:6613   */\n      dup2\n        /* \"#utility.yul\":6483:6614   */\n      tag_126\n      jump\t// in\n    tag_191:\n        /* \"#utility.yul\":6475:6614   */\n      swap1\n      pop\n        /* \"#utility.yul\":6202:6621   */\n      swap2\n      swap1\n      pop\n      jump\t// out\n        /* \"#utility.yul\":6627:6959   */\n    tag_73:\n        /* \"#utility.yul\":6748:6752   */\n      0x00\n        /* \"#utility.yul\":6786:6788   */\n      0x40\n        /* \"#utility.yul\":6775:6784   */\n      dup3\n        /* \"#utility.yul\":6771:6789   */\n      add\n        /* \"#utility.yul\":6763:6789   */\n      swap1\n      pop\n        /* \"#utility.yul\":6799:6870   */\n      tag_193\n        /* \"#utility.yul\":6867:6868   */\n      0x00\n        /* \"#utility.yul\":6856:6865   */\n      dup4\n        /* \"#utility.yul\":6852:6869   */\n      add\n        /* \"#utility.yul\":6843:6849   */\n      dup6\n        /* \"#utility.yul\":6799:6870   */\n      tag_108\n      jump\t// in\n    tag_193:\n        /* \"#utility.yul\":6880:6952   */\n      tag_194\n        /* \"#utility.yul\":6948:6950   */\n      0x20\n        /* \"#utility.yul\":6937:6946   */\n      dup4\n        /* \"#utility.yul\":6933:6951   */\n      add\n        /* \"#utility.yul\":6924:6930   */\n      dup5\n        /* \"#utility.yul\":6880:6952   */\n      tag_108\n      jump\t// in\n    tag_194:\n        /* \"#utility.yul\":6627:6959   */\n      swap4\n      swap3\n      pop\n      pop\n      pop\n      jump\t// out\n\n    auxdata: 0xa2646970667358221220632ebf318e0674a4ff768645c06713eaa0331afb66d03b2fb0b4ffd3d3eb7b1f64736f6c634300081c0033\n}\n",
				"bytecode": {
					"linkReferences": {},
					"object": "608060405234801561000f575f5ffd5b50335f73ffffffffffffffffffffffffffffffffffffffff168173ffffffffffffffffffffffffffffffffffffffff1603610081575f6040517f1e4fbdf70000000000000000000000000000000000000000000000000000000081526004016100789190610196565b60405180910390fd5b6100908161009660201b60201c565b506101af565b5f5f5f9054906101000a900473ffffffffffffffffffffffffffffffffffffffff169050815f5f6101000a81548173ffffffffffffffffffffffffffffffffffffffff021916908373ffffffffffffffffffffffffffffffffffffffff1602179055508173ffffffffffffffffffffffffffffffffffffffff168173ffffffffffffffffffffffffffffffffffffffff167f8be0079c531659141344cd1fd0a4f28419497f9722a3daafe3b4186f6b6457e060405160405180910390a35050565b5f73ffffffffffffffffffffffffffffffffffffffff82169050919050565b5f61018082610157565b9050919050565b61019081610176565b82525050565b5f6020820190506101a95f830184610187565b92915050565b610bda806101bc5f395ff3fe608060405260043610610085575f3560e01c80638da5cb5b116100585780638da5cb5b146100e957806391f9015714610113578063d57bde791461013d578063f2fde38b14610167578063fe67a54b1461018f57610085565b80631998aeef146100895780636b64c76914610093578063715018a6146100a957806378e97925146100bf575b5f5ffd5b6100916101a5565b005b34801561009e575f5ffd5b506100a7610401565b005b3480156100b4575f5ffd5b506100bd6104e8565b005b3480156100ca575f5ffd5b506100d36104fb565b6040516100e09190610862565b60405180910390f35b3480156100f4575f5ffd5b506100fd610501565b60405161010a91906108ba565b60405180910390f35b34801561011e575f5ffd5b50610127610528565b60405161013491906108ba565b60405180910390f35b348015610148575f5ffd5b5061015161054d565b60405161015e9190610862565b60405180910390f35b348015610172575f5ffd5b5061018d60048036038101906101889190610901565b610553565b005b34801561019a575f5ffd5b506101a36105d7565b005b5f3390505f3490505f6001541180156101cb5750603c6001546101c89190610959565b42105b61020a576040517f08c379a0000000000000000000000000000000000000000000000000000000008152600401610201906109e6565b60405180910390fd5b60035481118015610230575067016345785d8a00006003548261022d9190610a04565b10155b61026f576040517f08c379a000000000000000000000000000000000000000000000000000000000815260040161026690610a81565b60405180910390fd5b5f73ffffffffffffffffffffffffffffffffffffffff1660025f9054906101000a900473ffffffffffffffffffffffffffffffffffffffff1673ffffffffffffffffffffffffffffffffffffffff161461037d575f60025f9054906101000a900473ffffffffffffffffffffffffffffffffffffffff1673ffffffffffffffffffffffffffffffffffffffff166108fc60035490811502906040515f60405180830381858888f1935050505090507f9ec8fd4891b49aae8ecb56892e6d93818739f52bac238fa16de2076fc8c1790c60025f9054906101000a900473ffffffffffffffffffffffffffffffffffffffff166003548360405161037393929190610ab9565b60405180910390a1505b8160025f6101000a81548173ffffffffffffffffffffffffffffffffffffffff021916908373ffffffffffffffffffffffffffffffffffffffff160217905550806003819055507fe684a55f31b79eca403df938249029212a5925ec6be8012e099b45bc1019e5d233346040516103f5929190610aee565b60405180910390a15050565b6104096106fb565b5f6001541461044d576040517f08c379a000000000000000000000000000000000000000000000000000000000815260040161044490610b5f565b60405180910390fd5b426001819055505f60025f6101000a81548173ffffffffffffffffffffffffffffffffffffffff021916908373ffffffffffffffffffffffffffffffffffffffff160217905550670de0b6b3a76400006003819055507ff8910119ddbef5440c54532457dfe8250a10ed39e583292818f44724b9e1344c670de0b6b3a76400006001546040516104de929190610b7d565b60405180910390a1565b6104f06106fb565b6104f95f610782565b565b60015481565b5f5f5f9054906101000a900473ffffffffffffffffffffffffffffffffffffffff16905090565b60025f9054906101000a900473ffffffffffffffffffffffffffffffffffffffff1681565b60035481565b61055b6106fb565b5f73ffffffffffffffffffffffffffffffffffffffff168173ffffffffffffffffffffffffffffffffffffffff16036105cb575f6040517f1e4fbdf70000000000000000000000000000000000000000000000000000000081526004016105c291906108ba565b60405180910390fd5b6105d481610782565b50565b6105df6106fb565b5f6001541180156105fe5750603c6001546105fa9190610959565b4210155b61063d576040517f08c379a0000000000000000000000000000000000000000000000000000000008152600401610634906109e6565b60405180910390fd5b7fdaec4582d5d9595688c8c98545fdd1c696d41c6aeaeb636737e84ed2f5c00eda60025f9054906101000a900473ffffffffffffffffffffffffffffffffffffffff16600354604051610691929190610aee565b60405180910390a15f6001819055505f4790505f8111156106f8576106b4610501565b73ffffffffffffffffffffffffffffffffffffffff166108fc8290811502906040515f60405180830381858888f193505050501580156106f6573d5f5f3e3d5ffd5b505b50565b610703610843565b73ffffffffffffffffffffffffffffffffffffffff16610721610501565b73ffffffffffffffffffffffffffffffffffffffff161461078057610744610843565b6040517f118cdaa700000000000000000000000000000000000000000000000000000000815260040161077791906108ba565b60405180910390fd5b565b5f5f5f9054906101000a900473ffffffffffffffffffffffffffffffffffffffff169050815f5f6101000a81548173ffffffffffffffffffffffffffffffffffffffff021916908373ffffffffffffffffffffffffffffffffffffffff1602179055508173ffffffffffffffffffffffffffffffffffffffff168173ffffffffffffffffffffffffffffffffffffffff167f8be0079c531659141344cd1fd0a4f28419497f9722a3daafe3b4186f6b6457e060405160405180910390a35050565b5f33905090565b5f819050919050565b61085c8161084a565b82525050565b5f6020820190506108755f830184610853565b92915050565b5f73ffffffffffffffffffffffffffffffffffffffff82169050919050565b5f6108a48261087b565b9050919050565b6108b48161089a565b82525050565b5f6020820190506108cd5f8301846108ab565b92915050565b5f5ffd5b6108e08161089a565b81146108ea575f5ffd5b50565b5f813590506108fb816108d7565b92915050565b5f60208284031215610916576109156108d3565b5b5f610923848285016108ed565b91505092915050565b7f4e487b71000000000000000000000000000000000000000000000000000000005f52601160045260245ffd5b5f6109638261084a565b915061096e8361084a565b92508282019050808211156109865761098561092c565b5b92915050565b5f82825260208201905092915050565b7f696e76616c69642061756374696f6e2074696d650000000000000000000000005f82015250565b5f6109d060148361098c565b91506109db8261099c565b602082019050919050565b5f6020820190508181035f8301526109fd816109c4565b9050919050565b5f610a0e8261084a565b9150610a198361084a565b9250828203905081811115610a3157610a3061092c565b5b92915050565b7f696e76616c69642061756374696f6e20626964000000000000000000000000005f82015250565b5f610a6b60138361098c565b9150610a7682610a37565b602082019050919050565b5f6020820190508181035f830152610a9881610a5f565b9050919050565b5f8115159050919050565b610ab381610a9f565b82525050565b5f606082019050610acc5f8301866108ab565b610ad96020830185610853565b610ae66040830184610aaa565b949350505050565b5f604082019050610b015f8301856108ab565b610b0e6020830184610853565b9392505050565b7f61756374696f6e20616c726561647920737461727465640000000000000000005f82015250565b5f610b4960178361098c565b9150610b5482610b15565b602082019050919050565b5f6020820190508181035f830152610b7681610b3d565b9050919050565b5f604082019050610b905f830185610853565b610b9d6020830184610853565b939250505056fea2646970667358221220632ebf318e0674a4ff768645c06713eaa0331afb66d03b2fb0b4ffd3d3eb7b1f64736f6c634300081c0033",
					"opcodes": "PUSH1 0x80 PUSH1 0x40 MSTORE CALLVALUE DUP1 ISZERO PUSH2 0xF JUMPI PUSH0 PUSH0 REVERT JUMPDEST POP CALLER PUSH0 PUSH20 0xFFFFFFFFFFFFFFFFFFFFFFFFFFFFFFFFFFFFFFFF AND DUP2 PUSH20 0xFFFFFFFFFFFFFFFFFFFFFFFFFFFFFFFFFFFFFFFF AND SUB PUSH2 0x81 JUMPI PUSH0 PUSH1 0x40 MLOAD PUSH32 0x1E4FBDF700000000000000000000000000000000000000000000000000000000 DUP2 MSTORE PUSH1 0x4 ADD PUSH2 0x78 SWAP2 SWAP1 PUSH2 0x196 JUMP JUMPDEST PUSH1 0x40 MLOAD DUP1 SWAP2 SUB SWAP1 REVERT JUMPDEST PUSH2 0x90 DUP2 PUSH2 0x96 PUSH1 0x20 SHL PUSH1 0x20 SHR JUMP JUMPDEST POP PUSH2 0x1AF JUMP JUMPDEST PUSH0 PUSH0 PUSH0 SWAP1 SLOAD SWAP1 PUSH2 0x100 EXP SWAP1 DIV PUSH20 0xFFFFFFFFFFFFFFFFFFFFFFFFFFFFFFFFFFFFFFFF AND SWAP1 POP DUP2 PUSH0 PUSH0 PUSH2 0x100 EXP DUP2 SLOAD DUP2 PUSH20 0xFFFFFFFFFFFFFFFFFFFFFFFFFFFFFFFFFFFFFFFF MUL NOT AND SWAP1 DUP4 PUSH20 0xFFFFFFFFFFFFFFFFFFFFFFFFFFFFFFFFFFFFFFFF AND MUL OR SWAP1 SSTORE POP DUP2 PUSH20 0xFFFFFFFFFFFFFFFFFFFFFFFFFFFFFFFFFFFFFFFF AND DUP2 PUSH20 0xFFFFFFFFFFFFFFFFFFFFFFFFFFFFFFFFFFFFFFFF AND PUSH32 0x8BE0079C531659141344CD1FD0A4F28419497F9722A3DAAFE3B4186F6B6457E0 PUSH1 0x40 MLOAD PUSH1 0x40 MLOAD DUP1 SWAP2 SUB SWAP1 LOG3 POP POP JUMP JUMPDEST PUSH0 PUSH20 0xFFFFFFFFFFFFFFFFFFFFFFFFFFFFFFFFFFFFFFFF DUP3 AND SWAP1 POP SWAP2 SWAP1 POP JUMP JUMPDEST PUSH0 PUSH2 0x180 DUP3 PUSH2 0x157 JUMP JUMPDEST SWAP1 POP SWAP2 SWAP1 POP JUMP JUMPDEST PUSH2 0x190 DUP2 PUSH2 0x176 JUMP JUMPDEST DUP3 MSTORE POP POP JUMP JUMPDEST PUSH0 PUSH1 0x20 DUP3 ADD SWAP1 POP PUSH2 0x1A9 PUSH0 DUP4 ADD DUP5 PUSH2 0x187 JUMP JUMPDEST SWAP3 SWAP2 POP POP JUMP JUMPDEST PUSH2 0xBDA DUP1 PUSH2 0x1BC PUSH0 CODECOPY PUSH0 RETURN INVALID PUSH1 0x80 PUSH1 0x40 MSTORE PUSH1 0x4 CALLDATASIZE LT PUSH2 0x85 JUMPI PUSH0 CALLDATALOAD PUSH1 0xE0 SHR DUP1 PUSH4 0x8DA5CB5B GT PUSH2 0x58 JUMPI DUP1 PUSH4 0x8DA5CB5B EQ PUSH2 0xE9 JUMPI DUP1 PUSH4 0x91F90157 EQ PUSH2 0x113 JUMPI DUP1 PUSH4 0xD57BDE79 EQ PUSH2 0x13D JUMPI DUP1 PUSH4 0xF2FDE38B EQ PUSH2 0x167 JUMPI DUP1 PUSH4 0xFE67A54B EQ PUSH2 0x18F JUMPI PUSH2 0x85 JUMP JUMPDEST DUP1 PUSH4 0x1998AEEF EQ PUSH2 0x89 JUMPI DUP1 PUSH4 0x6B64C769 EQ PUSH2 0x93 JUMPI DUP1 PUSH4 0x715018A6 EQ PUSH2 0xA9 JUMPI DUP1 PUSH4 0x78E97925 EQ PUSH2 0xBF JUMPI JUMPDEST PUSH0 PUSH0 REVERT JUMPDEST PUSH2 0x91 PUSH2 0x1A5 JUMP JUMPDEST STOP JUMPDEST CALLVALUE DUP1 ISZERO PUSH2 0x9E JUMPI PUSH0 PUSH0 REVERT JUMPDEST POP PUSH2 0xA7 PUSH2 0x401 JUMP JUMPDEST STOP JUMPDEST CALLVALUE DUP1 ISZERO PUSH2 0xB4 JUMPI PUSH0 PUSH0 REVERT JUMPDEST POP PUSH2 0xBD PUSH2 0x4E8 JUMP JUMPDEST STOP JUMPDEST CALLVALUE DUP1 ISZERO PUSH2 0xCA JUMPI PUSH0 PUSH0 REVERT JUMPDEST POP PUSH2 0xD3 PUSH2 0x4FB JUMP JUMPDEST PUSH1 0x40 MLOAD PUSH2 0xE0 SWAP2 SWAP1 PUSH2 0x862 JUMP JUMPDEST PUSH1 0x40 MLOAD DUP1 SWAP2 SUB SWAP1 RETURN JUMPDEST CALLVALUE DUP1 ISZERO PUSH2 0xF4 JUMPI PUSH0 PUSH0 REVERT JUMPDEST POP PUSH2 0xFD PUSH2 0x501 JUMP JUMPDEST PUSH1 0x40 MLOAD PUSH2 0x10A SWAP2 SWAP1 PUSH2 0x8BA JUMP JUMPDEST PUSH1 0x40 MLOAD DUP1 SWAP2 SUB SWAP1 RETURN JUMPDEST CALLVALUE DUP1 ISZERO PUSH2 0x11E JUMPI PUSH0 PUSH0 REVERT JUMPDEST POP PUSH2 0x127 PUSH2 0x528 JUMP JUMPDEST PUSH1 0x40 MLOAD PUSH2 0x134 SWAP2 SWAP1 PUSH2 0x8BA JUMP JUMPDEST PUSH1 0x40 MLOAD DUP1 SWAP2 SUB SWAP1 RETURN JUMPDEST CALLVALUE DUP1 ISZERO PUSH2 0x148 JUMPI PUSH0 PUSH0 REVERT JUMPDEST POP PUSH2 0x151 PUSH2 0x54D JUMP JUMPDEST PUSH1 0x40 MLOAD PUSH2 0x15E SWAP2 SWAP1 PUSH2 0x862 JUMP JUMPDEST PUSH1 0x40 MLOAD DUP1 SWAP2 SUB SWAP1 RETURN JUMPDEST CALLVALUE DUP1 ISZERO PUSH2 0x172 JUMPI PUSH0 PUSH0 REVERT JUMPDEST POP PUSH2 0x18D PUSH1 0x4 DUP1 CALLDATASIZE SUB DUP2 ADD SWAP1 PUSH2 0x188 SWAP2 SWAP1 PUSH2 0x901 JUMP JUMPDEST PUSH2 0x553 JUMP JUMPDEST STOP JUMPDEST CALLVALUE DUP1 ISZERO PUSH2 0x19A JUMPI PUSH0 PUSH0 REVERT JUMPDEST POP PUSH2 0x1A3 PUSH2 0x5D7 JUMP JUMPDEST STOP JUMPDEST PUSH0 CALLER SWAP1 POP PUSH0 CALLVALUE SWAP1 POP PUSH0 PUSH1 0x1 SLOAD GT DUP1 ISZERO PUSH2 0x1CB JUMPI POP PUSH1 0x3C PUSH1 0x1 SLOAD PUSH2 0x1C8 SWAP2 SWAP1 PUSH2 0x959 JUMP JUMPDEST TIMESTAMP LT JUMPDEST PUSH2 0x20A JUMPI PUSH1 0x40 MLOAD PUSH32 0x8C379A000000000000000000000000000000000000000000000000000000000 DUP2 MSTORE PUSH1 0x4 ADD PUSH2 0x201 SWAP1 PUSH2 0x9E6 JUMP JUMPDEST PUSH1 0x40 MLOAD DUP1 SWAP2 SUB SWAP1 REVERT JUMPDEST PUSH1 0x3 SLOAD DUP2 GT DUP1 ISZERO PUSH2 0x230 JUMPI POP PUSH8 0x16345785D8A0000 PUSH1 0x3 SLOAD DUP3 PUSH2 0x22D SWAP2 SWAP1 PUSH2 0xA04 JUMP JUMPDEST LT ISZERO JUMPDEST PUSH2 0x26F JUMPI PUSH1 0x40 MLOAD PUSH32 0x8C379A000000000000000000000000000000000000000000000000000000000 DUP2 MSTORE PUSH1 0x4 ADD PUSH2 0x266 SWAP1 PUSH2 0xA81 JUMP JUMPDEST PUSH1 0x40 MLOAD DUP1 SWAP2 SUB SWAP1 REVERT JUMPDEST PUSH0 PUSH20 0xFFFFFFFFFFFFFFFFFFFFFFFFFFFFFFFFFFFFFFFF AND PUSH1 0x2 PUSH0 SWAP1 SLOAD SWAP1 PUSH2 0x100 EXP SWAP1 DIV PUSH20 0xFFFFFFFFFFFFFFFFFFFFFFFFFFFFFFFFFFFFFFFF AND PUSH20 0xFFFFFFFFFFFFFFFFFFFFFFFFFFFFFFFFFFFFFFFF AND EQ PUSH2 0x37D JUMPI PUSH0 PUSH1 0x2 PUSH0 SWAP1 SLOAD SWAP1 PUSH2 0x100 EXP SWAP1 DIV PUSH20 0xFFFFFFFFFFFFFFFFFFFFFFFFFFFFFFFFFFFFFFFF AND PUSH20 0xFFFFFFFFFFFFFFFFFFFFFFFFFFFFFFFFFFFFFFFF AND PUSH2 0x8FC PUSH1 0x3 SLOAD SWAP1 DUP2 ISZERO MUL SWAP1 PUSH1 0x40 MLOAD PUSH0 PUSH1 0x40 MLOAD DUP1 DUP4 SUB DUP2 DUP6 DUP9 DUP9 CALL SWAP4 POP POP POP POP SWAP1 POP PUSH32 0x9EC8FD4891B49AAE8ECB56892E6D93818739F52BAC238FA16DE2076FC8C1790C PUSH1 0x2 PUSH0 SWAP1 SLOAD SWAP1 PUSH2 0x100 EXP SWAP1 DIV PUSH20 0xFFFFFFFFFFFFFFFFFFFFFFFFFFFFFFFFFFFFFFFF AND PUSH1 0x3 SLOAD DUP4 PUSH1 0x40 MLOAD PUSH2 0x373 SWAP4 SWAP3 SWAP2 SWAP1 PUSH2 0xAB9 JUMP JUMPDEST PUSH1 0x40 MLOAD DUP1 SWAP2 SUB SWAP1 LOG1 POP JUMPDEST DUP2 PUSH1 0x2 PUSH0 PUSH2 0x100 EXP DUP2 SLOAD DUP2 PUSH20 0xFFFFFFFFFFFFFFFFFFFFFFFFFFFFFFFFFFFFFFFF MUL NOT AND SWAP1 DUP4 PUSH20 0xFFFFFFFFFFFFFFFFFFFFFFFFFFFFFFFFFFFFFFFF AND MUL OR SWAP1 SSTORE POP DUP1 PUSH1 0x3 DUP2 SWAP1 SSTORE POP PUSH32 0xE684A55F31B79ECA403DF938249029212A5925EC6BE8012E099B45BC1019E5D2 CALLER CALLVALUE PUSH1 0x40 MLOAD PUSH2 0x3F5 SWAP3 SWAP2 SWAP1 PUSH2 0xAEE JUMP JUMPDEST PUSH1 0x40 MLOAD DUP1 SWAP2 SUB SWAP1 LOG1 POP POP JUMP JUMPDEST PUSH2 0x409 PUSH2 0x6FB JUMP JUMPDEST PUSH0 PUSH1 0x1 SLOAD EQ PUSH2 0x44D JUMPI PUSH1 0x40 MLOAD PUSH32 0x8C379A000000000000000000000000000000000000000000000000000000000 DUP2 MSTORE PUSH1 0x4 ADD PUSH2 0x444 SWAP1 PUSH2 0xB5F JUMP JUMPDEST PUSH1 0x40 MLOAD DUP1 SWAP2 SUB SWAP1 REVERT JUMPDEST TIMESTAMP PUSH1 0x1 DUP2 SWAP1 SSTORE POP PUSH0 PUSH1 0x2 PUSH0 PUSH2 0x100 EXP DUP2 SLOAD DUP2 PUSH20 0xFFFFFFFFFFFFFFFFFFFFFFFFFFFFFFFFFFFFFFFF MUL NOT AND SWAP1 DUP4 PUSH20 0xFFFFFFFFFFFFFFFFFFFFFFFFFFFFFFFFFFFFFFFF AND MUL OR SWAP1 SSTORE POP PUSH8 0xDE0B6B3A7640000 PUSH1 0x3 DUP2 SWAP1 SSTORE POP PUSH32 0xF8910119DDBEF5440C54532457DFE8250A10ED39E583292818F44724B9E1344C PUSH8 0xDE0B6B3A7640000 PUSH1 0x1 SLOAD PUSH1 0x40 MLOAD PUSH2 0x4DE SWAP3 SWAP2 SWAP1 PUSH2 0xB7D JUMP JUMPDEST PUSH1 0x40 MLOAD DUP1 SWAP2 SUB SWAP1 LOG1 JUMP JUMPDEST PUSH2 0x4F0 PUSH2 0x6FB JUMP JUMPDEST PUSH2 0x4F9 PUSH0 PUSH2 0x782 JUMP JUMPDEST JUMP JUMPDEST PUSH1 0x1 SLOAD DUP2 JUMP JUMPDEST PUSH0 PUSH0 PUSH0 SWAP1 SLOAD SWAP1 PUSH2 0x100 EXP SWAP1 DIV PUSH20 0xFFFFFFFFFFFFFFFFFFFFFFFFFFFFFFFFFFFFFFFF AND SWAP1 POP SWAP1 JUMP JUMPDEST PUSH1 0x2 PUSH0 SWAP1 SLOAD SWAP1 PUSH2 0x100 EXP SWAP1 DIV PUSH20 0xFFFFFFFFFFFFFFFFFFFFFFFFFFFFFFFFFFFFFFFF AND DUP2 JUMP JUMPDEST PUSH1 0x3 SLOAD DUP2 JUMP JUMPDEST PUSH2 0x55B PUSH2 0x6FB JUMP JUMPDEST PUSH0 PUSH20 0xFFFFFFFFFFFFFFFFFFFFFFFFFFFFFFFFFFFFFFFF AND DUP2 PUSH20 0xFFFFFFFFFFFFFFFFFFFFFFFFFFFFFFFFFFFFFFFF AND SUB PUSH2 0x5CB JUMPI PUSH0 PUSH1 0x40 MLOAD PUSH32 0x1E4FBDF700000000000000000000000000000000000000000000000000000000 DUP2 MSTORE PUSH1 0x4 ADD PUSH2 0x5C2 SWAP2 SWAP1 PUSH2 0x8BA JUMP JUMPDEST PUSH1 0x40 MLOAD DUP1 SWAP2 SUB SWAP1 REVERT JUMPDEST PUSH2 0x5D4 DUP2 PUSH2 0x782 JUMP JUMPDEST POP JUMP JUMPDEST PUSH2 0x5DF PUSH2 0x6FB JUMP JUMPDEST PUSH0 PUSH1 0x1 SLOAD GT DUP1 ISZERO PUSH2 0x5FE JUMPI POP PUSH1 0x3C PUSH1 0x1 SLOAD PUSH2 0x5FA SWAP2 SWAP1 PUSH2 0x959 JUMP JUMPDEST TIMESTAMP LT ISZERO JUMPDEST PUSH2 0x63D JUMPI PUSH1 0x40 MLOAD PUSH32 0x8C379A000000000000000000000000000000000000000000000000000000000 DUP2 MSTORE PUSH1 0x4 ADD PUSH2 0x634 SWAP1 PUSH2 0x9E6 JUMP JUMPDEST PUSH1 0x40 MLOAD DUP1 SWAP2 SUB SWAP1 REVERT JUMPDEST PUSH32 0xDAEC4582D5D9595688C8C98545FDD1C696D41C6AEAEB636737E84ED2F5C00EDA PUSH1 0x2 PUSH0 SWAP1 SLOAD SWAP1 PUSH2 0x100 EXP SWAP1 DIV PUSH20 0xFFFFFFFFFFFFFFFFFFFFFFFFFFFFFFFFFFFFFFFF AND PUSH1 0x3 SLOAD PUSH1 0x40 MLOAD PUSH2 0x691 SWAP3 SWAP2 SWAP1 PUSH2 0xAEE JUMP JUMPDEST PUSH1 0x40 MLOAD DUP1 SWAP2 SUB SWAP1 LOG1 PUSH0 PUSH1 0x1 DUP2 SWAP1 SSTORE POP PUSH0 SELFBALANCE SWAP1 POP PUSH0 DUP2 GT ISZERO PUSH2 0x6F8 JUMPI PUSH2 0x6B4 PUSH2 0x501 JUMP JUMPDEST PUSH20 0xFFFFFFFFFFFFFFFFFFFFFFFFFFFFFFFFFFFFFFFF AND PUSH2 0x8FC DUP3 SWAP1 DUP2 ISZERO MUL SWAP1 PUSH1 0x40 MLOAD PUSH0 PUSH1 0x40 MLOAD DUP1 DUP4 SUB DUP2 DUP6 DUP9 DUP9 CALL SWAP4 POP POP POP POP ISZERO DUP1 ISZERO PUSH2 0x6F6 JUMPI RETURNDATASIZE PUSH0 PUSH0 RETURNDATACOPY RETURNDATASIZE PUSH0 REVERT JUMPDEST POP JUMPDEST POP JUMP JUMPDEST PUSH2 0x703 PUSH2 0x843 JUMP JUMPDEST PUSH20 0xFFFFFFFFFFFFFFFFFFFFFFFFFFFFFFFFFFFFFFFF AND PUSH2 0x721 PUSH2 0x501 JUMP JUMPDEST PUSH20 0xFFFFFFFFFFFFFFFFFFFFFFFFFFFFFFFFFFFFFFFF AND EQ PUSH2 0x780 JUMPI PUSH2 0x744 PUSH2 0x843 JUMP JUMPDEST PUSH1 0x40 MLOAD PUSH32 0x118CDAA700000000000000000000000000000000000000000000000000000000 DUP2 MSTORE PUSH1 0x4 ADD PUSH2 0x777 SWAP2 SWAP1 PUSH2 0x8BA JUMP JUMPDEST PUSH1 0x40 MLOAD DUP1 SWAP2 SUB SWAP1 REVERT JUMPDEST JUMP JUMPDEST PUSH0 PUSH0 PUSH0 SWAP1 SLOAD SWAP1 PUSH2 0x100 EXP SWAP1 DIV PUSH20 0xFFFFFFFFFFFFFFFFFFFFFFFFFFFFFFFFFFFFFFFF AND SWAP1 POP DUP2 PUSH0 PUSH0 PUSH2 0x100 EXP DUP2 SLOAD DUP2 PUSH20 0xFFFFFFFFFFFFFFFFFFFFFFFFFFFFFFFFFFFFFFFF MUL NOT AND SWAP1 DUP4 PUSH20 0xFFFFFFFFFFFFFFFFFFFFFFFFFFFFFFFFFFFFFFFF AND MUL OR SWAP1 SSTORE POP DUP2 PUSH20 0xFFFFFFFFFFFFFFFFFFFFFFFFFFFFFFFFFFFFFFFF AND DUP2 PUSH20 0xFFFFFFFFFFFFFFFFFFFFFFFFFFFFFFFFFFFFFFFF AND PUSH32 0x8BE0079C531659141344CD1FD0A4F28419497F9722A3DAAFE3B4186F6B6457E0 PUSH1 0x40 MLOAD PUSH1 0x40 MLOAD DUP1 SWAP2 SUB SWAP1 LOG3 POP POP JUMP JUMPDEST PUSH0 CALLER SWAP1 POP SWAP1 JUMP JUMPDEST PUSH0 DUP2 SWAP1 POP SWAP2 SWAP1 POP JUMP JUMPDEST PUSH2 0x85C DUP2 PUSH2 0x84A JUMP JUMPDEST DUP3 MSTORE POP POP JUMP JUMPDEST PUSH0 PUSH1 0x20 DUP3 ADD SWAP1 POP PUSH2 0x875 PUSH0 DUP4 ADD DUP5 PUSH2 0x853 JUMP JUMPDEST SWAP3 SWAP2 POP POP JUMP JUMPDEST PUSH0 PUSH20 0xFFFFFFFFFFFFFFFFFFFFFFFFFFFFFFFFFFFFFFFF DUP3 AND SWAP1 POP SWAP2 SWAP1 POP JUMP JUMPDEST PUSH0 PUSH2 0x8A4 DUP3 PUSH2 0x87B JUMP JUMPDEST SWAP1 POP SWAP2 SWAP1 POP JUMP JUMPDEST PUSH2 0x8B4 DUP2 PUSH2 0x89A JUMP JUMPDEST DUP3 MSTORE POP POP JUMP JUMPDEST PUSH0 PUSH1 0x20 DUP3 ADD SWAP1 POP PUSH2 0x8CD PUSH0 DUP4 ADD DUP5 PUSH2 0x8AB JUMP JUMPDEST SWAP3 SWAP2 POP POP JUMP JUMPDEST PUSH0 PUSH0 REVERT JUMPDEST PUSH2 0x8E0 DUP2 PUSH2 0x89A JUMP JUMPDEST DUP2 EQ PUSH2 0x8EA JUMPI PUSH0 PUSH0 REVERT JUMPDEST POP JUMP JUMPDEST PUSH0 DUP2 CALLDATALOAD SWAP1 POP PUSH2 0x8FB DUP2 PUSH2 0x8D7 JUMP JUMPDEST SWAP3 SWAP2 POP POP JUMP JUMPDEST PUSH0 PUSH1 0x20 DUP3 DUP5 SUB SLT ISZERO PUSH2 0x916 JUMPI PUSH2 0x915 PUSH2 0x8D3 JUMP JUMPDEST JUMPDEST PUSH0 PUSH2 0x923 DUP5 DUP3 DUP6 ADD PUSH2 0x8ED JUMP JUMPDEST SWAP2 POP POP SWAP3 SWAP2 POP POP JUMP JUMPDEST PUSH32 0x4E487B7100000000000000000000000000000000000000000000000000000000 PUSH0 MSTORE PUSH1 0x11 PUSH1 0x4 MSTORE PUSH1 0x24 PUSH0 REVERT JUMPDEST PUSH0 PUSH2 0x963 DUP3 PUSH2 0x84A JUMP JUMPDEST SWAP2 POP PUSH2 0x96E DUP4 PUSH2 0x84A JUMP JUMPDEST SWAP3 POP DUP3 DUP3 ADD SWAP1 POP DUP1 DUP3 GT ISZERO PUSH2 0x986 JUMPI PUSH2 0x985 PUSH2 0x92C JUMP JUMPDEST JUMPDEST SWAP3 SWAP2 POP POP JUMP JUMPDEST PUSH0 DUP3 DUP3 MSTORE PUSH1 0x20 DUP3 ADD SWAP1 POP SWAP3 SWAP2 POP POP JUMP JUMPDEST PUSH32 0x696E76616C69642061756374696F6E2074696D65000000000000000000000000 PUSH0 DUP3 ADD MSTORE POP JUMP JUMPDEST PUSH0 PUSH2 0x9D0 PUSH1 0x14 DUP4 PUSH2 0x98C JUMP JUMPDEST SWAP2 POP PUSH2 0x9DB DUP3 PUSH2 0x99C JUMP JUMPDEST PUSH1 0x20 DUP3 ADD SWAP1 POP SWAP2 SWAP1 POP JUMP JUMPDEST PUSH0 PUSH1 0x20 DUP3 ADD SWAP1 POP DUP2 DUP2 SUB PUSH0 DUP4 ADD MSTORE PUSH2 0x9FD DUP2 PUSH2 0x9C4 JUMP JUMPDEST SWAP1 POP SWAP2 SWAP1 POP JUMP JUMPDEST PUSH0 PUSH2 0xA0E DUP3 PUSH2 0x84A JUMP JUMPDEST SWAP2 POP PUSH2 0xA19 DUP4 PUSH2 0x84A JUMP JUMPDEST SWAP3 POP DUP3 DUP3 SUB SWAP1 POP DUP2 DUP2 GT ISZERO PUSH2 0xA31 JUMPI PUSH2 0xA30 PUSH2 0x92C JUMP JUMPDEST JUMPDEST SWAP3 SWAP2 POP POP JUMP JUMPDEST PUSH32 0x696E76616C69642061756374696F6E2062696400000000000000000000000000 PUSH0 DUP3 ADD MSTORE POP JUMP JUMPDEST PUSH0 PUSH2 0xA6B PUSH1 0x13 DUP4 PUSH2 0x98C JUMP JUMPDEST SWAP2 POP PUSH2 0xA76 DUP3 PUSH2 0xA37 JUMP JUMPDEST PUSH1 0x20 DUP3 ADD SWAP1 POP SWAP2 SWAP1 POP JUMP JUMPDEST PUSH0 PUSH1 0x20 DUP3 ADD SWAP1 POP DUP2 DUP2 SUB PUSH0 DUP4 ADD MSTORE PUSH2 0xA98 DUP2 PUSH2 0xA5F JUMP JUMPDEST SWAP1 POP SWAP2 SWAP1 POP JUMP JUMPDEST PUSH0 DUP2 ISZERO ISZERO SWAP1 POP SWAP2 SWAP1 POP JUMP JUMPDEST PUSH2 0xAB3 DUP2 PUSH2 0xA9F JUMP JUMPDEST DUP3 MSTORE POP POP JUMP JUMPDEST PUSH0 PUSH1 0x60 DUP3 ADD SWAP1 POP PUSH2 0xACC PUSH0 DUP4 ADD DUP7 PUSH2 0x8AB JUMP JUMPDEST PUSH2 0xAD9 PUSH1 0x20 DUP4 ADD DUP6 PUSH2 0x853 JUMP JUMPDEST PUSH2 0xAE6 PUSH1 0x40 DUP4 ADD DUP5 PUSH2 0xAAA JUMP JUMPDEST SWAP5 SWAP4 POP POP POP POP JUMP JUMPDEST PUSH0 PUSH1 0x40 DUP3 ADD SWAP1 POP PUSH2 0xB01 PUSH0 DUP4 ADD DUP6 PUSH2 0x8AB JUMP JUMPDEST PUSH2 0xB0E PUSH1 0x20 DUP4 ADD DUP5 PUSH2 0x853 JUMP JUMPDEST SWAP4 SWAP3 POP POP POP JUMP JUMPDEST PUSH32 0x61756374696F6E20616C72656164792073746172746564000000000000000000 PUSH0 DUP3 ADD MSTORE POP JUMP JUMPDEST PUSH0 PUSH2 0xB49 PUSH1 0x17 DUP4 PUSH2 0x98C JUMP JUMPDEST SWAP2 POP PUSH2 0xB54 DUP3 PUSH2 0xB15 JUMP JUMPDEST PUSH1 0x20 DUP3 ADD SWAP1 POP SWAP2 SWAP1 POP JUMP JUMPDEST PUSH0 PUSH1 0x20 DUP3 ADD SWAP1 POP DUP2 DUP2 SUB PUSH0 DUP4 ADD MSTORE PUSH2 0xB76 DUP2 PUSH2 0xB3D JUMP JUMPDEST SWAP1 POP SWAP2 SWAP1 POP JUMP JUMPDEST PUSH0 PUSH1 0x40 DUP3 ADD SWAP1 POP PUSH2 0xB90 PUSH0 DUP4 ADD DUP6 PUSH2 0x853 JUMP JUMPDEST PUSH2 0xB9D PUSH1 0x20 DUP4 ADD DUP5 PUSH2 0x853 JUMP JUMPDEST SWAP4 SWAP3 POP POP POP JUMP INVALID LOG2 PUSH5 0x6970667358 0x22 SLT KECCAK256 PUSH4 0x2EBF318E MOD PUSH21 0xA4FF768645C06713EAA0331AFB66D03B2FB0B4FFD3 0xD3 0xEB PUSH28 0x1F64736F6C634300081C003300000000000000000000000000000000 "
				},
				"gasEstimates": {
					"creation": {
						"codeDepositCost": "606800",
						"executionCost": "infinite",
						"totalCost": "infinite"
					},
					"external": {
						"bid()": "infinite",
						"endAuction()": "infinite",
						"highestBid()": "2469",
						"highestBidder()": "2530",
						"owner()": "2514",
						"renounceOwnership()": "infinite",
						"startAuction()": "infinite",
						"startTime()": "2492",
						"transferOwnership(address)": "infinite"
					}
				},
				"methodIdentifiers": {
					"bid()": "1998aeef",
					"endAuction()": "fe67a54b",
					"highestBid()": "d57bde79",
					"highestBidder()": "91f90157",
					"owner()": "8da5cb5b",
					"renounceOwnership()": "715018a6",
					"startAuction()": "6b64c769",
					"startTime()": "78e97925",
					"transferOwnership(address)": "f2fde38b"
				}
			},
			"storageLayout": {
				"storage": [
					{
						"astId": 8,
						"contract": "contracts/EnglishAuction.sol:EnglishAuction",
						"label": "_owner",
						"offset": 0,
						"slot": "0",
						"type": "t_address"
					},
					{
						"astId": 193,
						"contract": "contracts/EnglishAuction.sol:EnglishAuction",
						"label": "startTime",
						"offset": 0,
						"slot": "1",
						"type": "t_uint256"
					},
					{
						"astId": 195,
						"contract": "contracts/EnglishAuction.sol:EnglishAuction",
						"label": "highestBidder",
						"offset": 0,
						"slot": "2",
						"type": "t_address"
					},
					{
						"astId": 197,
						"contract": "contracts/EnglishAuction.sol:EnglishAuction",
						"label": "highestBid",
						"offset": 0,
						"slot": "3",
						"type": "t_uint256"
					}
				],
				"types": {
					"t_address": {
						"encoding": "inplace",
						"label": "address",
						"numberOfBytes": "20"
					},
					"t_uint256": {
						"encoding": "inplace",
						"label": "uint256",
						"numberOfBytes": "32"
					}
				}
			},
			"userdoc": {
				"kind": "user",
				"methods": {},
				"version": 1
			}
		}
	}
}